{
  "contractName": "EXCHANGE",
  "abi": [
    {
      "inputs": [
        {
          "internalType": "contract MinimalForwarder",
          "name": "forwarder",
          "type": "address"
        }
      ],
      "stateMutability": "payable",
      "type": "constructor"
    },
    {
      "inputs": [],
      "name": "InvalidShortString",
      "type": "error"
    },
    {
      "inputs": [
        {
          "internalType": "string",
          "name": "str",
          "type": "string"
        }
      ],
      "name": "StringTooLong",
      "type": "error"
    },
    {
      "anonymous": false,
      "inputs": [
        {
          "indexed": true,
          "internalType": "address",
          "name": "whoAdded",
          "type": "address"
        },
        {
          "indexed": true,
          "internalType": "address",
          "name": "currency",
          "type": "address"
        },
        {
          "indexed": true,
          "internalType": "uint256",
          "name": "timestamp",
          "type": "uint256"
        },
        {
          "indexed": false,
          "internalType": "string",
          "name": "curName",
          "type": "string"
        }
      ],
      "name": "CurrencyAdded",
      "type": "event"
    },
    {
      "anonymous": false,
      "inputs": [],
      "name": "EIP712DomainChanged",
      "type": "event"
    },
    {
      "anonymous": false,
      "inputs": [
        {
          "indexed": false,
          "internalType": "address",
          "name": "account",
          "type": "address"
        }
      ],
      "name": "Paused",
      "type": "event"
    },
    {
      "anonymous": false,
      "inputs": [
        {
          "indexed": true,
          "internalType": "address",
          "name": "whoAdded",
          "type": "address"
        },
        {
          "indexed": true,
          "internalType": "address",
          "name": "security",
          "type": "address"
        },
        {
          "indexed": true,
          "internalType": "uint256",
          "name": "timestamp",
          "type": "uint256"
        },
        {
          "indexed": false,
          "internalType": "string",
          "name": "curName",
          "type": "string"
        },
        {
          "indexed": false,
          "internalType": "address",
          "name": "funds",
          "type": "address"
        }
      ],
      "name": "ProjectAdded",
      "type": "event"
    },
    {
      "anonymous": false,
      "inputs": [
        {
          "indexed": true,
          "internalType": "bytes32",
          "name": "role",
          "type": "bytes32"
        },
        {
          "indexed": true,
          "internalType": "bytes32",
          "name": "previousAdminRole",
          "type": "bytes32"
        },
        {
          "indexed": true,
          "internalType": "bytes32",
          "name": "newAdminRole",
          "type": "bytes32"
        }
      ],
      "name": "RoleAdminChanged",
      "type": "event"
    },
    {
      "anonymous": false,
      "inputs": [
        {
          "indexed": true,
          "internalType": "bytes32",
          "name": "role",
          "type": "bytes32"
        },
        {
          "indexed": true,
          "internalType": "address",
          "name": "account",
          "type": "address"
        },
        {
          "indexed": true,
          "internalType": "address",
          "name": "sender",
          "type": "address"
        }
      ],
      "name": "RoleGranted",
      "type": "event"
    },
    {
      "anonymous": false,
      "inputs": [
        {
          "indexed": true,
          "internalType": "bytes32",
          "name": "role",
          "type": "bytes32"
        },
        {
          "indexed": true,
          "internalType": "address",
          "name": "account",
          "type": "address"
        },
        {
          "indexed": true,
          "internalType": "address",
          "name": "sender",
          "type": "address"
        }
      ],
      "name": "RoleRevoked",
      "type": "event"
    },
    {
      "anonymous": false,
      "inputs": [
        {
          "indexed": true,
          "internalType": "address",
          "name": "curSender",
          "type": "address"
        },
        {
          "indexed": true,
          "internalType": "address",
          "name": "secReceiver",
          "type": "address"
        },
        {
          "indexed": true,
          "internalType": "uint256",
          "name": "timestamp",
          "type": "uint256"
        },
        {
          "indexed": false,
          "internalType": "uint256",
          "name": "quantity",
          "type": "uint256"
        }
      ],
      "name": "Trade",
      "type": "event"
    },
    {
      "anonymous": false,
      "inputs": [
        {
          "indexed": false,
          "internalType": "address",
          "name": "account",
          "type": "address"
        }
      ],
      "name": "Unpaused",
      "type": "event"
    },
    {
      "anonymous": false,
      "inputs": [
        {
          "indexed": true,
          "internalType": "address",
          "name": "curAddr",
          "type": "address"
        },
        {
          "indexed": true,
          "internalType": "address",
          "name": "secAddr",
          "type": "address"
        },
        {
          "indexed": true,
          "internalType": "uint256",
          "name": "timestamp",
          "type": "uint256"
        },
        {
          "indexed": false,
          "internalType": "address",
          "name": "whoAdded",
          "type": "address"
        }
      ],
      "name": "whiteListed",
      "type": "event"
    },
    {
      "inputs": [],
      "name": "DEFAULT_ADMIN_ROLE",
      "outputs": [
        {
          "internalType": "bytes32",
          "name": "",
          "type": "bytes32"
        }
      ],
      "stateMutability": "view",
      "type": "function"
    },
    {
      "inputs": [],
      "name": "EXCHANGER_ROLE",
      "outputs": [
        {
          "internalType": "bytes32",
          "name": "",
          "type": "bytes32"
        }
      ],
      "stateMutability": "view",
      "type": "function"
    },
    {
      "inputs": [],
      "name": "PAUSER_ROLE",
      "outputs": [
        {
          "internalType": "bytes32",
          "name": "",
          "type": "bytes32"
        }
      ],
      "stateMutability": "view",
      "type": "function"
    },
    {
      "inputs": [],
      "name": "PROJECTCREATOR_ROLE",
      "outputs": [
        {
          "internalType": "bytes32",
          "name": "",
          "type": "bytes32"
        }
      ],
      "stateMutability": "view",
      "type": "function"
    },
    {
      "inputs": [],
      "name": "WHITELISTER_ROLE",
      "outputs": [
        {
          "internalType": "bytes32",
          "name": "",
          "type": "bytes32"
        }
      ],
      "stateMutability": "view",
      "type": "function"
    },
    {
      "inputs": [
        {
          "internalType": "string",
          "name": "",
          "type": "string"
        }
      ],
      "name": "crowdfounding",
      "outputs": [
        {
          "internalType": "address",
          "name": "",
          "type": "address"
        }
      ],
      "stateMutability": "view",
      "type": "function"
    },
    {
      "inputs": [
        {
          "internalType": "string",
          "name": "",
          "type": "string"
        }
      ],
      "name": "currency",
      "outputs": [
        {
          "internalType": "contract IERC20",
          "name": "",
          "type": "address"
        }
      ],
      "stateMutability": "view",
      "type": "function"
    },
    {
      "inputs": [],
      "name": "eip712Domain",
      "outputs": [
        {
          "internalType": "bytes1",
          "name": "fields",
          "type": "bytes1"
        },
        {
          "internalType": "string",
          "name": "name",
          "type": "string"
        },
        {
          "internalType": "string",
          "name": "version",
          "type": "string"
        },
        {
          "internalType": "uint256",
          "name": "chainId",
          "type": "uint256"
        },
        {
          "internalType": "address",
          "name": "verifyingContract",
          "type": "address"
        },
        {
          "internalType": "bytes32",
          "name": "salt",
          "type": "bytes32"
        },
        {
          "internalType": "uint256[]",
          "name": "extensions",
          "type": "uint256[]"
        }
      ],
      "stateMutability": "view",
      "type": "function"
    },
    {
      "inputs": [
        {
          "components": [
            {
              "internalType": "address",
              "name": "from",
              "type": "address"
            },
            {
              "internalType": "address",
              "name": "to",
              "type": "address"
            },
            {
              "internalType": "uint256",
              "name": "value",
              "type": "uint256"
            },
            {
              "internalType": "uint256",
              "name": "gas",
              "type": "uint256"
            },
            {
              "internalType": "uint256",
              "name": "nonce",
              "type": "uint256"
            },
            {
              "internalType": "bytes",
              "name": "data",
              "type": "bytes"
            }
          ],
          "internalType": "struct MinimalForwarder.ForwardRequest",
          "name": "req",
          "type": "tuple"
        },
        {
          "internalType": "bytes",
          "name": "signature",
          "type": "bytes"
        }
      ],
      "name": "execute",
      "outputs": [
        {
          "internalType": "bool",
          "name": "",
          "type": "bool"
        },
        {
          "internalType": "bytes",
          "name": "",
          "type": "bytes"
        }
      ],
      "stateMutability": "payable",
      "type": "function"
    },
    {
      "inputs": [
        {
          "internalType": "address",
          "name": "from",
          "type": "address"
        }
      ],
      "name": "getNonce",
      "outputs": [
        {
          "internalType": "uint256",
          "name": "",
          "type": "uint256"
        }
      ],
      "stateMutability": "view",
      "type": "function"
    },
    {
      "inputs": [
        {
          "internalType": "bytes32",
          "name": "role",
          "type": "bytes32"
        }
      ],
      "name": "getRoleAdmin",
      "outputs": [
        {
          "internalType": "bytes32",
          "name": "",
          "type": "bytes32"
        }
      ],
      "stateMutability": "view",
      "type": "function"
    },
    {
      "inputs": [
        {
          "internalType": "bytes32",
          "name": "role",
          "type": "bytes32"
        },
        {
          "internalType": "address",
          "name": "account",
          "type": "address"
        }
      ],
      "name": "grantRole",
      "outputs": [],
      "stateMutability": "nonpayable",
      "type": "function"
    },
    {
      "inputs": [
        {
          "internalType": "bytes32",
          "name": "role",
          "type": "bytes32"
        },
        {
          "internalType": "address",
          "name": "account",
          "type": "address"
        }
      ],
      "name": "hasRole",
      "outputs": [
        {
          "internalType": "bool",
          "name": "",
          "type": "bool"
        }
      ],
      "stateMutability": "view",
      "type": "function"
    },
    {
      "inputs": [
        {
          "internalType": "address",
          "name": "forwarder",
          "type": "address"
        }
      ],
      "name": "isTrustedForwarder",
      "outputs": [
        {
          "internalType": "bool",
          "name": "",
          "type": "bool"
        }
      ],
      "stateMutability": "view",
      "type": "function"
    },
    {
      "inputs": [
        {
          "internalType": "address",
          "name": "",
          "type": "address"
        }
      ],
      "name": "link",
      "outputs": [
        {
          "internalType": "address",
          "name": "",
          "type": "address"
        }
      ],
      "stateMutability": "view",
      "type": "function"
    },
    {
      "inputs": [],
      "name": "paused",
      "outputs": [
        {
          "internalType": "bool",
          "name": "",
          "type": "bool"
        }
      ],
      "stateMutability": "view",
      "type": "function"
    },
    {
      "inputs": [],
      "name": "propiedad",
      "outputs": [
        {
          "internalType": "contract IERC20",
          "name": "",
          "type": "address"
        }
      ],
      "stateMutability": "view",
      "type": "function"
    },
    {
      "inputs": [
        {
          "internalType": "bytes32",
          "name": "role",
          "type": "bytes32"
        },
        {
          "internalType": "address",
          "name": "account",
          "type": "address"
        }
      ],
      "name": "renounceRole",
      "outputs": [],
      "stateMutability": "nonpayable",
      "type": "function"
    },
    {
      "inputs": [
        {
          "internalType": "bytes32",
          "name": "role",
          "type": "bytes32"
        },
        {
          "internalType": "address",
          "name": "account",
          "type": "address"
        }
      ],
      "name": "revokeRole",
      "outputs": [],
      "stateMutability": "nonpayable",
      "type": "function"
    },
    {
      "inputs": [
        {
          "internalType": "string",
          "name": "",
          "type": "string"
        }
      ],
      "name": "security",
      "outputs": [
        {
          "internalType": "contract IERC20",
          "name": "",
          "type": "address"
        }
      ],
      "stateMutability": "view",
      "type": "function"
    },
    {
      "inputs": [
        {
          "internalType": "bytes4",
          "name": "interfaceId",
          "type": "bytes4"
        }
      ],
      "name": "supportsInterface",
      "outputs": [
        {
          "internalType": "bool",
          "name": "",
          "type": "bool"
        }
      ],
      "stateMutability": "view",
      "type": "function"
    },
    {
      "inputs": [],
      "name": "usdc",
      "outputs": [
        {
          "internalType": "contract IERC20",
          "name": "",
          "type": "address"
        }
      ],
      "stateMutability": "view",
      "type": "function"
    },
    {
      "inputs": [
        {
          "components": [
            {
              "internalType": "address",
              "name": "from",
              "type": "address"
            },
            {
              "internalType": "address",
              "name": "to",
              "type": "address"
            },
            {
              "internalType": "uint256",
              "name": "value",
              "type": "uint256"
            },
            {
              "internalType": "uint256",
              "name": "gas",
              "type": "uint256"
            },
            {
              "internalType": "uint256",
              "name": "nonce",
              "type": "uint256"
            },
            {
              "internalType": "bytes",
              "name": "data",
              "type": "bytes"
            }
          ],
          "internalType": "struct MinimalForwarder.ForwardRequest",
          "name": "req",
          "type": "tuple"
        },
        {
          "internalType": "bytes",
          "name": "signature",
          "type": "bytes"
        }
      ],
      "name": "verify",
      "outputs": [
        {
          "internalType": "bool",
          "name": "",
          "type": "bool"
        }
      ],
      "stateMutability": "view",
      "type": "function"
    },
    {
      "inputs": [],
      "name": "pause",
      "outputs": [],
      "stateMutability": "nonpayable",
      "type": "function"
    },
    {
      "inputs": [],
      "name": "unpause",
      "outputs": [],
      "stateMutability": "nonpayable",
      "type": "function"
    },
    {
      "inputs": [
        {
          "internalType": "string",
          "name": "_name",
          "type": "string"
        },
        {
          "internalType": "address",
          "name": "_propiedad",
          "type": "address"
        },
        {
          "internalType": "address",
          "name": "_funds",
          "type": "address"
        },
        {
          "internalType": "uint8",
          "name": "_decimals",
          "type": "uint8"
        }
      ],
      "name": "setSecurity",
      "outputs": [],
      "stateMutability": "nonpayable",
      "type": "function"
    },
    {
      "inputs": [
        {
          "internalType": "string",
          "name": "_name",
          "type": "string"
        },
        {
          "internalType": "address",
          "name": "_addr",
          "type": "address"
        },
        {
          "internalType": "uint8",
          "name": "_decimals",
          "type": "uint8"
        }
      ],
      "name": "setCurrency",
      "outputs": [],
      "stateMutability": "nonpayable",
      "type": "function"
    },
    {
      "inputs": [
        {
          "internalType": "address",
          "name": "_link",
          "type": "address"
        }
      ],
      "name": "setLink",
      "outputs": [],
      "stateMutability": "nonpayable",
      "type": "function"
    },
    {
      "inputs": [
        {
          "internalType": "address",
          "name": "_link",
          "type": "address"
        },
        {
          "internalType": "address",
          "name": "_linksemi",
          "type": "address"
        }
      ],
      "name": "setLinkManual",
      "outputs": [],
      "stateMutability": "nonpayable",
      "type": "function"
    },
    {
      "inputs": [
        {
          "internalType": "string",
          "name": "_currency",
          "type": "string"
        },
        {
          "internalType": "string",
          "name": "_security",
          "type": "string"
        },
        {
          "internalType": "uint256",
          "name": "_amount",
          "type": "uint256"
        }
      ],
      "name": "comprar",
      "outputs": [
        {
          "internalType": "bool",
          "name": "_success",
          "type": "bool"
        }
      ],
      "stateMutability": "nonpayable",
      "type": "function"
    }
  ],
  "bytecode": "0x610180604052604051620051543803806200515483398181016040528101906200002a9190620006b4565b6040518060400160405280601081526020017f4d696e696d616c466f72776172646572000000000000000000000000000000008152506040518060400160405280600581526020017f302e302e31000000000000000000000000000000000000000000000000000000815250828073ffffffffffffffffffffffffffffffffffffffff1660808173ffffffffffffffffffffffffffffffffffffffff16815250505060008060006101000a81548160ff021916908315150217905550620001016002836200025360201b620020981790919060201c565b6101408181525050620001246003826200025360201b620020981790919060201c565b610160818152505081805190602001206101008181525050808051906020012061012081815250504660c0818152505062000164620002b760201b60201c565b60a081815250503073ffffffffffffffffffffffffffffffffffffffff1660e08173ffffffffffffffffffffffffffffffffffffffff16815250505050620001b66000801b336200031560201b60201c565b620001e87f65d7a28e3265b37a6474929f336521b332c1681b933f6cb9f3376673440d862a336200031560201b60201c565b6200021a7f8619cecd8b9e095ab43867f5b69d492180450fe862e6b50bfbfb24b75dd84c8a336200031560201b60201c565b6200024c7f021c73170b6ee67d18900edd1d18b4647810aae53143ba4e3a3d55e62b23be89336200031560201b60201c565b5062000966565b6000602083511015620002795762000271836200040660201b60201c565b9050620002b1565b8262000290836200047360201b620020e31760201c565b6000019080519060200190620002a892919062000586565b5060ff60001b90505b92915050565b60007f8b73c3c69bb8fe3d512ecc4cf759cc79239f7b179b0ffacaa9a75d522b39400f61010051610120514630604051602001620002fa9594939291906200072d565b60405160208183030381529060405280519060200120905090565b6200032782826200047d60201b60201c565b6200040257600180600084815260200190815260200160002060000160008373ffffffffffffffffffffffffffffffffffffffff1673ffffffffffffffffffffffffffffffffffffffff16815260200190815260200160002060006101000a81548160ff021916908315150217905550620003a7620004e860201b60201c565b73ffffffffffffffffffffffffffffffffffffffff168173ffffffffffffffffffffffffffffffffffffffff16837f2f8788117e7eff1d82e926ec794901d17c78024a50270940304540a733656f0d60405160405180910390a45b5050565b600080829050601f815111156200045657826040517f305a27a90000000000000000000000000000000000000000000000000000000081526004016200044d91906200082e565b60405180910390fd5b805181620004649062000891565b60001c1760001b915050919050565b6000819050919050565b60006001600084815260200190815260200160002060000160008373ffffffffffffffffffffffffffffffffffffffff1673ffffffffffffffffffffffffffffffffffffffff16815260200190815260200160002060009054906101000a900460ff16905092915050565b6000620004fb336200054460201b60201c565b80156200050d57506014600036905010155b156200052357601436033560601c905062000540565b620005386200057e60201b620020ed1760201c565b905062000541565b5b90565b600060805173ffffffffffffffffffffffffffffffffffffffff168273ffffffffffffffffffffffffffffffffffffffff16149050919050565b600033905090565b828054620005949062000930565b90600052602060002090601f016020900481019282620005b8576000855562000604565b82601f10620005d357805160ff191683800117855562000604565b8280016001018555821562000604579182015b8281111562000603578251825591602001919060010190620005e6565b5b50905062000613919062000617565b5090565b5b808211156200063257600081600090555060010162000618565b5090565b600080fd5b600073ffffffffffffffffffffffffffffffffffffffff82169050919050565b600062000668826200063b565b9050919050565b60006200067c826200065b565b9050919050565b6200068e816200066f565b81146200069a57600080fd5b50565b600081519050620006ae8162000683565b92915050565b600060208284031215620006cd57620006cc62000636565b5b6000620006dd848285016200069d565b91505092915050565b6000819050919050565b620006fb81620006e6565b82525050565b6000819050919050565b620007168162000701565b82525050565b62000727816200065b565b82525050565b600060a082019050620007446000830188620006f0565b620007536020830187620006f0565b620007626040830186620006f0565b6200077160608301856200070b565b6200078060808301846200071c565b9695505050505050565b600081519050919050565b600082825260208201905092915050565b60005b83811015620007c6578082015181840152602081019050620007a9565b83811115620007d6576000848401525b50505050565b6000601f19601f8301169050919050565b6000620007fa826200078a565b62000806818562000795565b935062000818818560208601620007a6565b6200082381620007dc565b840191505092915050565b600060208201905081810360008301526200084a8184620007ed565b905092915050565b600081519050919050565b6000819050602082019050919050565b60006200087b8251620006e6565b80915050919050565b600082821b905092915050565b60006200089e8262000852565b82620008aa846200085d565b9050620008b7816200086d565b92506020821015620008fa57620008f57fffffffffffffffffffffffffffffffffffffffffffffffffffffffffffffffff8360200360080262000884565b831692505b5050919050565b7f4e487b7100000000000000000000000000000000000000000000000000000000600052602260045260246000fd5b600060028204905060018216806200094957607f821691505b6020821081141562000960576200095f62000901565b5b50919050565b60805160a05160c05160e05161010051610120516101405161016051614788620009cc6000396000611823015260006117ef01526000612cd801526000612cb7015260006127250152600061277b015260006127a40152600061162301526147886000f3fe6080604052600436106101cd5760003560e01c806373bf32db116100f7578063a217fddf11610095578063d547741f11610064578063d547741f146106aa578063db3064bb146106d3578063dcfc958a14610710578063e63ab1e91461074d576101cd565b8063a217fddf146105f0578063a78ac3a31461061b578063bf5d3bdb14610644578063cdd31efe14610681576101cd565b806391a89712116100d157806391a897121461052257806391d148541461055f57806394547fcc1461059c5780639df506c9146105c5576101cd565b806373bf32db146104b15780638456cb59146104da57806384b0196e146104f1576101cd565b806336568abe1161016f57806354dff05d1161013e57806354dff05d146103e1578063570618e11461041e578063572b6c05146104495780635c975abb14610486576101cd565b806336568abe146103455780633e413bee1461036e5780633f4ba83a1461039957806347153f82146103b0576101cd565b8063248a9ca3116101ab578063248a9ca3146102775780632d0335ab146102b45780632f2ff15d146102f157806332da8ba71461031a576101cd565b806301ffc9a7146101d257806313501ae01461020f57806316ab2f671461024c575b600080fd5b3480156101de57600080fd5b506101f960048036038101906101f49190612fa0565b610778565b6040516102069190612fe8565b60405180910390f35b34801561021b57600080fd5b506102366004803603810190610231919061309e565b6107f2565b6040516102439190612fe8565b60405180910390f35b34801561025857600080fd5b50610261611256565b60405161026e919061314c565b60405180910390f35b34801561028357600080fd5b5061029e60048036038101906102999190613193565b61127a565b6040516102ab919061314c565b60405180910390f35b3480156102c057600080fd5b506102db60048036038101906102d6919061321e565b61129a565b6040516102e8919061325a565b60405180910390f35b3480156102fd57600080fd5b5061031860048036038101906103139190613275565b6112e3565b005b34801561032657600080fd5b5061032f611304565b60405161033c919061314c565b60405180910390f35b34801561035157600080fd5b5061036c60048036038101906103679190613275565b611328565b005b34801561037a57600080fd5b506103836113ab565b6040516103909190613314565b60405180910390f35b3480156103a557600080fd5b506103ae6113d1565b005b6103ca60048036038101906103c591906133a9565b611406565b6040516103d89291906134be565b60405180910390f35b3480156103ed57600080fd5b506104086004803603810190610403919061361e565b6115b2565b6040516104159190613314565b60405180910390f35b34801561042a57600080fd5b506104336115fb565b604051610440919061314c565b60405180910390f35b34801561045557600080fd5b50610470600480360381019061046b919061321e565b61161f565b60405161047d9190612fe8565b60405180910390f35b34801561049257600080fd5b5061049b611677565b6040516104a89190612fe8565b60405180910390f35b3480156104bd57600080fd5b506104d860048036038101906104d39190613667565b61168d565b005b3480156104e657600080fd5b506104ef6117a7565b005b3480156104fd57600080fd5b506105066117dc565b6040516105199796959493929190613804565b60405180910390f35b34801561052e57600080fd5b506105496004803603810190610544919061321e565b6118de565b6040516105569190613888565b60405180910390f35b34801561056b57600080fd5b5061058660048036038101906105819190613275565b611911565b6040516105939190612fe8565b60405180910390f35b3480156105a857600080fd5b506105c360048036038101906105be919061321e565b61197c565b005b3480156105d157600080fd5b506105da611a9b565b6040516105e79190613314565b60405180910390f35b3480156105fc57600080fd5b50610605611ac1565b604051610612919061314c565b60405180910390f35b34801561062757600080fd5b50610642600480360381019061063d91906138dc565b611ac8565b005b34801561065057600080fd5b5061066b600480360381019061066691906133a9565b611c99565b6040516106789190612fe8565b60405180910390f35b34801561068d57600080fd5b506106a860048036038101906106a39190613964565b611e4f565b005b3480156106b657600080fd5b506106d160048036038101906106cc9190613275565b611fc1565b005b3480156106df57600080fd5b506106fa60048036038101906106f5919061361e565b611fe2565b6040516107079190613888565b60405180910390f35b34801561071c57600080fd5b506107376004803603810190610732919061361e565b61202b565b6040516107449190613314565b60405180910390f35b34801561075957600080fd5b50610762612074565b60405161076f919061314c565b60405180910390f35b60007f7965db0b000000000000000000000000000000000000000000000000000000007bffffffffffffffffffffffffffffffffffffffffffffffffffffffff1916827bffffffffffffffffffffffffffffffffffffffffffffffffffffffff191614806107eb57506107ea826120f5565b5b9050919050565b60007fb9c595dd714e8ed8568b5dd4315ea8b709bbd3d27ae09ef7290c5ae7b976fb9361081e8161215f565b610826612173565b60006009888860405161083a929190613a08565b908152602001604051809103902060009054906101000a900460ff16905060006009878760405161086c929190613a08565b908152602001604051809103902060009054906101000a900460ff1690508060ff168260ff161415610bc157600589896040516108aa929190613a08565b908152602001604051809103902060009054906101000a900473ffffffffffffffffffffffffffffffffffffffff1673ffffffffffffffffffffffffffffffffffffffff166323b872dd600c60006109006121bd565b73ffffffffffffffffffffffffffffffffffffffff1673ffffffffffffffffffffffffffffffffffffffff16815260200190815260200160002060009054906101000a900473ffffffffffffffffffffffffffffffffffffffff16600a8a8a60405161096d929190613a08565b908152602001604051809103902060009054906101000a900473ffffffffffffffffffffffffffffffffffffffff16886040518463ffffffff1660e01b81526004016109bb93929190613a21565b602060405180830381600087803b1580156109d557600080fd5b505af11580156109e9573d6000803e3d6000fd5b505050506040513d601f19601f82011682018060405250810190610a0d9190613a84565b5060068787604051610a20929190613a08565b908152602001604051809103902060009054906101000a900473ffffffffffffffffffffffffffffffffffffffff1673ffffffffffffffffffffffffffffffffffffffff1663a9059cbb610a726121bd565b876040518363ffffffff1660e01b8152600401610a90929190613ab1565b602060405180830381600087803b158015610aaa57600080fd5b505af1158015610abe573d6000803e3d6000fd5b505050506040513d601f19601f82011682018060405250810190610ae29190613a84565b5042610aec6121bd565b73ffffffffffffffffffffffffffffffffffffffff16600c6000610b0e6121bd565b73ffffffffffffffffffffffffffffffffffffffff1673ffffffffffffffffffffffffffffffffffffffff16815260200190815260200160002060009054906101000a900473ffffffffffffffffffffffffffffffffffffffff1673ffffffffffffffffffffffffffffffffffffffff167f4b5796113f074ebf8f11d5bcdeb6349b2fbe47abed78419cdcdbbc15c6fcf84588604051610bae919061325a565b60405180910390a460019350505061124c565b60008160ff168360ff161115610ea35760098888604051610be3929190613a08565b908152602001604051809103902060009054906101000a900460ff1660098b8b604051610c11929190613a08565b908152602001604051809103902060009054906101000a900460ff16610c379190613b09565b905060058a8a604051610c4b929190613a08565b908152602001604051809103902060009054906101000a900473ffffffffffffffffffffffffffffffffffffffff1673ffffffffffffffffffffffffffffffffffffffff166323b872dd600c6000610ca16121bd565b73ffffffffffffffffffffffffffffffffffffffff1673ffffffffffffffffffffffffffffffffffffffff16815260200190815260200160002060009054906101000a900473ffffffffffffffffffffffffffffffffffffffff16600a8b8b604051610d0e929190613a08565b908152602001604051809103902060009054906101000a900473ffffffffffffffffffffffffffffffffffffffff16896040518463ffffffff1660e01b8152600401610d5c93929190613a21565b602060405180830381600087803b158015610d7657600080fd5b505af1158015610d8a573d6000803e3d6000fd5b505050506040513d601f19601f82011682018060405250810190610dae9190613a84565b5080600a610dbc9190613c70565b86610dc79190613cea565b955060068888604051610ddb929190613a08565b908152602001604051809103902060009054906101000a900473ffffffffffffffffffffffffffffffffffffffff1673ffffffffffffffffffffffffffffffffffffffff1663a9059cbb610e2d6121bd565b886040518363ffffffff1660e01b8152600401610e4b929190613ab1565b602060405180830381600087803b158015610e6557600080fd5b505af1158015610e79573d6000803e3d6000fd5b505050506040513d601f19601f82011682018060405250810190610e9d9190613a84565b50611171565b60098a8a604051610eb5929190613a08565b908152602001604051809103902060009054906101000a900460ff1660098989604051610ee3929190613a08565b908152602001604051809103902060009054906101000a900460ff16610f099190613b09565b905060058a8a604051610f1d929190613a08565b908152602001604051809103902060009054906101000a900473ffffffffffffffffffffffffffffffffffffffff1673ffffffffffffffffffffffffffffffffffffffff166323b872dd600c6000610f736121bd565b73ffffffffffffffffffffffffffffffffffffffff1673ffffffffffffffffffffffffffffffffffffffff16815260200190815260200160002060009054906101000a900473ffffffffffffffffffffffffffffffffffffffff16600a8b8b604051610fe0929190613a08565b908152602001604051809103902060009054906101000a900473ffffffffffffffffffffffffffffffffffffffff16896040518463ffffffff1660e01b815260040161102e93929190613a21565b602060405180830381600087803b15801561104857600080fd5b505af115801561105c573d6000803e3d6000fd5b505050506040513d601f19601f820116820180604052508101906110809190613a84565b5080600a61108e9190613c70565b866110999190613d1b565b9550600688886040516110ad929190613a08565b908152602001604051809103902060009054906101000a900473ffffffffffffffffffffffffffffffffffffffff1673ffffffffffffffffffffffffffffffffffffffff1663a9059cbb6110ff6121bd565b886040518363ffffffff1660e01b815260040161111d929190613ab1565b602060405180830381600087803b15801561113757600080fd5b505af115801561114b573d6000803e3d6000fd5b505050506040513d601f19601f8201168201806040525081019061116f9190613a84565b505b4261117a6121bd565b73ffffffffffffffffffffffffffffffffffffffff16600c600061119c6121bd565b73ffffffffffffffffffffffffffffffffffffffff1673ffffffffffffffffffffffffffffffffffffffff16815260200190815260200160002060009054906101000a900473ffffffffffffffffffffffffffffffffffffffff1673ffffffffffffffffffffffffffffffffffffffff167f4b5796113f074ebf8f11d5bcdeb6349b2fbe47abed78419cdcdbbc15c6fcf8458960405161123c919061325a565b60405180910390a4600194505050505b5095945050505050565b7f021c73170b6ee67d18900edd1d18b4647810aae53143ba4e3a3d55e62b23be8981565b600060016000838152602001908152602001600020600101549050919050565b6000600460008373ffffffffffffffffffffffffffffffffffffffff1673ffffffffffffffffffffffffffffffffffffffff168152602001908152602001600020549050919050565b6112ec8261127a565b6112f58161215f565b6112ff8383612200565b505050565b7fb9c595dd714e8ed8568b5dd4315ea8b709bbd3d27ae09ef7290c5ae7b976fb9381565b6113306121bd565b73ffffffffffffffffffffffffffffffffffffffff168173ffffffffffffffffffffffffffffffffffffffff161461139d576040517f08c379a000000000000000000000000000000000000000000000000000000000815260040161139490613de7565b60405180910390fd5b6113a782826122e0565b5050565b600860009054906101000a900473ffffffffffffffffffffffffffffffffffffffff1681565b7f65d7a28e3265b37a6474929f336521b332c1681b933f6cb9f3376673440d862a6113fb8161215f565b6114036123c2565b50565b60006060611415858585611c99565b611454576040517f08c379a000000000000000000000000000000000000000000000000000000000815260040161144b90613e79565b60405180910390fd5b600185608001356114659190613e99565b6004600087600001602081019061147c919061321e565b73ffffffffffffffffffffffffffffffffffffffff1673ffffffffffffffffffffffffffffffffffffffff168152602001908152602001600020819055506000808660200160208101906114d0919061321e565b73ffffffffffffffffffffffffffffffffffffffff1687606001358860400135898060a001906115009190613efe565b8b6000016020810190611513919061321e565b60405160200161152593929190613fd9565b6040516020818303038152906040526040516115419190614034565b600060405180830381858888f193505050503d806000811461157f576040519150601f19603f3d011682016040523d82523d6000602084013e611584565b606091505b5091509150603f876060013561159a9190613cea565b5a116115a257fe5b8181935093505050935093915050565b6005818051602081018201805184825260208301602085012081835280955050505050506000915054906101000a900473ffffffffffffffffffffffffffffffffffffffff1681565b7f8619cecd8b9e095ab43867f5b69d492180450fe862e6b50bfbfb24b75dd84c8a81565b60007f000000000000000000000000000000000000000000000000000000000000000073ffffffffffffffffffffffffffffffffffffffff168273ffffffffffffffffffffffffffffffffffffffff16149050919050565b60008060009054906101000a900460ff16905090565b7f8619cecd8b9e095ab43867f5b69d492180450fe862e6b50bfbfb24b75dd84c8a6116b78161215f565b82600c60008473ffffffffffffffffffffffffffffffffffffffff1673ffffffffffffffffffffffffffffffffffffffff16815260200190815260200160002060006101000a81548173ffffffffffffffffffffffffffffffffffffffff021916908373ffffffffffffffffffffffffffffffffffffffff160217905550428273ffffffffffffffffffffffffffffffffffffffff168473ffffffffffffffffffffffffffffffffffffffff167f65f1045ec5b129fc3fd938de1cc89be7b42e90c4b5a1a34570c2f880aa221e7761178d6121bd565b60405161179a9190613888565b60405180910390a4505050565b7f65d7a28e3265b37a6474929f336521b332c1681b933f6cb9f3376673440d862a6117d18161215f565b6117d9612424565b50565b60006060806000806000606061181c60027f000000000000000000000000000000000000000000000000000000000000000061248690919063ffffffff16565b61185060037f000000000000000000000000000000000000000000000000000000000000000061248690919063ffffffff16565b46306000801b600067ffffffffffffffff811115611871576118706134f3565b5b60405190808252806020026020018201604052801561189f5781602001602082028036833780820191505090505b507f0f00000000000000000000000000000000000000000000000000000000000000959493929190965096509650965096509650965090919293949596565b600c6020528060005260406000206000915054906101000a900473ffffffffffffffffffffffffffffffffffffffff1681565b60006001600084815260200190815260200160002060000160008373ffffffffffffffffffffffffffffffffffffffff1673ffffffffffffffffffffffffffffffffffffffff16815260200190815260200160002060009054906101000a900460ff16905092915050565b7f8619cecd8b9e095ab43867f5b69d492180450fe862e6b50bfbfb24b75dd84c8a6119a68161215f565b60006119b06121bd565b905082600c60008373ffffffffffffffffffffffffffffffffffffffff1673ffffffffffffffffffffffffffffffffffffffff16815260200190815260200160002060006101000a81548173ffffffffffffffffffffffffffffffffffffffff021916908373ffffffffffffffffffffffffffffffffffffffff160217905550428173ffffffffffffffffffffffffffffffffffffffff168473ffffffffffffffffffffffffffffffffffffffff167f65f1045ec5b129fc3fd938de1cc89be7b42e90c4b5a1a34570c2f880aa221e7784604051611a8e9190613888565b60405180910390a4505050565b600760009054906101000a900473ffffffffffffffffffffffffffffffffffffffff1681565b6000801b81565b7f021c73170b6ee67d18900edd1d18b4647810aae53143ba4e3a3d55e62b23be89611af28161215f565b8360068787604051611b05929190613a08565b908152602001604051809103902060006101000a81548173ffffffffffffffffffffffffffffffffffffffff021916908373ffffffffffffffffffffffffffffffffffffffff16021790555082600a8787604051611b64929190613a08565b908152602001604051809103902060006101000a81548173ffffffffffffffffffffffffffffffffffffffff021916908373ffffffffffffffffffffffffffffffffffffffff160217905550600b868690918060018154018082558091505060019003906000526020600020016000909192909192909192909192509190611bed929190612e0b565b508160098787604051611c01929190613a08565b908152602001604051809103902060006101000a81548160ff021916908360ff160217905550428473ffffffffffffffffffffffffffffffffffffffff163373ffffffffffffffffffffffffffffffffffffffff167f15aacac6e7418aba31c161787297338f4283c9837c51839643f1d204c73cdbc9898988604051611c8993929190614078565b60405180910390a4505050505050565b600080611da284848080601f016020809104026020016040519081016040528093929190818152602001838380828437600081840152601f19601f82011690508083019250505050505050611d947fdd8f4b70b0f4393e889bd39128a30628a78b61816a9eb8199759e7a349657e48886000016020810190611d1b919061321e565b896020016020810190611d2e919061321e565b8a604001358b606001358c608001358d8060a00190611d4d9190613efe565b604051611d5b9291906140aa565b6040518091039020604051602001611d7997969594939291906140c3565b60405160208183030381529060405280519060200120612536565b61255090919063ffffffff16565b9050846080013560046000876000016020810190611dc0919061321e565b73ffffffffffffffffffffffffffffffffffffffff1673ffffffffffffffffffffffffffffffffffffffff16815260200190815260200160002054148015611e455750846000016020810190611e16919061321e565b73ffffffffffffffffffffffffffffffffffffffff168173ffffffffffffffffffffffffffffffffffffffff16145b9150509392505050565b7f021c73170b6ee67d18900edd1d18b4647810aae53143ba4e3a3d55e62b23be89611e798161215f565b8260058686604051611e8c929190613a08565b908152602001604051809103902060006101000a81548173ffffffffffffffffffffffffffffffffffffffff021916908373ffffffffffffffffffffffffffffffffffffffff16021790555082600860006101000a81548173ffffffffffffffffffffffffffffffffffffffff021916908373ffffffffffffffffffffffffffffffffffffffff1602179055508160098686604051611f2c929190613a08565b908152602001604051809103902060006101000a81548160ff021916908360ff160217905550428373ffffffffffffffffffffffffffffffffffffffff163373ffffffffffffffffffffffffffffffffffffffff167fd206cf8f59ca12faa98cfb0809ea97c23a21ea0a619f41e82ed79e064780fec28888604051611fb2929190614132565b60405180910390a45050505050565b611fca8261127a565b611fd38161215f565b611fdd83836122e0565b505050565b600a818051602081018201805184825260208301602085012081835280955050505050506000915054906101000a900473ffffffffffffffffffffffffffffffffffffffff1681565b6006818051602081018201805184825260208301602085012081835280955050505050506000915054906101000a900473ffffffffffffffffffffffffffffffffffffffff1681565b7f65d7a28e3265b37a6474929f336521b332c1681b933f6cb9f3376673440d862a81565b60006020835110156120b4576120ad83612577565b90506120dd565b826120be836120e3565b60000190805190602001906120d4929190612e91565b5060ff60001b90505b92915050565b6000819050919050565b600033905090565b60007f01ffc9a7000000000000000000000000000000000000000000000000000000007bffffffffffffffffffffffffffffffffffffffffffffffffffffffff1916827bffffffffffffffffffffffffffffffffffffffffffffffffffffffff1916149050919050565b6121708161216b6121bd565b6125df565b50565b61217b611677565b156121bb576040517f08c379a00000000000000000000000000000000000000000000000000000000081526004016121b2906141a2565b60405180910390fd5b565b60006121c83361161f565b80156121d957506014600036905010155b156121ed57601436033560601c90506121fc565b6121f56120ed565b90506121fd565b5b90565b61220a8282611911565b6122dc57600180600084815260200190815260200160002060000160008373ffffffffffffffffffffffffffffffffffffffff1673ffffffffffffffffffffffffffffffffffffffff16815260200190815260200160002060006101000a81548160ff0219169083151502179055506122816121bd565b73ffffffffffffffffffffffffffffffffffffffff168173ffffffffffffffffffffffffffffffffffffffff16837f2f8788117e7eff1d82e926ec794901d17c78024a50270940304540a733656f0d60405160405180910390a45b5050565b6122ea8282611911565b156123be5760006001600084815260200190815260200160002060000160008373ffffffffffffffffffffffffffffffffffffffff1673ffffffffffffffffffffffffffffffffffffffff16815260200190815260200160002060006101000a81548160ff0219169083151502179055506123636121bd565b73ffffffffffffffffffffffffffffffffffffffff168173ffffffffffffffffffffffffffffffffffffffff16837ff6391f5c32d9c69d2a47ea670b442974b53935d1edc7fd64eb21e047a839171b60405160405180910390a45b5050565b6123ca612664565b60008060006101000a81548160ff0219169083151502179055507f5db9ee0a495bf2e6ff9c91a7834c1ba4fdd244a5e8aa4e537bd38aeae4b073aa61240d6121bd565b60405161241a9190613888565b60405180910390a1565b61242c612173565b60016000806101000a81548160ff0219169083151502179055507f62e78cea01bee320cd4e420270b5ea74000d11b0c9f74754ebdbfc544b05a25861246f6121bd565b60405161247c9190613888565b60405180910390a1565b606060ff60001b83146124a35761249c836126ad565b9050612530565b8180546124af906141f1565b80601f01602080910402602001604051908101604052809291908181526020018280546124db906141f1565b80156125285780601f106124fd57610100808354040283529160200191612528565b820191906000526020600020905b81548152906001019060200180831161250b57829003601f168201915b505050505090505b92915050565b6000612549612543612721565b836127d8565b9050919050565b600080600061255f8585612819565b9150915061256c8161286b565b819250505092915050565b600080829050601f815111156125c457826040517f305a27a90000000000000000000000000000000000000000000000000000000081526004016125bb9190614223565b60405180910390fd5b8051816125d090614277565b60001c1760001b915050919050565b6125e98282611911565b612660576125f6816129d9565b6126048360001c6020612a06565b6040516020016126159291906143a7565b6040516020818303038152906040526040517f08c379a00000000000000000000000000000000000000000000000000000000081526004016126579190614223565b60405180910390fd5b5050565b61266c611677565b6126ab576040517f08c379a00000000000000000000000000000000000000000000000000000000081526004016126a29061442d565b60405180910390fd5b565b606060006126ba83612c42565b90506000602067ffffffffffffffff8111156126d9576126d86134f3565b5b6040519080825280601f01601f19166020018201604052801561270b5781602001600182028036833780820191505090505b5090508181528360208201528092505050919050565b60007f000000000000000000000000000000000000000000000000000000000000000073ffffffffffffffffffffffffffffffffffffffff163073ffffffffffffffffffffffffffffffffffffffff1614801561279d57507f000000000000000000000000000000000000000000000000000000000000000046145b156127ca577f000000000000000000000000000000000000000000000000000000000000000090506127d5565b6127d2612c92565b90505b90565b60006040517f190100000000000000000000000000000000000000000000000000000000000081528360028201528260228201526042812091505092915050565b60008060418351141561285b5760008060006020860151925060408601519150606086015160001a905061284f87828585612d28565b94509450505050612864565b60006002915091505b9250929050565b6000600481111561287f5761287e61444d565b5b8160048111156128925761289161444d565b5b141561289d576129d6565b600160048111156128b1576128b061444d565b5b8160048111156128c4576128c361444d565b5b1415612905576040517f08c379a00000000000000000000000000000000000000000000000000000000081526004016128fc906144c8565b60405180910390fd5b600260048111156129195761291861444d565b5b81600481111561292c5761292b61444d565b5b141561296d576040517f08c379a000000000000000000000000000000000000000000000000000000000815260040161296490614534565b60405180910390fd5b600360048111156129815761298061444d565b5b8160048111156129945761299361444d565b5b14156129d5576040517f08c379a00000000000000000000000000000000000000000000000000000000081526004016129cc906145c6565b60405180910390fd5b5b50565b60606129ff8273ffffffffffffffffffffffffffffffffffffffff16601460ff16612a06565b9050919050565b606060006002836002612a199190613d1b565b612a239190613e99565b67ffffffffffffffff811115612a3c57612a3b6134f3565b5b6040519080825280601f01601f191660200182016040528015612a6e5781602001600182028036833780820191505090505b5090507f300000000000000000000000000000000000000000000000000000000000000081600081518110612aa657612aa56145e6565b5b60200101907effffffffffffffffffffffffffffffffffffffffffffffffffffffffffffff1916908160001a9053507f780000000000000000000000000000000000000000000000000000000000000081600181518110612b0a57612b096145e6565b5b60200101907effffffffffffffffffffffffffffffffffffffffffffffffffffffffffffff1916908160001a90535060006001846002612b4a9190613d1b565b612b549190613e99565b90505b6001811115612bf4577f3031323334353637383961626364656600000000000000000000000000000000600f861660108110612b9657612b956145e6565b5b1a60f81b828281518110612bad57612bac6145e6565b5b60200101907effffffffffffffffffffffffffffffffffffffffffffffffffffffffffffff1916908160001a905350600485901c945080612bed90614615565b9050612b57565b5060008414612c38576040517f08c379a0000000000000000000000000000000000000000000000000000000008152600401612c2f9061468b565b60405180910390fd5b8091505092915050565b60008060ff8360001c169050601f811115612c89576040517fb3512b0c00000000000000000000000000000000000000000000000000000000815260040160405180910390fd5b80915050919050565b60007f8b73c3c69bb8fe3d512ecc4cf759cc79239f7b179b0ffacaa9a75d522b39400f7f00000000000000000000000000000000000000000000000000000000000000007f00000000000000000000000000000000000000000000000000000000000000004630604051602001612d0d9594939291906146ab565b60405160208183030381529060405280519060200120905090565b6000807f7fffffffffffffffffffffffffffffff5d576e7357a4501ddfe92f46681b20a08360001c1115612d63576000600391509150612e02565b600060018787878760405160008152602001604052604051612d88949392919061470d565b6020604051602081039080840390855afa158015612daa573d6000803e3d6000fd5b505050602060405103519050600073ffffffffffffffffffffffffffffffffffffffff168173ffffffffffffffffffffffffffffffffffffffff161415612df957600060019250925050612e02565b80600092509250505b94509492505050565b828054612e17906141f1565b90600052602060002090601f016020900481019282612e395760008555612e80565b82601f10612e5257803560ff1916838001178555612e80565b82800160010185558215612e80579182015b82811115612e7f578235825591602001919060010190612e64565b5b509050612e8d9190612f17565b5090565b828054612e9d906141f1565b90600052602060002090601f016020900481019282612ebf5760008555612f06565b82601f10612ed857805160ff1916838001178555612f06565b82800160010185558215612f06579182015b82811115612f05578251825591602001919060010190612eea565b5b509050612f139190612f17565b5090565b5b80821115612f30576000816000905550600101612f18565b5090565b6000604051905090565b600080fd5b600080fd5b60007fffffffff0000000000000000000000000000000000000000000000000000000082169050919050565b612f7d81612f48565b8114612f8857600080fd5b50565b600081359050612f9a81612f74565b92915050565b600060208284031215612fb657612fb5612f3e565b5b6000612fc484828501612f8b565b91505092915050565b60008115159050919050565b612fe281612fcd565b82525050565b6000602082019050612ffd6000830184612fd9565b92915050565b600080fd5b600080fd5b600080fd5b60008083601f84011261302857613027613003565b5b8235905067ffffffffffffffff81111561304557613044613008565b5b6020830191508360018202830111156130615761306061300d565b5b9250929050565b6000819050919050565b61307b81613068565b811461308657600080fd5b50565b60008135905061309881613072565b92915050565b6000806000806000606086880312156130ba576130b9612f3e565b5b600086013567ffffffffffffffff8111156130d8576130d7612f43565b5b6130e488828901613012565b9550955050602086013567ffffffffffffffff81111561310757613106612f43565b5b61311388828901613012565b9350935050604061312688828901613089565b9150509295509295909350565b6000819050919050565b61314681613133565b82525050565b6000602082019050613161600083018461313d565b92915050565b61317081613133565b811461317b57600080fd5b50565b60008135905061318d81613167565b92915050565b6000602082840312156131a9576131a8612f3e565b5b60006131b78482850161317e565b91505092915050565b600073ffffffffffffffffffffffffffffffffffffffff82169050919050565b60006131eb826131c0565b9050919050565b6131fb816131e0565b811461320657600080fd5b50565b600081359050613218816131f2565b92915050565b60006020828403121561323457613233612f3e565b5b600061324284828501613209565b91505092915050565b61325481613068565b82525050565b600060208201905061326f600083018461324b565b92915050565b6000806040838503121561328c5761328b612f3e565b5b600061329a8582860161317e565b92505060206132ab85828601613209565b9150509250929050565b6000819050919050565b60006132da6132d56132d0846131c0565b6132b5565b6131c0565b9050919050565b60006132ec826132bf565b9050919050565b60006132fe826132e1565b9050919050565b61330e816132f3565b82525050565b60006020820190506133296000830184613305565b92915050565b600080fd5b600060c0828403121561334a5761334961332f565b5b81905092915050565b60008083601f84011261336957613368613003565b5b8235905067ffffffffffffffff81111561338657613385613008565b5b6020830191508360018202830111156133a2576133a161300d565b5b9250929050565b6000806000604084860312156133c2576133c1612f3e565b5b600084013567ffffffffffffffff8111156133e0576133df612f43565b5b6133ec86828701613334565b935050602084013567ffffffffffffffff81111561340d5761340c612f43565b5b61341986828701613353565b92509250509250925092565b600081519050919050565b600082825260208201905092915050565b60005b8381101561345f578082015181840152602081019050613444565b8381111561346e576000848401525b50505050565b6000601f19601f8301169050919050565b600061349082613425565b61349a8185613430565b93506134aa818560208601613441565b6134b381613474565b840191505092915050565b60006040820190506134d36000830185612fd9565b81810360208301526134e58184613485565b90509392505050565b600080fd5b7f4e487b7100000000000000000000000000000000000000000000000000000000600052604160045260246000fd5b61352b82613474565b810181811067ffffffffffffffff8211171561354a576135496134f3565b5b80604052505050565b600061355d612f34565b90506135698282613522565b919050565b600067ffffffffffffffff821115613589576135886134f3565b5b61359282613474565b9050602081019050919050565b82818337600083830152505050565b60006135c16135bc8461356e565b613553565b9050828152602081018484840111156135dd576135dc6134ee565b5b6135e884828561359f565b509392505050565b600082601f83011261360557613604613003565b5b81356136158482602086016135ae565b91505092915050565b60006020828403121561363457613633612f3e565b5b600082013567ffffffffffffffff81111561365257613651612f43565b5b61365e848285016135f0565b91505092915050565b6000806040838503121561367e5761367d612f3e565b5b600061368c85828601613209565b925050602061369d85828601613209565b9150509250929050565b60007fff0000000000000000000000000000000000000000000000000000000000000082169050919050565b6136dc816136a7565b82525050565b600081519050919050565b600082825260208201905092915050565b6000613709826136e2565b61371381856136ed565b9350613723818560208601613441565b61372c81613474565b840191505092915050565b613740816131e0565b82525050565b600081519050919050565b600082825260208201905092915050565b6000819050602082019050919050565b61377b81613068565b82525050565b600061378d8383613772565b60208301905092915050565b6000602082019050919050565b60006137b182613746565b6137bb8185613751565b93506137c683613762565b8060005b838110156137f75781516137de8882613781565b97506137e983613799565b9250506001810190506137ca565b5085935050505092915050565b600060e082019050613819600083018a6136d3565b818103602083015261382b81896136fe565b9050818103604083015261383f81886136fe565b905061384e606083018761324b565b61385b6080830186613737565b61386860a083018561313d565b81810360c083015261387a81846137a6565b905098975050505050505050565b600060208201905061389d6000830184613737565b92915050565b600060ff82169050919050565b6138b9816138a3565b81146138c457600080fd5b50565b6000813590506138d6816138b0565b92915050565b6000806000806000608086880312156138f8576138f7612f3e565b5b600086013567ffffffffffffffff81111561391657613915612f43565b5b61392288828901613012565b9550955050602061393588828901613209565b935050604061394688828901613209565b9250506060613957888289016138c7565b9150509295509295909350565b6000806000806060858703121561397e5761397d612f3e565b5b600085013567ffffffffffffffff81111561399c5761399b612f43565b5b6139a887828801613012565b945094505060206139bb87828801613209565b92505060406139cc878288016138c7565b91505092959194509250565b600081905092915050565b60006139ef83856139d8565b93506139fc83858461359f565b82840190509392505050565b6000613a158284866139e3565b91508190509392505050565b6000606082019050613a366000830186613737565b613a436020830185613737565b613a50604083018461324b565b949350505050565b613a6181612fcd565b8114613a6c57600080fd5b50565b600081519050613a7e81613a58565b92915050565b600060208284031215613a9a57613a99612f3e565b5b6000613aa884828501613a6f565b91505092915050565b6000604082019050613ac66000830185613737565b613ad3602083018461324b565b9392505050565b7f4e487b7100000000000000000000000000000000000000000000000000000000600052601160045260246000fd5b6000613b14826138a3565b9150613b1f836138a3565b925082821015613b3257613b31613ada565b5b828203905092915050565b60008160011c9050919050565b6000808291508390505b6001851115613b9457808604811115613b7057613b6f613ada565b5b6001851615613b7f5780820291505b8081029050613b8d85613b3d565b9450613b54565b94509492505050565b600082613bad5760019050613c69565b81613bbb5760009050613c69565b8160018114613bd15760028114613bdb57613c0a565b6001915050613c69565b60ff841115613bed57613bec613ada565b5b8360020a915084821115613c0457613c03613ada565b5b50613c69565b5060208310610133831016604e8410600b8410161715613c3f5782820a905083811115613c3a57613c39613ada565b5b613c69565b613c4c8484846001613b4a565b92509050818404811115613c6357613c62613ada565b5b81810290505b9392505050565b6000613c7b82613068565b9150613c86836138a3565b9250613cb37fffffffffffffffffffffffffffffffffffffffffffffffffffffffffffffffff8484613b9d565b905092915050565b7f4e487b7100000000000000000000000000000000000000000000000000000000600052601260045260246000fd5b6000613cf582613068565b9150613d0083613068565b925082613d1057613d0f613cbb565b5b828204905092915050565b6000613d2682613068565b9150613d3183613068565b9250817fffffffffffffffffffffffffffffffffffffffffffffffffffffffffffffffff0483118215151615613d6a57613d69613ada565b5b828202905092915050565b7f416363657373436f6e74726f6c3a2063616e206f6e6c792072656e6f756e636560008201527f20726f6c657320666f722073656c660000000000000000000000000000000000602082015250565b6000613dd1602f836136ed565b9150613ddc82613d75565b604082019050919050565b60006020820190508181036000830152613e0081613dc4565b9050919050565b7f4d696e696d616c466f727761726465723a207369676e617475726520646f657360008201527f206e6f74206d6174636820726571756573740000000000000000000000000000602082015250565b6000613e636032836136ed565b9150613e6e82613e07565b604082019050919050565b60006020820190508181036000830152613e9281613e56565b9050919050565b6000613ea482613068565b9150613eaf83613068565b9250827fffffffffffffffffffffffffffffffffffffffffffffffffffffffffffffffff03821115613ee457613ee3613ada565b5b828201905092915050565b600080fd5b600080fd5b600080fd5b60008083356001602003843603038112613f1b57613f1a613eef565b5b80840192508235915067ffffffffffffffff821115613f3d57613f3c613ef4565b5b602083019250600182023603831315613f5957613f58613ef9565b5b509250929050565b600081905092915050565b6000613f788385613f61565b9350613f8583858461359f565b82840190509392505050565b60008160601b9050919050565b6000613fa982613f91565b9050919050565b6000613fbb82613f9e565b9050919050565b613fd3613fce826131e0565b613fb0565b82525050565b6000613fe6828587613f6c565b9150613ff28284613fc2565b601482019150819050949350505050565b600061400e82613425565b6140188185613f61565b9350614028818560208601613441565b80840191505092915050565b60006140408284614003565b915081905092915050565b600061405783856136ed565b935061406483858461359f565b61406d83613474565b840190509392505050565b6000604082019050818103600083015261409381858761404b565b90506140a26020830184613737565b949350505050565b60006140b7828486613f6c565b91508190509392505050565b600060e0820190506140d8600083018a61313d565b6140e56020830189613737565b6140f26040830188613737565b6140ff606083018761324b565b61410c608083018661324b565b61411960a083018561324b565b61412660c083018461313d565b98975050505050505050565b6000602082019050818103600083015261414d81848661404b565b90509392505050565b7f5061757361626c653a2070617573656400000000000000000000000000000000600082015250565b600061418c6010836136ed565b915061419782614156565b602082019050919050565b600060208201905081810360008301526141bb8161417f565b9050919050565b7f4e487b7100000000000000000000000000000000000000000000000000000000600052602260045260246000fd5b6000600282049050600182168061420957607f821691505b6020821081141561421d5761421c6141c2565b5b50919050565b6000602082019050818103600083015261423d81846136fe565b905092915050565b6000819050602082019050919050565b60006142618251613133565b80915050919050565b600082821b905092915050565b600061428282613425565b8261428c84614245565b905061429781614255565b925060208210156142d7576142d27fffffffffffffffffffffffffffffffffffffffffffffffffffffffffffffffff8360200360080261426a565b831692505b5050919050565b7f416363657373436f6e74726f6c3a206163636f756e7420000000000000000000600082015250565b60006143146017836139d8565b915061431f826142de565b601782019050919050565b6000614335826136e2565b61433f81856139d8565b935061434f818560208601613441565b80840191505092915050565b7f206973206d697373696e6720726f6c6520000000000000000000000000000000600082015250565b60006143916011836139d8565b915061439c8261435b565b601182019050919050565b60006143b282614307565b91506143be828561432a565b91506143c982614384565b91506143d5828461432a565b91508190509392505050565b7f5061757361626c653a206e6f7420706175736564000000000000000000000000600082015250565b60006144176014836136ed565b9150614422826143e1565b602082019050919050565b600060208201905081810360008301526144468161440a565b9050919050565b7f4e487b7100000000000000000000000000000000000000000000000000000000600052602160045260246000fd5b7f45434453413a20696e76616c6964207369676e61747572650000000000000000600082015250565b60006144b26018836136ed565b91506144bd8261447c565b602082019050919050565b600060208201905081810360008301526144e1816144a5565b9050919050565b7f45434453413a20696e76616c6964207369676e6174757265206c656e67746800600082015250565b600061451e601f836136ed565b9150614529826144e8565b602082019050919050565b6000602082019050818103600083015261454d81614511565b9050919050565b7f45434453413a20696e76616c6964207369676e6174757265202773272076616c60008201527f7565000000000000000000000000000000000000000000000000000000000000602082015250565b60006145b06022836136ed565b91506145bb82614554565b604082019050919050565b600060208201905081810360008301526145df816145a3565b9050919050565b7f4e487b7100000000000000000000000000000000000000000000000000000000600052603260045260246000fd5b600061462082613068565b9150600082141561463457614633613ada565b5b600182039050919050565b7f537472696e67733a20686578206c656e67746820696e73756666696369656e74600082015250565b60006146756020836136ed565b91506146808261463f565b602082019050919050565b600060208201905081810360008301526146a481614668565b9050919050565b600060a0820190506146c0600083018861313d565b6146cd602083018761313d565b6146da604083018661313d565b6146e7606083018561324b565b6146f46080830184613737565b9695505050505050565b614707816138a3565b82525050565b6000608082019050614722600083018761313d565b61472f60208301866146fe565b61473c604083018561313d565b614749606083018461313d565b9594505050505056fea264697066735822122080f1fd4e394afccbb92c12416b3c10e4f78a7e1e1fc9d2985741e884f5f123e764736f6c63430008090033",
  "immutableReferences": {
    "106": [
      {
        "length": 32,
        "start": 5667
      }
    ],
    "1397": [
      {
        "length": 32,
        "start": 10148
      }
    ],
    "1399": [
      {
        "length": 32,
        "start": 10107
      }
    ],
    "1401": [
      {
        "length": 32,
        "start": 10021
      }
    ],
    "1403": [
      {
        "length": 32,
        "start": 11447
      }
    ],
    "1405": [
      {
        "length": 32,
        "start": 11480
      }
    ],
    "1408": [
      {
        "length": 32,
        "start": 6127
      }
    ],
    "1411": [
      {
        "length": 32,
        "start": 6179
      }
    ]
  },
  "source": "// SPDX-License-Identifier: MIT\r\npragma solidity ^0.8.9;\r\n\r\nimport \"@openzeppelin/contracts/token/ERC20/IERC20.sol\";\r\nimport \"@openzeppelin/contracts/access/IAccessControl.sol\";\r\nimport \"@openzeppelin/contracts/metatx/ERC2771Context.sol\";\r\nimport \"@openzeppelin/contracts/metatx/MinimalForwarder.sol\";\r\nimport \"@openzeppelin/contracts/utils/Strings.sol\";\r\nimport \"@openzeppelin/contracts/utils/introspection/ERC165.sol\";\r\n\r\nabstract contract Pausable is ERC2771Context {\r\n    /**\r\n     * @dev Emitted when the pause is triggered by `account`.\r\n     */\r\n    event Paused(address account);\r\n\r\n    /**\r\n     * @dev Emitted when the pause is lifted by `account`.\r\n     */\r\n    event Unpaused(address account);\r\n\r\n    bool private _paused;\r\n\r\n    /**\r\n     * @dev Initializes the contract in unpaused state.\r\n     */\r\n    constructor() {\r\n        _paused = false;\r\n    }\r\n\r\n    /**\r\n     * @dev Modifier to make a function callable only when the contract is not paused.\r\n     *\r\n     * Requirements:\r\n     *\r\n     * - The contract must not be paused.\r\n     */\r\n    modifier whenNotPaused() {\r\n        _requireNotPaused();\r\n        _;\r\n    }\r\n\r\n    /**\r\n     * @dev Modifier to make a function callable only when the contract is paused.\r\n     *\r\n     * Requirements:\r\n     *\r\n     * - The contract must be paused.\r\n     */\r\n    modifier whenPaused() {\r\n        _requirePaused();\r\n        _;\r\n    }\r\n\r\n    /**\r\n     * @dev Returns true if the contract is paused, and false otherwise.\r\n     */\r\n    function paused() public view virtual returns (bool) {\r\n        return _paused;\r\n    }\r\n\r\n    /**\r\n     * @dev Throws if the contract is paused.\r\n     */\r\n    function _requireNotPaused() internal view virtual {\r\n        require(!paused(), \"Pausable: paused\");\r\n    }\r\n\r\n    /**\r\n     * @dev Throws if the contract is not paused.\r\n     */\r\n    function _requirePaused() internal view virtual {\r\n        require(paused(), \"Pausable: not paused\");\r\n    }\r\n\r\n    /**\r\n     * @dev Triggers stopped state.\r\n     *\r\n     * Requirements:\r\n     *\r\n     * - The contract must not be paused.\r\n     */\r\n    function _pause() internal virtual whenNotPaused {\r\n        _paused = true;\r\n        emit Paused(_msgSender());\r\n    }\r\n\r\n    /**\r\n     * @dev Returns to normal state.\r\n     *\r\n     * Requirements:\r\n     *\r\n     * - The contract must be paused.\r\n     */\r\n    function _unpause() internal virtual whenPaused {\r\n        _paused = false;\r\n        emit Unpaused(_msgSender());\r\n    }\r\n}\r\n\r\n/**\r\n * @dev Contract module that allows children to implement role-based access\r\n * control mechanisms. This is a lightweight version that doesn't allow enumerating role\r\n * members except through off-chain means by accessing the contract event logs. Some\r\n * applications may benefit from on-chain enumerability, for those cases see\r\n * {AccessControlEnumerable}.\r\n *\r\n * Roles are referred to by their `bytes32` identifier. These should be exposed\r\n * in the external API and be unique. The best way to achieve this is by\r\n * using `public constant` hash digests:\r\n *\r\n * ```solidity\r\n * bytes32 public constant MY_ROLE = keccak256(\"MY_ROLE\");\r\n * ```\r\n *\r\n * Roles can be used to represent a set of permissions. To restrict access to a\r\n * function call, use {hasRole}:\r\n *\r\n * ```solidity\r\n * function foo() public {\r\n *     require(hasRole(MY_ROLE, msg.sender));\r\n *     ...\r\n * }\r\n * ```\r\n *\r\n * Roles can be granted and revoked dynamically via the {grantRole} and\r\n * {revokeRole} functions. Each role has an associated admin role, and only\r\n * accounts that have a role's admin role can call {grantRole} and {revokeRole}.\r\n *\r\n * By default, the admin role for all roles is `DEFAULT_ADMIN_ROLE`, which means\r\n * that only accounts with this role will be able to grant or revoke other\r\n * roles. More complex role relationships can be created by using\r\n * {_setRoleAdmin}.\r\n *\r\n * WARNING: The `DEFAULT_ADMIN_ROLE` is also its own admin: it has permission to\r\n * grant and revoke this role. Extra precautions should be taken to secure\r\n * accounts that have been granted it. We recommend using {AccessControlDefaultAdminRules}\r\n * to enforce additional security measures for this role.\r\n */\r\nabstract contract AccessControl is ERC2771Context, IAccessControl, ERC165 {\r\n    struct RoleData {\r\n        mapping(address => bool) members;\r\n        bytes32 adminRole;\r\n    }\r\n\r\n    mapping(bytes32 => RoleData) private _roles;\r\n\r\n    bytes32 public constant DEFAULT_ADMIN_ROLE = 0x00;\r\n\r\n    /**\r\n     * @dev Modifier that checks that an account has a specific role. Reverts\r\n     * with a standardized message including the required role.\r\n     *\r\n     * The format of the revert reason is given by the following regular expression:\r\n     *\r\n     *  /^AccessControl: account (0x[0-9a-f]{40}) is missing role (0x[0-9a-f]{64})$/\r\n     *\r\n     * _Available since v4.1._\r\n     */\r\n    modifier onlyRole(bytes32 role) {\r\n        _checkRole(role);\r\n        _;\r\n    }\r\n\r\n    /**\r\n     * @dev See {IERC165-supportsInterface}.\r\n     */\r\n    function supportsInterface(bytes4 interfaceId) public view virtual override returns (bool) {\r\n        return interfaceId == type(IAccessControl).interfaceId || super.supportsInterface(interfaceId);\r\n    }\r\n\r\n    /**\r\n     * @dev Returns `true` if `account` has been granted `role`.\r\n     */\r\n    function hasRole(bytes32 role, address account) public view virtual override returns (bool) {\r\n        return _roles[role].members[account];\r\n    }\r\n\r\n    /**\r\n     * @dev Revert with a standard message if `_msgSender()` is missing `role`.\r\n     * Overriding this function changes the behavior of the {onlyRole} modifier.\r\n     *\r\n     * Format of the revert message is described in {_checkRole}.\r\n     *\r\n     * _Available since v4.6._\r\n     */\r\n    function _checkRole(bytes32 role) internal view virtual {\r\n        _checkRole(role, _msgSender());\r\n    }\r\n\r\n    /**\r\n     * @dev Revert with a standard message if `account` is missing `role`.\r\n     *\r\n     * The format of the revert reason is given by the following regular expression:\r\n     *\r\n     *  /^AccessControl: account (0x[0-9a-f]{40}) is missing role (0x[0-9a-f]{64})$/\r\n     */\r\n    function _checkRole(bytes32 role, address account) internal view virtual {\r\n        if (!hasRole(role, account)) {\r\n            revert(\r\n                string(\r\n                    abi.encodePacked(\r\n                        \"AccessControl: account \",\r\n                        Strings.toHexString(account),\r\n                        \" is missing role \",\r\n                        Strings.toHexString(uint256(role), 32)\r\n                    )\r\n                )\r\n            );\r\n        }\r\n    }\r\n\r\n    /**\r\n     * @dev Returns the admin role that controls `role`. See {grantRole} and\r\n     * {revokeRole}.\r\n     *\r\n     * To change a role's admin, use {_setRoleAdmin}.\r\n     */\r\n    function getRoleAdmin(bytes32 role) public view virtual override returns (bytes32) {\r\n        return _roles[role].adminRole;\r\n    }\r\n\r\n    /**\r\n     * @dev Grants `role` to `account`.\r\n     *\r\n     * If `account` had not been already granted `role`, emits a {RoleGranted}\r\n     * event.\r\n     *\r\n     * Requirements:\r\n     *\r\n     * - the caller must have ``role``'s admin role.\r\n     *\r\n     * May emit a {RoleGranted} event.\r\n     */\r\n    function grantRole(bytes32 role, address account) public virtual override onlyRole(getRoleAdmin(role)) {\r\n        _grantRole(role, account);\r\n    }\r\n\r\n    /**\r\n     * @dev Revokes `role` from `account`.\r\n     *\r\n     * If `account` had been granted `role`, emits a {RoleRevoked} event.\r\n     *\r\n     * Requirements:\r\n     *\r\n     * - the caller must have ``role``'s admin role.\r\n     *\r\n     * May emit a {RoleRevoked} event.\r\n     */\r\n    function revokeRole(bytes32 role, address account) public virtual override onlyRole(getRoleAdmin(role)) {\r\n        _revokeRole(role, account);\r\n    }\r\n\r\n    /**\r\n     * @dev Revokes `role` from the calling account.\r\n     *\r\n     * Roles are often managed via {grantRole} and {revokeRole}: this function's\r\n     * purpose is to provide a mechanism for accounts to lose their privileges\r\n     * if they are compromised (such as when a trusted device is misplaced).\r\n     *\r\n     * If the calling account had been revoked `role`, emits a {RoleRevoked}\r\n     * event.\r\n     *\r\n     * Requirements:\r\n     *\r\n     * - the caller must be `account`.\r\n     *\r\n     * May emit a {RoleRevoked} event.\r\n     */\r\n    function renounceRole(bytes32 role, address account) public virtual override {\r\n        require(account == _msgSender(), \"AccessControl: can only renounce roles for self\");\r\n\r\n        _revokeRole(role, account);\r\n    }\r\n\r\n    /**\r\n     * @dev Grants `role` to `account`.\r\n     *\r\n     * If `account` had not been already granted `role`, emits a {RoleGranted}\r\n     * event. Note that unlike {grantRole}, this function doesn't perform any\r\n     * checks on the calling account.\r\n     *\r\n     * May emit a {RoleGranted} event.\r\n     *\r\n     * [WARNING]\r\n     * ====\r\n     * This function should only be called from the constructor when setting\r\n     * up the initial roles for the system.\r\n     *\r\n     * Using this function in any other way is effectively circumventing the admin\r\n     * system imposed by {AccessControl}.\r\n     * ====\r\n     *\r\n     * NOTE: This function is deprecated in favor of {_grantRole}.\r\n     */\r\n    function _setupRole(bytes32 role, address account) internal virtual {\r\n        _grantRole(role, account);\r\n    }\r\n\r\n    /**\r\n     * @dev Sets `adminRole` as ``role``'s admin role.\r\n     *\r\n     * Emits a {RoleAdminChanged} event.\r\n     */\r\n    function _setRoleAdmin(bytes32 role, bytes32 adminRole) internal virtual {\r\n        bytes32 previousAdminRole = getRoleAdmin(role);\r\n        _roles[role].adminRole = adminRole;\r\n        emit RoleAdminChanged(role, previousAdminRole, adminRole);\r\n    }\r\n\r\n    /**\r\n     * @dev Grants `role` to `account`.\r\n     *\r\n     * Internal function without access restriction.\r\n     *\r\n     * May emit a {RoleGranted} event.\r\n     */\r\n    function _grantRole(bytes32 role, address account) internal virtual {\r\n        if (!hasRole(role, account)) {\r\n            _roles[role].members[account] = true;\r\n            emit RoleGranted(role, account, _msgSender());\r\n        }\r\n    }\r\n\r\n    /**\r\n     * @dev Revokes `role` from `account`.\r\n     *\r\n     * Internal function without access restriction.\r\n     *\r\n     * May emit a {RoleRevoked} event.\r\n     */\r\n    function _revokeRole(bytes32 role, address account) internal virtual {\r\n        if (hasRole(role, account)) {\r\n            _roles[role].members[account] = false;\r\n            emit RoleRevoked(role, account, _msgSender());\r\n        }\r\n    }\r\n}\r\n\r\n\r\n//registry=0x4A53338c6A1D5C5Afd6Af1cF6fb3351CeB0b98c4\r\n//forwarder=0x7292dCdE3915525981014787138A372cBdB8Cd4F\r\n\r\n/// @custom:security-contact soporte@comunyt.com\r\ncontract EXCHANGE is  Pausable, AccessControl, MinimalForwarder {\r\n\r\n    mapping (string => IERC20) public currency; // solo estables\r\n    mapping (string => IERC20) public security; // solo propiedades\r\n    // las anteriore van a cambio de estas dos\r\n    IERC20 public propiedad;\r\n    IERC20 public usdc;\r\n    //////////\r\n\r\n    mapping (string => uint8) decimals;\r\n\r\n    mapping (string => address) public crowdfounding;// el addres a la que est ligado el security para recibir el dinero\r\n    string[] securitiesListed;\r\n    mapping (address => address) public link; // los address que van a estar linkeados cuando le damos a la whitelist\r\n\r\n    bytes32 public constant PAUSER_ROLE = keccak256(\"PAUSER_ROLE\");\r\n    bytes32 public constant WHITELISTER_ROLE = keccak256(\"WHITELISTER_ROLE\");\r\n    bytes32 public constant PROJECTCREATOR_ROLE = keccak256(\"PROJECTCREATOR_ROLE\");\r\n    bytes32 public constant EXCHANGER_ROLE = keccak256(\"EXCHANGER_ROLE\");\r\n\r\n\r\n    event ProjectAdded(address indexed whoAdded, address indexed security, uint256 indexed timestamp, string curName, address funds);\r\n    event CurrencyAdded(address indexed whoAdded, address indexed currency, uint256 indexed timestamp, string curName);\r\n    event Trade(address indexed curSender, address indexed secReceiver, uint256 indexed timestamp, uint256 quantity);\r\n    event whiteListed(address indexed curAddr, address indexed secAddr, uint256 indexed timestamp, address whoAdded);\r\n\r\n    constructor(MinimalForwarder forwarder) ERC2771Context(address(forwarder)) payable{\r\n        _grantRole(DEFAULT_ADMIN_ROLE, msg.sender);\r\n        _grantRole(PAUSER_ROLE, msg.sender);\r\n        _grantRole(WHITELISTER_ROLE, msg.sender);\r\n        _grantRole(PROJECTCREATOR_ROLE, msg.sender);\r\n    }\r\n\r\n    function pause() public onlyRole(PAUSER_ROLE) {\r\n        _pause();\r\n    }\r\n\r\n    function unpause() public onlyRole(PAUSER_ROLE) {\r\n        _unpause();\r\n    }\r\n\r\n    function setSecurity(string calldata _name, address _propiedad, address _funds, uint8 _decimals) external onlyRole(PROJECTCREATOR_ROLE) {\r\n        security[_name] = IERC20(_propiedad);\r\n        crowdfounding[_name] = _funds;\r\n        securitiesListed.push(_name);\r\n        decimals[_name] = _decimals;\r\n        emit ProjectAdded(msg.sender, _propiedad, block.timestamp, _name, _funds);\r\n    }\r\n    function setCurrency(string calldata _name, address _addr, uint8 _decimals) external onlyRole(PROJECTCREATOR_ROLE) {\r\n        currency[_name] = IERC20(_addr);\r\n        usdc=IERC20(_addr);// esto de ac no ira\r\n        decimals[_name] = _decimals;\r\n        emit CurrencyAdded(msg.sender, _addr, block.timestamp, _name);\r\n    }\r\n\r\n    // para hacer un whitelist, la persona aade su _link custodio en donde tiene sus usdc\r\n    //_owner es la semicustodial que firma y manda al relayer.\r\n    // el relayer tiene whitelister_role\r\n    function setLink(address _link) external onlyRole(WHITELISTER_ROLE) {\r\n        address _owner = _msgSender();\r\n        link[_owner]=_link;\r\n        emit whiteListed(_link, _owner, block.timestamp, _owner);\r\n    }\r\n\r\n    // Misma solucion anterior pero en caso de tener que hacerlo manual\r\n    function setLinkManual(address _link, address _linksemi) external onlyRole(WHITELISTER_ROLE) {\r\n        link[_linksemi]=_link;\r\n        emit whiteListed(_link, _linksemi, block.timestamp, _msgSender());\r\n    }    \r\n\r\n    // moneda=usdc, bonus token, securiry=swf, mdf, cantidad=10, 100 etc.\r\n    // la cantidad mandaarlo en valor de la moneda (currency=Z usdc por ejemplo)\r\n    function comprar(string calldata _currency, string calldata _security, uint256 _amount) external onlyRole(EXCHANGER_ROLE) whenNotPaused  returns(bool _success) {\r\n        uint8 decCur = decimals[_currency];\r\n        uint8 decSec = decimals[_security];\r\n        if(decCur == decSec) {\r\n            currency[_currency].transferFrom(link[_msgSender()], crowdfounding[_security], _amount);\r\n            security[_security].transfer(_msgSender(), _amount);\r\n            emit Trade(link[_msgSender()], _msgSender(), block.timestamp, _amount);\r\n            return true;        \r\n        }\r\n        uint8 difDec;\r\n        if(decCur > decSec) {\r\n        //  currency = USDC\r\n        // security = SWF\r\n        // para comprar mando => 1000000 USDC (1 dolar)\r\n        // como => 6 > 2\r\n        // tengo que dar => 1 dolar de swf\r\n        // 1 dolar swf = 100 swf\r\n            difDec = decimals[_currency] - decimals[_security];\r\n            currency[_currency].transferFrom(link[_msgSender()], crowdfounding[_security], _amount);\r\n            _amount = _amount / (10 ** difDec);\r\n            security[_security].transfer(_msgSender(), _amount);      \r\n        } else {\r\n        //  currency = USDC\r\n        // security = SWF\r\n        // para comprar mando => 1000000 USDC (1 dolar)\r\n        // como => 6 < 9\r\n        // tengo que dar => 1 dolar de swf\r\n        // 1 dolar swf = 1000000000 swf\r\n            difDec = decimals[_security] - decimals[_currency];\r\n            currency[_currency].transferFrom(link[_msgSender()], crowdfounding[_security], _amount);\r\n            _amount = _amount * (10 ** difDec);\r\n            security[_security].transfer(_msgSender(), _amount);\r\n        }\r\n        emit Trade(link[_msgSender()], _msgSender(), block.timestamp, _amount);\r\n        return true; \r\n    }\r\n\r\n\r\n\r\n}\r\n",
  "sourcePath": "/home/cryptocris/edIT/tokens/comtok/contracts/EXCHANGE.sol",
  "compiler": {
    "name": "solc",
    "version": "0.8.9+commit.e5eed63a.Emscripten.clang"
  },
  "schemaVersion": "3.4.11",
  "updatedAt": "2023-08-07T04:33:57.912Z",
  "devdoc": {
    "custom:security-contact": "soporte@comunyt.com",
    "kind": "dev",
    "methods": {
      "eip712Domain()": {
        "details": "See {EIP-5267}. _Available since v4.9._"
      },
      "getRoleAdmin(bytes32)": {
        "details": "Returns the admin role that controls `role`. See {grantRole} and {revokeRole}. To change a role's admin, use {_setRoleAdmin}."
      },
      "grantRole(bytes32,address)": {
        "details": "Grants `role` to `account`. If `account` had not been already granted `role`, emits a {RoleGranted} event. Requirements: - the caller must have ``role``'s admin role. May emit a {RoleGranted} event."
      },
      "hasRole(bytes32,address)": {
        "details": "Returns `true` if `account` has been granted `role`."
      },
      "paused()": {
        "details": "Returns true if the contract is paused, and false otherwise."
      },
      "renounceRole(bytes32,address)": {
        "details": "Revokes `role` from the calling account. Roles are often managed via {grantRole} and {revokeRole}: this function's purpose is to provide a mechanism for accounts to lose their privileges if they are compromised (such as when a trusted device is misplaced). If the calling account had been revoked `role`, emits a {RoleRevoked} event. Requirements: - the caller must be `account`. May emit a {RoleRevoked} event."
      },
      "revokeRole(bytes32,address)": {
        "details": "Revokes `role` from `account`. If `account` had been granted `role`, emits a {RoleRevoked} event. Requirements: - the caller must have ``role``'s admin role. May emit a {RoleRevoked} event."
      },
      "supportsInterface(bytes4)": {
        "details": "See {IERC165-supportsInterface}."
      }
    },
    "version": 1
  },
  "userdoc": {
    "kind": "user",
    "methods": {},
    "version": 1
  }
}