{
  "contractName": "EXCHANGE",
  "abi": [
    {
      "inputs": [
        {
          "internalType": "contract MinimalForwarder",
          "name": "forwarder",
          "type": "address"
        }
      ],
      "stateMutability": "payable",
      "type": "constructor"
    },
    {
      "inputs": [],
      "name": "InvalidShortString",
      "type": "error"
    },
    {
      "inputs": [
        {
          "internalType": "string",
          "name": "str",
          "type": "string"
        }
      ],
      "name": "StringTooLong",
      "type": "error"
    },
    {
      "anonymous": false,
      "inputs": [
        {
          "indexed": true,
          "internalType": "address",
          "name": "whoAdded",
          "type": "address"
        },
        {
          "indexed": true,
          "internalType": "address",
          "name": "currency",
          "type": "address"
        },
        {
          "indexed": true,
          "internalType": "uint256",
          "name": "timestamp",
          "type": "uint256"
        },
        {
          "indexed": false,
          "internalType": "string",
          "name": "curName",
          "type": "string"
        }
      ],
      "name": "CurrencyAdded",
      "type": "event"
    },
    {
      "anonymous": false,
      "inputs": [],
      "name": "EIP712DomainChanged",
      "type": "event"
    },
    {
      "anonymous": false,
      "inputs": [
        {
          "indexed": false,
          "internalType": "address",
          "name": "account",
          "type": "address"
        }
      ],
      "name": "Paused",
      "type": "event"
    },
    {
      "anonymous": false,
      "inputs": [
        {
          "indexed": true,
          "internalType": "address",
          "name": "whoAdded",
          "type": "address"
        },
        {
          "indexed": true,
          "internalType": "address",
          "name": "security",
          "type": "address"
        },
        {
          "indexed": true,
          "internalType": "uint256",
          "name": "timestamp",
          "type": "uint256"
        },
        {
          "indexed": false,
          "internalType": "string",
          "name": "curName",
          "type": "string"
        },
        {
          "indexed": false,
          "internalType": "address",
          "name": "funds",
          "type": "address"
        }
      ],
      "name": "ProjectAdded",
      "type": "event"
    },
    {
      "anonymous": false,
      "inputs": [
        {
          "indexed": true,
          "internalType": "bytes32",
          "name": "role",
          "type": "bytes32"
        },
        {
          "indexed": true,
          "internalType": "bytes32",
          "name": "previousAdminRole",
          "type": "bytes32"
        },
        {
          "indexed": true,
          "internalType": "bytes32",
          "name": "newAdminRole",
          "type": "bytes32"
        }
      ],
      "name": "RoleAdminChanged",
      "type": "event"
    },
    {
      "anonymous": false,
      "inputs": [
        {
          "indexed": true,
          "internalType": "bytes32",
          "name": "role",
          "type": "bytes32"
        },
        {
          "indexed": true,
          "internalType": "address",
          "name": "account",
          "type": "address"
        },
        {
          "indexed": true,
          "internalType": "address",
          "name": "sender",
          "type": "address"
        }
      ],
      "name": "RoleGranted",
      "type": "event"
    },
    {
      "anonymous": false,
      "inputs": [
        {
          "indexed": true,
          "internalType": "bytes32",
          "name": "role",
          "type": "bytes32"
        },
        {
          "indexed": true,
          "internalType": "address",
          "name": "account",
          "type": "address"
        },
        {
          "indexed": true,
          "internalType": "address",
          "name": "sender",
          "type": "address"
        }
      ],
      "name": "RoleRevoked",
      "type": "event"
    },
    {
      "anonymous": false,
      "inputs": [
        {
          "indexed": true,
          "internalType": "address",
          "name": "curSender",
          "type": "address"
        },
        {
          "indexed": true,
          "internalType": "address",
          "name": "secReceiver",
          "type": "address"
        },
        {
          "indexed": true,
          "internalType": "uint256",
          "name": "timestamp",
          "type": "uint256"
        },
        {
          "indexed": false,
          "internalType": "uint256",
          "name": "quantity",
          "type": "uint256"
        }
      ],
      "name": "Trade",
      "type": "event"
    },
    {
      "anonymous": false,
      "inputs": [
        {
          "indexed": false,
          "internalType": "address",
          "name": "account",
          "type": "address"
        }
      ],
      "name": "Unpaused",
      "type": "event"
    },
    {
      "anonymous": false,
      "inputs": [
        {
          "indexed": true,
          "internalType": "address",
          "name": "curAddr",
          "type": "address"
        },
        {
          "indexed": true,
          "internalType": "address",
          "name": "secAddr",
          "type": "address"
        },
        {
          "indexed": true,
          "internalType": "uint256",
          "name": "timestamp",
          "type": "uint256"
        },
        {
          "indexed": false,
          "internalType": "address",
          "name": "whoAdded",
          "type": "address"
        }
      ],
      "name": "whiteListed",
      "type": "event"
    },
    {
      "inputs": [],
      "name": "DEFAULT_ADMIN_ROLE",
      "outputs": [
        {
          "internalType": "bytes32",
          "name": "",
          "type": "bytes32"
        }
      ],
      "stateMutability": "view",
      "type": "function"
    },
    {
      "inputs": [],
      "name": "EXCHANGER_ROLE",
      "outputs": [
        {
          "internalType": "bytes32",
          "name": "",
          "type": "bytes32"
        }
      ],
      "stateMutability": "view",
      "type": "function"
    },
    {
      "inputs": [],
      "name": "PAUSER_ROLE",
      "outputs": [
        {
          "internalType": "bytes32",
          "name": "",
          "type": "bytes32"
        }
      ],
      "stateMutability": "view",
      "type": "function"
    },
    {
      "inputs": [],
      "name": "PROJECTCREATOR_ROLE",
      "outputs": [
        {
          "internalType": "bytes32",
          "name": "",
          "type": "bytes32"
        }
      ],
      "stateMutability": "view",
      "type": "function"
    },
    {
      "inputs": [],
      "name": "WHITELISTER_ROLE",
      "outputs": [
        {
          "internalType": "bytes32",
          "name": "",
          "type": "bytes32"
        }
      ],
      "stateMutability": "view",
      "type": "function"
    },
    {
      "inputs": [
        {
          "internalType": "string",
          "name": "",
          "type": "string"
        }
      ],
      "name": "crowdfounding",
      "outputs": [
        {
          "internalType": "address",
          "name": "",
          "type": "address"
        }
      ],
      "stateMutability": "view",
      "type": "function"
    },
    {
      "inputs": [
        {
          "internalType": "string",
          "name": "",
          "type": "string"
        }
      ],
      "name": "currency",
      "outputs": [
        {
          "internalType": "contract IERC20",
          "name": "",
          "type": "address"
        }
      ],
      "stateMutability": "view",
      "type": "function"
    },
    {
      "inputs": [],
      "name": "eip712Domain",
      "outputs": [
        {
          "internalType": "bytes1",
          "name": "fields",
          "type": "bytes1"
        },
        {
          "internalType": "string",
          "name": "name",
          "type": "string"
        },
        {
          "internalType": "string",
          "name": "version",
          "type": "string"
        },
        {
          "internalType": "uint256",
          "name": "chainId",
          "type": "uint256"
        },
        {
          "internalType": "address",
          "name": "verifyingContract",
          "type": "address"
        },
        {
          "internalType": "bytes32",
          "name": "salt",
          "type": "bytes32"
        },
        {
          "internalType": "uint256[]",
          "name": "extensions",
          "type": "uint256[]"
        }
      ],
      "stateMutability": "view",
      "type": "function"
    },
    {
      "inputs": [
        {
          "components": [
            {
              "internalType": "address",
              "name": "from",
              "type": "address"
            },
            {
              "internalType": "address",
              "name": "to",
              "type": "address"
            },
            {
              "internalType": "uint256",
              "name": "value",
              "type": "uint256"
            },
            {
              "internalType": "uint256",
              "name": "gas",
              "type": "uint256"
            },
            {
              "internalType": "uint256",
              "name": "nonce",
              "type": "uint256"
            },
            {
              "internalType": "bytes",
              "name": "data",
              "type": "bytes"
            }
          ],
          "internalType": "struct MinimalForwarder.ForwardRequest",
          "name": "req",
          "type": "tuple"
        },
        {
          "internalType": "bytes",
          "name": "signature",
          "type": "bytes"
        }
      ],
      "name": "execute",
      "outputs": [
        {
          "internalType": "bool",
          "name": "",
          "type": "bool"
        },
        {
          "internalType": "bytes",
          "name": "",
          "type": "bytes"
        }
      ],
      "stateMutability": "payable",
      "type": "function"
    },
    {
      "inputs": [
        {
          "internalType": "address",
          "name": "from",
          "type": "address"
        }
      ],
      "name": "getNonce",
      "outputs": [
        {
          "internalType": "uint256",
          "name": "",
          "type": "uint256"
        }
      ],
      "stateMutability": "view",
      "type": "function"
    },
    {
      "inputs": [
        {
          "internalType": "bytes32",
          "name": "role",
          "type": "bytes32"
        }
      ],
      "name": "getRoleAdmin",
      "outputs": [
        {
          "internalType": "bytes32",
          "name": "",
          "type": "bytes32"
        }
      ],
      "stateMutability": "view",
      "type": "function"
    },
    {
      "inputs": [
        {
          "internalType": "bytes32",
          "name": "role",
          "type": "bytes32"
        },
        {
          "internalType": "address",
          "name": "account",
          "type": "address"
        }
      ],
      "name": "grantRole",
      "outputs": [],
      "stateMutability": "nonpayable",
      "type": "function"
    },
    {
      "inputs": [
        {
          "internalType": "bytes32",
          "name": "role",
          "type": "bytes32"
        },
        {
          "internalType": "address",
          "name": "account",
          "type": "address"
        }
      ],
      "name": "hasRole",
      "outputs": [
        {
          "internalType": "bool",
          "name": "",
          "type": "bool"
        }
      ],
      "stateMutability": "view",
      "type": "function"
    },
    {
      "inputs": [
        {
          "internalType": "address",
          "name": "forwarder",
          "type": "address"
        }
      ],
      "name": "isTrustedForwarder",
      "outputs": [
        {
          "internalType": "bool",
          "name": "",
          "type": "bool"
        }
      ],
      "stateMutability": "view",
      "type": "function"
    },
    {
      "inputs": [
        {
          "internalType": "address",
          "name": "",
          "type": "address"
        }
      ],
      "name": "link",
      "outputs": [
        {
          "internalType": "address",
          "name": "",
          "type": "address"
        }
      ],
      "stateMutability": "view",
      "type": "function"
    },
    {
      "inputs": [],
      "name": "paused",
      "outputs": [
        {
          "internalType": "bool",
          "name": "",
          "type": "bool"
        }
      ],
      "stateMutability": "view",
      "type": "function"
    },
    {
      "inputs": [],
      "name": "propiedad",
      "outputs": [
        {
          "internalType": "contract IERC20",
          "name": "",
          "type": "address"
        }
      ],
      "stateMutability": "view",
      "type": "function"
    },
    {
      "inputs": [
        {
          "internalType": "bytes32",
          "name": "role",
          "type": "bytes32"
        },
        {
          "internalType": "address",
          "name": "account",
          "type": "address"
        }
      ],
      "name": "renounceRole",
      "outputs": [],
      "stateMutability": "nonpayable",
      "type": "function"
    },
    {
      "inputs": [
        {
          "internalType": "bytes32",
          "name": "role",
          "type": "bytes32"
        },
        {
          "internalType": "address",
          "name": "account",
          "type": "address"
        }
      ],
      "name": "revokeRole",
      "outputs": [],
      "stateMutability": "nonpayable",
      "type": "function"
    },
    {
      "inputs": [
        {
          "internalType": "string",
          "name": "",
          "type": "string"
        }
      ],
      "name": "security",
      "outputs": [
        {
          "internalType": "contract IERC20",
          "name": "",
          "type": "address"
        }
      ],
      "stateMutability": "view",
      "type": "function"
    },
    {
      "inputs": [
        {
          "internalType": "bytes4",
          "name": "interfaceId",
          "type": "bytes4"
        }
      ],
      "name": "supportsInterface",
      "outputs": [
        {
          "internalType": "bool",
          "name": "",
          "type": "bool"
        }
      ],
      "stateMutability": "view",
      "type": "function"
    },
    {
      "inputs": [],
      "name": "usdc",
      "outputs": [
        {
          "internalType": "contract IERC20",
          "name": "",
          "type": "address"
        }
      ],
      "stateMutability": "view",
      "type": "function"
    },
    {
      "inputs": [
        {
          "components": [
            {
              "internalType": "address",
              "name": "from",
              "type": "address"
            },
            {
              "internalType": "address",
              "name": "to",
              "type": "address"
            },
            {
              "internalType": "uint256",
              "name": "value",
              "type": "uint256"
            },
            {
              "internalType": "uint256",
              "name": "gas",
              "type": "uint256"
            },
            {
              "internalType": "uint256",
              "name": "nonce",
              "type": "uint256"
            },
            {
              "internalType": "bytes",
              "name": "data",
              "type": "bytes"
            }
          ],
          "internalType": "struct MinimalForwarder.ForwardRequest",
          "name": "req",
          "type": "tuple"
        },
        {
          "internalType": "bytes",
          "name": "signature",
          "type": "bytes"
        }
      ],
      "name": "verify",
      "outputs": [
        {
          "internalType": "bool",
          "name": "",
          "type": "bool"
        }
      ],
      "stateMutability": "view",
      "type": "function"
    },
    {
      "inputs": [],
      "name": "pause",
      "outputs": [],
      "stateMutability": "nonpayable",
      "type": "function"
    },
    {
      "inputs": [],
      "name": "unpause",
      "outputs": [],
      "stateMutability": "nonpayable",
      "type": "function"
    },
    {
      "inputs": [
        {
          "internalType": "string",
          "name": "_name",
          "type": "string"
        },
        {
          "internalType": "address",
          "name": "_propiedad",
          "type": "address"
        },
        {
          "internalType": "address",
          "name": "_funds",
          "type": "address"
        },
        {
          "internalType": "uint8",
          "name": "_decimals",
          "type": "uint8"
        }
      ],
      "name": "setSecurity",
      "outputs": [],
      "stateMutability": "nonpayable",
      "type": "function"
    },
    {
      "inputs": [
        {
          "internalType": "string",
          "name": "_name",
          "type": "string"
        },
        {
          "internalType": "address",
          "name": "_addr",
          "type": "address"
        },
        {
          "internalType": "uint8",
          "name": "_decimals",
          "type": "uint8"
        }
      ],
      "name": "setCurrency",
      "outputs": [],
      "stateMutability": "nonpayable",
      "type": "function"
    },
    {
      "inputs": [
        {
          "internalType": "address",
          "name": "_link",
          "type": "address"
        }
      ],
      "name": "setLink",
      "outputs": [],
      "stateMutability": "nonpayable",
      "type": "function"
    },
    {
      "inputs": [
        {
          "internalType": "address",
          "name": "_link",
          "type": "address"
        },
        {
          "internalType": "address",
          "name": "_linksemi",
          "type": "address"
        }
      ],
      "name": "setLinkManual",
      "outputs": [],
      "stateMutability": "nonpayable",
      "type": "function"
    },
    {
      "inputs": [
        {
          "internalType": "string",
          "name": "_currency",
          "type": "string"
        },
        {
          "internalType": "string",
          "name": "_security",
          "type": "string"
        },
        {
          "internalType": "uint256",
          "name": "_amount",
          "type": "uint256"
        }
      ],
      "name": "comprar",
      "outputs": [
        {
          "internalType": "bool",
          "name": "_success",
          "type": "bool"
        }
      ],
      "stateMutability": "nonpayable",
      "type": "function"
    }
  ],
  "bytecode": "0x610180604052604051620053663803806200536683398181016040528101906200002a9190620006e6565b6040518060400160405280601081526020017f4d696e696d616c466f72776172646572000000000000000000000000000000008152506040518060400160405280600581526020017f302e302e31000000000000000000000000000000000000000000000000000000815250828073ffffffffffffffffffffffffffffffffffffffff1660808173ffffffffffffffffffffffffffffffffffffffff16815250505060008060006101000a81548160ff021916908315150217905550620001016002836200028560201b6200220c1790919060201c565b6101408181525050620001246003826200028560201b6200220c1790919060201c565b610160818152505081805190602001206101008181525050808051906020012061012081815250504660c0818152505062000164620002e960201b60201c565b60a081815250503073ffffffffffffffffffffffffffffffffffffffff1660e08173ffffffffffffffffffffffffffffffffffffffff16815250505050620001b66000801b336200034760201b60201c565b620001e87f65d7a28e3265b37a6474929f336521b332c1681b933f6cb9f3376673440d862a336200034760201b60201c565b6200021a7f8619cecd8b9e095ab43867f5b69d492180450fe862e6b50bfbfb24b75dd84c8a336200034760201b60201c565b6200024c7f021c73170b6ee67d18900edd1d18b4647810aae53143ba4e3a3d55e62b23be89336200034760201b60201c565b6200027e7fb9c595dd714e8ed8568b5dd4315ea8b709bbd3d27ae09ef7290c5ae7b976fb93336200034760201b60201c565b5062000998565b6000602083511015620002ab57620002a3836200043860201b60201c565b9050620002e3565b82620002c283620004a560201b620022571760201c565b6000019080519060200190620002da929190620005b8565b5060ff60001b90505b92915050565b60007f8b73c3c69bb8fe3d512ecc4cf759cc79239f7b179b0ffacaa9a75d522b39400f610100516101205146306040516020016200032c9594939291906200075f565b60405160208183030381529060405280519060200120905090565b620003598282620004af60201b60201c565b6200043457600180600084815260200190815260200160002060000160008373ffffffffffffffffffffffffffffffffffffffff1673ffffffffffffffffffffffffffffffffffffffff16815260200190815260200160002060006101000a81548160ff021916908315150217905550620003d96200051a60201b60201c565b73ffffffffffffffffffffffffffffffffffffffff168173ffffffffffffffffffffffffffffffffffffffff16837f2f8788117e7eff1d82e926ec794901d17c78024a50270940304540a733656f0d60405160405180910390a45b5050565b600080829050601f815111156200048857826040517f305a27a90000000000000000000000000000000000000000000000000000000081526004016200047f919062000860565b60405180910390fd5b8051816200049690620008c3565b60001c1760001b915050919050565b6000819050919050565b60006001600084815260200190815260200160002060000160008373ffffffffffffffffffffffffffffffffffffffff1673ffffffffffffffffffffffffffffffffffffffff16815260200190815260200160002060009054906101000a900460ff16905092915050565b60006200052d336200057660201b60201c565b80156200053f57506014600036905010155b156200055557601436033560601c905062000572565b6200056a620005b060201b620022611760201c565b905062000573565b5b90565b600060805173ffffffffffffffffffffffffffffffffffffffff168273ffffffffffffffffffffffffffffffffffffffff16149050919050565b600033905090565b828054620005c69062000962565b90600052602060002090601f016020900481019282620005ea576000855562000636565b82601f106200060557805160ff191683800117855562000636565b8280016001018555821562000636579182015b828111156200063557825182559160200191906001019062000618565b5b50905062000645919062000649565b5090565b5b80821115620006645760008160009055506001016200064a565b5090565b600080fd5b600073ffffffffffffffffffffffffffffffffffffffff82169050919050565b60006200069a826200066d565b9050919050565b6000620006ae826200068d565b9050919050565b620006c081620006a1565b8114620006cc57600080fd5b50565b600081519050620006e081620006b5565b92915050565b600060208284031215620006ff57620006fe62000668565b5b60006200070f84828501620006cf565b91505092915050565b6000819050919050565b6200072d8162000718565b82525050565b6000819050919050565b620007488162000733565b82525050565b62000759816200068d565b82525050565b600060a08201905062000776600083018862000722565b62000785602083018762000722565b62000794604083018662000722565b620007a360608301856200073d565b620007b260808301846200074e565b9695505050505050565b600081519050919050565b600082825260208201905092915050565b60005b83811015620007f8578082015181840152602081019050620007db565b8381111562000808576000848401525b50505050565b6000601f19601f8301169050919050565b60006200082c82620007bc565b620008388185620007c7565b93506200084a818560208601620007d8565b62000855816200080e565b840191505092915050565b600060208201905081810360008301526200087c81846200081f565b905092915050565b600081519050919050565b6000819050602082019050919050565b6000620008ad825162000718565b80915050919050565b600082821b905092915050565b6000620008d08262000884565b82620008dc846200088f565b9050620008e9816200089f565b925060208210156200092c57620009277fffffffffffffffffffffffffffffffffffffffffffffffffffffffffffffffff83602003600802620008b6565b831692505b5050919050565b7f4e487b7100000000000000000000000000000000000000000000000000000000600052602260045260246000fd5b600060028204905060018216806200097b57607f821691505b6020821081141562000992576200099162000933565b5b50919050565b60805160a05160c05160e05161010051610120516101405161016051614968620009fe60003960006118760152600061184201526000612e4c01526000612e2b01526000612899015260006128ef01526000612918015260006115f801526149686000f3fe6080604052600436106101cd5760003560e01c806373bf32db116100f7578063a217fddf11610095578063d547741f11610064578063d547741f146106aa578063db3064bb146106d3578063dcfc958a14610710578063e63ab1e91461074d576101cd565b8063a217fddf146105f0578063a78ac3a31461061b578063bf5d3bdb14610644578063cdd31efe14610681576101cd565b806391a89712116100d157806391a897121461052257806391d148541461055f57806394547fcc1461059c5780639df506c9146105c5576101cd565b806373bf32db146104b15780638456cb59146104da57806384b0196e146104f1576101cd565b806336568abe1161016f57806354dff05d1161013e57806354dff05d146103e1578063570618e11461041e578063572b6c05146104495780635c975abb14610486576101cd565b806336568abe146103455780633e413bee1461036e5780633f4ba83a1461039957806347153f82146103b0576101cd565b8063248a9ca3116101ab578063248a9ca3146102775780632d0335ab146102b45780632f2ff15d146102f157806332da8ba71461031a576101cd565b806301ffc9a7146101d257806313501ae01461020f57806316ab2f671461024c575b600080fd5b3480156101de57600080fd5b506101f960048036038101906101f49190613114565b610778565b604051610206919061315c565b60405180910390f35b34801561021b57600080fd5b5061023660048036038101906102319190613212565b6107f2565b604051610243919061315c565b60405180910390f35b34801561025857600080fd5b5061026161122b565b60405161026e91906132c0565b60405180910390f35b34801561028357600080fd5b5061029e60048036038101906102999190613307565b61124f565b6040516102ab91906132c0565b60405180910390f35b3480156102c057600080fd5b506102db60048036038101906102d69190613392565b61126f565b6040516102e891906133ce565b60405180910390f35b3480156102fd57600080fd5b50610318600480360381019061031391906133e9565b6112b8565b005b34801561032657600080fd5b5061032f6112d9565b60405161033c91906132c0565b60405180910390f35b34801561035157600080fd5b5061036c600480360381019061036791906133e9565b6112fd565b005b34801561037a57600080fd5b50610383611380565b6040516103909190613488565b60405180910390f35b3480156103a557600080fd5b506103ae6113a6565b005b6103ca60048036038101906103c5919061351d565b6113db565b6040516103d8929190613632565b60405180910390f35b3480156103ed57600080fd5b5061040860048036038101906104039190613792565b611587565b6040516104159190613488565b60405180910390f35b34801561042a57600080fd5b506104336115d0565b60405161044091906132c0565b60405180910390f35b34801561045557600080fd5b50610470600480360381019061046b9190613392565b6115f4565b60405161047d919061315c565b60405180910390f35b34801561049257600080fd5b5061049b61164c565b6040516104a8919061315c565b60405180910390f35b3480156104bd57600080fd5b506104d860048036038101906104d391906137db565b611662565b005b3480156104e657600080fd5b506104ef6117fa565b005b3480156104fd57600080fd5b5061050661182f565b6040516105199796959493929190613978565b60405180910390f35b34801561052e57600080fd5b5061054960048036038101906105449190613392565b611931565b60405161055691906139fc565b60405180910390f35b34801561056b57600080fd5b50610586600480360381019061058191906133e9565b611964565b604051610593919061315c565b60405180910390f35b3480156105a857600080fd5b506105c360048036038101906105be9190613392565b6119cf565b005b3480156105d157600080fd5b506105da611c0f565b6040516105e79190613488565b60405180910390f35b3480156105fc57600080fd5b50610605611c35565b60405161061291906132c0565b60405180910390f35b34801561062757600080fd5b50610642600480360381019061063d9190613a50565b611c3c565b005b34801561065057600080fd5b5061066b6004803603810190610666919061351d565b611e0d565b604051610678919061315c565b60405180910390f35b34801561068d57600080fd5b506106a860048036038101906106a39190613ad8565b611fc3565b005b3480156106b657600080fd5b506106d160048036038101906106cc91906133e9565b612135565b005b3480156106df57600080fd5b506106fa60048036038101906106f59190613792565b612156565b60405161070791906139fc565b60405180910390f35b34801561071c57600080fd5b5061073760048036038101906107329190613792565b61219f565b6040516107449190613488565b60405180910390f35b34801561075957600080fd5b506107626121e8565b60405161076f91906132c0565b60405180910390f35b60007f7965db0b000000000000000000000000000000000000000000000000000000007bffffffffffffffffffffffffffffffffffffffffffffffffffffffff1916827bffffffffffffffffffffffffffffffffffffffffffffffffffffffff191614806107eb57506107ea82612269565b5b9050919050565b60006107fc6122d3565b600060098787604051610810929190613b7c565b908152602001604051809103902060009054906101000a900460ff169050600060098686604051610842929190613b7c565b908152602001604051809103902060009054906101000a900460ff1690508060ff168260ff161415610b975760058888604051610880929190613b7c565b908152602001604051809103902060009054906101000a900473ffffffffffffffffffffffffffffffffffffffff1673ffffffffffffffffffffffffffffffffffffffff166323b872dd600c60006108d661231d565b73ffffffffffffffffffffffffffffffffffffffff1673ffffffffffffffffffffffffffffffffffffffff16815260200190815260200160002060009054906101000a900473ffffffffffffffffffffffffffffffffffffffff16600a8989604051610943929190613b7c565b908152602001604051809103902060009054906101000a900473ffffffffffffffffffffffffffffffffffffffff16876040518463ffffffff1660e01b815260040161099193929190613b95565b602060405180830381600087803b1580156109ab57600080fd5b505af11580156109bf573d6000803e3d6000fd5b505050506040513d601f19601f820116820180604052508101906109e39190613bf8565b50600686866040516109f6929190613b7c565b908152602001604051809103902060009054906101000a900473ffffffffffffffffffffffffffffffffffffffff1673ffffffffffffffffffffffffffffffffffffffff1663a9059cbb610a4861231d565b866040518363ffffffff1660e01b8152600401610a66929190613c25565b602060405180830381600087803b158015610a8057600080fd5b505af1158015610a94573d6000803e3d6000fd5b505050506040513d601f19601f82011682018060405250810190610ab89190613bf8565b5042610ac261231d565b73ffffffffffffffffffffffffffffffffffffffff16600c6000610ae461231d565b73ffffffffffffffffffffffffffffffffffffffff1673ffffffffffffffffffffffffffffffffffffffff16815260200190815260200160002060009054906101000a900473ffffffffffffffffffffffffffffffffffffffff1673ffffffffffffffffffffffffffffffffffffffff167f4b5796113f074ebf8f11d5bcdeb6349b2fbe47abed78419cdcdbbc15c6fcf84587604051610b8491906133ce565b60405180910390a4600192505050611222565b60008160ff168360ff161115610e795760098787604051610bb9929190613b7c565b908152602001604051809103902060009054906101000a900460ff1660098a8a604051610be7929190613b7c565b908152602001604051809103902060009054906101000a900460ff16610c0d9190613c7d565b905060058989604051610c21929190613b7c565b908152602001604051809103902060009054906101000a900473ffffffffffffffffffffffffffffffffffffffff1673ffffffffffffffffffffffffffffffffffffffff166323b872dd600c6000610c7761231d565b73ffffffffffffffffffffffffffffffffffffffff1673ffffffffffffffffffffffffffffffffffffffff16815260200190815260200160002060009054906101000a900473ffffffffffffffffffffffffffffffffffffffff16600a8a8a604051610ce4929190613b7c565b908152602001604051809103902060009054906101000a900473ffffffffffffffffffffffffffffffffffffffff16886040518463ffffffff1660e01b8152600401610d3293929190613b95565b602060405180830381600087803b158015610d4c57600080fd5b505af1158015610d60573d6000803e3d6000fd5b505050506040513d601f19601f82011682018060405250810190610d849190613bf8565b5080600a610d929190613de4565b85610d9d9190613e5e565b945060068787604051610db1929190613b7c565b908152602001604051809103902060009054906101000a900473ffffffffffffffffffffffffffffffffffffffff1673ffffffffffffffffffffffffffffffffffffffff1663a9059cbb610e0361231d565b876040518363ffffffff1660e01b8152600401610e21929190613c25565b602060405180830381600087803b158015610e3b57600080fd5b505af1158015610e4f573d6000803e3d6000fd5b505050506040513d601f19601f82011682018060405250810190610e739190613bf8565b50611147565b60098989604051610e8b929190613b7c565b908152602001604051809103902060009054906101000a900460ff1660098888604051610eb9929190613b7c565b908152602001604051809103902060009054906101000a900460ff16610edf9190613c7d565b905060058989604051610ef3929190613b7c565b908152602001604051809103902060009054906101000a900473ffffffffffffffffffffffffffffffffffffffff1673ffffffffffffffffffffffffffffffffffffffff166323b872dd600c6000610f4961231d565b73ffffffffffffffffffffffffffffffffffffffff1673ffffffffffffffffffffffffffffffffffffffff16815260200190815260200160002060009054906101000a900473ffffffffffffffffffffffffffffffffffffffff16600a8a8a604051610fb6929190613b7c565b908152602001604051809103902060009054906101000a900473ffffffffffffffffffffffffffffffffffffffff16886040518463ffffffff1660e01b815260040161100493929190613b95565b602060405180830381600087803b15801561101e57600080fd5b505af1158015611032573d6000803e3d6000fd5b505050506040513d601f19601f820116820180604052508101906110569190613bf8565b5080600a6110649190613de4565b8561106f9190613e8f565b945060068787604051611083929190613b7c565b908152602001604051809103902060009054906101000a900473ffffffffffffffffffffffffffffffffffffffff1673ffffffffffffffffffffffffffffffffffffffff1663a9059cbb6110d561231d565b876040518363ffffffff1660e01b81526004016110f3929190613c25565b602060405180830381600087803b15801561110d57600080fd5b505af1158015611121573d6000803e3d6000fd5b505050506040513d601f19601f820116820180604052508101906111459190613bf8565b505b4261115061231d565b73ffffffffffffffffffffffffffffffffffffffff16600c600061117261231d565b73ffffffffffffffffffffffffffffffffffffffff1673ffffffffffffffffffffffffffffffffffffffff16815260200190815260200160002060009054906101000a900473ffffffffffffffffffffffffffffffffffffffff1673ffffffffffffffffffffffffffffffffffffffff167f4b5796113f074ebf8f11d5bcdeb6349b2fbe47abed78419cdcdbbc15c6fcf8458860405161121291906133ce565b60405180910390a4600193505050505b95945050505050565b7f021c73170b6ee67d18900edd1d18b4647810aae53143ba4e3a3d55e62b23be8981565b600060016000838152602001908152602001600020600101549050919050565b6000600460008373ffffffffffffffffffffffffffffffffffffffff1673ffffffffffffffffffffffffffffffffffffffff168152602001908152602001600020549050919050565b6112c18261124f565b6112ca81612360565b6112d48383612374565b505050565b7fb9c595dd714e8ed8568b5dd4315ea8b709bbd3d27ae09ef7290c5ae7b976fb9381565b61130561231d565b73ffffffffffffffffffffffffffffffffffffffff168173ffffffffffffffffffffffffffffffffffffffff1614611372576040517f08c379a000000000000000000000000000000000000000000000000000000000815260040161136990613f5b565b60405180910390fd5b61137c8282612454565b5050565b600860009054906101000a900473ffffffffffffffffffffffffffffffffffffffff1681565b7f65d7a28e3265b37a6474929f336521b332c1681b933f6cb9f3376673440d862a6113d081612360565b6113d8612536565b50565b600060606113ea858585611e0d565b611429576040517f08c379a000000000000000000000000000000000000000000000000000000000815260040161142090613fed565b60405180910390fd5b6001856080013561143a919061400d565b600460008760000160208101906114519190613392565b73ffffffffffffffffffffffffffffffffffffffff1673ffffffffffffffffffffffffffffffffffffffff168152602001908152602001600020819055506000808660200160208101906114a59190613392565b73ffffffffffffffffffffffffffffffffffffffff1687606001358860400135898060a001906114d59190614072565b8b60000160208101906114e89190613392565b6040516020016114fa9392919061414d565b60405160208183030381529060405260405161151691906141a8565b600060405180830381858888f193505050503d8060008114611554576040519150601f19603f3d011682016040523d82523d6000602084013e611559565b606091505b5091509150603f876060013561156f9190613e5e565b5a1161157757fe5b8181935093505050935093915050565b6005818051602081018201805184825260208301602085012081835280955050505050506000915054906101000a900473ffffffffffffffffffffffffffffffffffffffff1681565b7f8619cecd8b9e095ab43867f5b69d492180450fe862e6b50bfbfb24b75dd84c8a81565b60007f000000000000000000000000000000000000000000000000000000000000000073ffffffffffffffffffffffffffffffffffffffff168273ffffffffffffffffffffffffffffffffffffffff16149050919050565b60008060009054906101000a900460ff16905090565b7f8619cecd8b9e095ab43867f5b69d492180450fe862e6b50bfbfb24b75dd84c8a61168c81612360565b82600c60008473ffffffffffffffffffffffffffffffffffffffff1673ffffffffffffffffffffffffffffffffffffffff16815260200190815260200160002060006101000a81548173ffffffffffffffffffffffffffffffffffffffff021916908373ffffffffffffffffffffffffffffffffffffffff16021790555081600c60008573ffffffffffffffffffffffffffffffffffffffff1673ffffffffffffffffffffffffffffffffffffffff16815260200190815260200160002060006101000a81548173ffffffffffffffffffffffffffffffffffffffff021916908373ffffffffffffffffffffffffffffffffffffffff160217905550428273ffffffffffffffffffffffffffffffffffffffff168473ffffffffffffffffffffffffffffffffffffffff167f65f1045ec5b129fc3fd938de1cc89be7b42e90c4b5a1a34570c2f880aa221e776117e061231d565b6040516117ed91906139fc565b60405180910390a4505050565b7f65d7a28e3265b37a6474929f336521b332c1681b933f6cb9f3376673440d862a61182481612360565b61182c612598565b50565b60006060806000806000606061186f60027f00000000000000000000000000000000000000000000000000000000000000006125fa90919063ffffffff16565b6118a360037f00000000000000000000000000000000000000000000000000000000000000006125fa90919063ffffffff16565b46306000801b600067ffffffffffffffff8111156118c4576118c3613667565b5b6040519080825280602002602001820160405280156118f25781602001602082028036833780820191505090505b507f0f00000000000000000000000000000000000000000000000000000000000000959493929190965096509650965096509650965090919293949596565b600c6020528060005260406000206000915054906101000a900473ffffffffffffffffffffffffffffffffffffffff1681565b60006001600084815260200190815260200160002060000160008373ffffffffffffffffffffffffffffffffffffffff1673ffffffffffffffffffffffffffffffffffffffff16815260200190815260200160002060009054906101000a900460ff16905092915050565b600073ffffffffffffffffffffffffffffffffffffffff16600c60008373ffffffffffffffffffffffffffffffffffffffff1673ffffffffffffffffffffffffffffffffffffffff16815260200190815260200160002060009054906101000a900473ffffffffffffffffffffffffffffffffffffffff1673ffffffffffffffffffffffffffffffffffffffff1614611a9d576040517f08c379a0000000000000000000000000000000000000000000000000000000008152600401611a949061420b565b60405180910390fd5b6000611aa761231d565b905081600c60008373ffffffffffffffffffffffffffffffffffffffff1673ffffffffffffffffffffffffffffffffffffffff16815260200190815260200160002060006101000a81548173ffffffffffffffffffffffffffffffffffffffff021916908373ffffffffffffffffffffffffffffffffffffffff16021790555080600c60008473ffffffffffffffffffffffffffffffffffffffff1673ffffffffffffffffffffffffffffffffffffffff16815260200190815260200160002060006101000a81548173ffffffffffffffffffffffffffffffffffffffff021916908373ffffffffffffffffffffffffffffffffffffffff160217905550428173ffffffffffffffffffffffffffffffffffffffff168373ffffffffffffffffffffffffffffffffffffffff167f65f1045ec5b129fc3fd938de1cc89be7b42e90c4b5a1a34570c2f880aa221e7784604051611c0391906139fc565b60405180910390a45050565b600760009054906101000a900473ffffffffffffffffffffffffffffffffffffffff1681565b6000801b81565b7f021c73170b6ee67d18900edd1d18b4647810aae53143ba4e3a3d55e62b23be89611c6681612360565b8360068787604051611c79929190613b7c565b908152602001604051809103902060006101000a81548173ffffffffffffffffffffffffffffffffffffffff021916908373ffffffffffffffffffffffffffffffffffffffff16021790555082600a8787604051611cd8929190613b7c565b908152602001604051809103902060006101000a81548173ffffffffffffffffffffffffffffffffffffffff021916908373ffffffffffffffffffffffffffffffffffffffff160217905550600b868690918060018154018082558091505060019003906000526020600020016000909192909192909192909192509190611d61929190612f7f565b508160098787604051611d75929190613b7c565b908152602001604051809103902060006101000a81548160ff021916908360ff160217905550428473ffffffffffffffffffffffffffffffffffffffff163373ffffffffffffffffffffffffffffffffffffffff167f15aacac6e7418aba31c161787297338f4283c9837c51839643f1d204c73cdbc9898988604051611dfd93929190614258565b60405180910390a4505050505050565b600080611f1684848080601f016020809104026020016040519081016040528093929190818152602001838380828437600081840152601f19601f82011690508083019250505050505050611f087fdd8f4b70b0f4393e889bd39128a30628a78b61816a9eb8199759e7a349657e48886000016020810190611e8f9190613392565b896020016020810190611ea29190613392565b8a604001358b606001358c608001358d8060a00190611ec19190614072565b604051611ecf92919061428a565b6040518091039020604051602001611eed97969594939291906142a3565b604051602081830303815290604052805190602001206126aa565b6126c490919063ffffffff16565b9050846080013560046000876000016020810190611f349190613392565b73ffffffffffffffffffffffffffffffffffffffff1673ffffffffffffffffffffffffffffffffffffffff16815260200190815260200160002054148015611fb95750846000016020810190611f8a9190613392565b73ffffffffffffffffffffffffffffffffffffffff168173ffffffffffffffffffffffffffffffffffffffff16145b9150509392505050565b7f021c73170b6ee67d18900edd1d18b4647810aae53143ba4e3a3d55e62b23be89611fed81612360565b8260058686604051612000929190613b7c565b908152602001604051809103902060006101000a81548173ffffffffffffffffffffffffffffffffffffffff021916908373ffffffffffffffffffffffffffffffffffffffff16021790555082600860006101000a81548173ffffffffffffffffffffffffffffffffffffffff021916908373ffffffffffffffffffffffffffffffffffffffff16021790555081600986866040516120a0929190613b7c565b908152602001604051809103902060006101000a81548160ff021916908360ff160217905550428373ffffffffffffffffffffffffffffffffffffffff163373ffffffffffffffffffffffffffffffffffffffff167fd206cf8f59ca12faa98cfb0809ea97c23a21ea0a619f41e82ed79e064780fec28888604051612126929190614312565b60405180910390a45050505050565b61213e8261124f565b61214781612360565b6121518383612454565b505050565b600a818051602081018201805184825260208301602085012081835280955050505050506000915054906101000a900473ffffffffffffffffffffffffffffffffffffffff1681565b6006818051602081018201805184825260208301602085012081835280955050505050506000915054906101000a900473ffffffffffffffffffffffffffffffffffffffff1681565b7f65d7a28e3265b37a6474929f336521b332c1681b933f6cb9f3376673440d862a81565b600060208351101561222857612221836126eb565b9050612251565b8261223283612257565b6000019080519060200190612248929190613005565b5060ff60001b90505b92915050565b6000819050919050565b600033905090565b60007f01ffc9a7000000000000000000000000000000000000000000000000000000007bffffffffffffffffffffffffffffffffffffffffffffffffffffffff1916827bffffffffffffffffffffffffffffffffffffffffffffffffffffffff1916149050919050565b6122db61164c565b1561231b576040517f08c379a000000000000000000000000000000000000000000000000000000000815260040161231290614382565b60405180910390fd5b565b6000612328336115f4565b801561233957506014600036905010155b1561234d57601436033560601c905061235c565b612355612261565b905061235d565b5b90565b6123718161236c61231d565b612753565b50565b61237e8282611964565b61245057600180600084815260200190815260200160002060000160008373ffffffffffffffffffffffffffffffffffffffff1673ffffffffffffffffffffffffffffffffffffffff16815260200190815260200160002060006101000a81548160ff0219169083151502179055506123f561231d565b73ffffffffffffffffffffffffffffffffffffffff168173ffffffffffffffffffffffffffffffffffffffff16837f2f8788117e7eff1d82e926ec794901d17c78024a50270940304540a733656f0d60405160405180910390a45b5050565b61245e8282611964565b156125325760006001600084815260200190815260200160002060000160008373ffffffffffffffffffffffffffffffffffffffff1673ffffffffffffffffffffffffffffffffffffffff16815260200190815260200160002060006101000a81548160ff0219169083151502179055506124d761231d565b73ffffffffffffffffffffffffffffffffffffffff168173ffffffffffffffffffffffffffffffffffffffff16837ff6391f5c32d9c69d2a47ea670b442974b53935d1edc7fd64eb21e047a839171b60405160405180910390a45b5050565b61253e6127d8565b60008060006101000a81548160ff0219169083151502179055507f5db9ee0a495bf2e6ff9c91a7834c1ba4fdd244a5e8aa4e537bd38aeae4b073aa61258161231d565b60405161258e91906139fc565b60405180910390a1565b6125a06122d3565b60016000806101000a81548160ff0219169083151502179055507f62e78cea01bee320cd4e420270b5ea74000d11b0c9f74754ebdbfc544b05a2586125e361231d565b6040516125f091906139fc565b60405180910390a1565b606060ff60001b83146126175761261083612821565b90506126a4565b818054612623906143d1565b80601f016020809104026020016040519081016040528092919081815260200182805461264f906143d1565b801561269c5780601f106126715761010080835404028352916020019161269c565b820191906000526020600020905b81548152906001019060200180831161267f57829003601f168201915b505050505090505b92915050565b60006126bd6126b7612895565b8361294c565b9050919050565b60008060006126d3858561298d565b915091506126e0816129df565b819250505092915050565b600080829050601f8151111561273857826040517f305a27a900000000000000000000000000000000000000000000000000000000815260040161272f9190614403565b60405180910390fd5b80518161274490614457565b60001c1760001b915050919050565b61275d8282611964565b6127d45761276a81612b4d565b6127788360001c6020612b7a565b604051602001612789929190614587565b6040516020818303038152906040526040517f08c379a00000000000000000000000000000000000000000000000000000000081526004016127cb9190614403565b60405180910390fd5b5050565b6127e061164c565b61281f576040517f08c379a00000000000000000000000000000000000000000000000000000000081526004016128169061460d565b60405180910390fd5b565b6060600061282e83612db6565b90506000602067ffffffffffffffff81111561284d5761284c613667565b5b6040519080825280601f01601f19166020018201604052801561287f5781602001600182028036833780820191505090505b5090508181528360208201528092505050919050565b60007f000000000000000000000000000000000000000000000000000000000000000073ffffffffffffffffffffffffffffffffffffffff163073ffffffffffffffffffffffffffffffffffffffff1614801561291157507f000000000000000000000000000000000000000000000000000000000000000046145b1561293e577f00000000000000000000000000000000000000000000000000000000000000009050612949565b612946612e06565b90505b90565b60006040517f190100000000000000000000000000000000000000000000000000000000000081528360028201528260228201526042812091505092915050565b6000806041835114156129cf5760008060006020860151925060408601519150606086015160001a90506129c387828585612e9c565b945094505050506129d8565b60006002915091505b9250929050565b600060048111156129f3576129f261462d565b5b816004811115612a0657612a0561462d565b5b1415612a1157612b4a565b60016004811115612a2557612a2461462d565b5b816004811115612a3857612a3761462d565b5b1415612a79576040517f08c379a0000000000000000000000000000000000000000000000000000000008152600401612a70906146a8565b60405180910390fd5b60026004811115612a8d57612a8c61462d565b5b816004811115612aa057612a9f61462d565b5b1415612ae1576040517f08c379a0000000000000000000000000000000000000000000000000000000008152600401612ad890614714565b60405180910390fd5b60036004811115612af557612af461462d565b5b816004811115612b0857612b0761462d565b5b1415612b49576040517f08c379a0000000000000000000000000000000000000000000000000000000008152600401612b40906147a6565b60405180910390fd5b5b50565b6060612b738273ffffffffffffffffffffffffffffffffffffffff16601460ff16612b7a565b9050919050565b606060006002836002612b8d9190613e8f565b612b97919061400d565b67ffffffffffffffff811115612bb057612baf613667565b5b6040519080825280601f01601f191660200182016040528015612be25781602001600182028036833780820191505090505b5090507f300000000000000000000000000000000000000000000000000000000000000081600081518110612c1a57612c196147c6565b5b60200101907effffffffffffffffffffffffffffffffffffffffffffffffffffffffffffff1916908160001a9053507f780000000000000000000000000000000000000000000000000000000000000081600181518110612c7e57612c7d6147c6565b5b60200101907effffffffffffffffffffffffffffffffffffffffffffffffffffffffffffff1916908160001a90535060006001846002612cbe9190613e8f565b612cc8919061400d565b90505b6001811115612d68577f3031323334353637383961626364656600000000000000000000000000000000600f861660108110612d0a57612d096147c6565b5b1a60f81b828281518110612d2157612d206147c6565b5b60200101907effffffffffffffffffffffffffffffffffffffffffffffffffffffffffffff1916908160001a905350600485901c945080612d61906147f5565b9050612ccb565b5060008414612dac576040517f08c379a0000000000000000000000000000000000000000000000000000000008152600401612da39061486b565b60405180910390fd5b8091505092915050565b60008060ff8360001c169050601f811115612dfd576040517fb3512b0c00000000000000000000000000000000000000000000000000000000815260040160405180910390fd5b80915050919050565b60007f8b73c3c69bb8fe3d512ecc4cf759cc79239f7b179b0ffacaa9a75d522b39400f7f00000000000000000000000000000000000000000000000000000000000000007f00000000000000000000000000000000000000000000000000000000000000004630604051602001612e8195949392919061488b565b60405160208183030381529060405280519060200120905090565b6000807f7fffffffffffffffffffffffffffffff5d576e7357a4501ddfe92f46681b20a08360001c1115612ed7576000600391509150612f76565b600060018787878760405160008152602001604052604051612efc94939291906148ed565b6020604051602081039080840390855afa158015612f1e573d6000803e3d6000fd5b505050602060405103519050600073ffffffffffffffffffffffffffffffffffffffff168173ffffffffffffffffffffffffffffffffffffffff161415612f6d57600060019250925050612f76565b80600092509250505b94509492505050565b828054612f8b906143d1565b90600052602060002090601f016020900481019282612fad5760008555612ff4565b82601f10612fc657803560ff1916838001178555612ff4565b82800160010185558215612ff4579182015b82811115612ff3578235825591602001919060010190612fd8565b5b509050613001919061308b565b5090565b828054613011906143d1565b90600052602060002090601f016020900481019282613033576000855561307a565b82601f1061304c57805160ff191683800117855561307a565b8280016001018555821561307a579182015b8281111561307957825182559160200191906001019061305e565b5b509050613087919061308b565b5090565b5b808211156130a457600081600090555060010161308c565b5090565b6000604051905090565b600080fd5b600080fd5b60007fffffffff0000000000000000000000000000000000000000000000000000000082169050919050565b6130f1816130bc565b81146130fc57600080fd5b50565b60008135905061310e816130e8565b92915050565b60006020828403121561312a576131296130b2565b5b6000613138848285016130ff565b91505092915050565b60008115159050919050565b61315681613141565b82525050565b6000602082019050613171600083018461314d565b92915050565b600080fd5b600080fd5b600080fd5b60008083601f84011261319c5761319b613177565b5b8235905067ffffffffffffffff8111156131b9576131b861317c565b5b6020830191508360018202830111156131d5576131d4613181565b5b9250929050565b6000819050919050565b6131ef816131dc565b81146131fa57600080fd5b50565b60008135905061320c816131e6565b92915050565b60008060008060006060868803121561322e5761322d6130b2565b5b600086013567ffffffffffffffff81111561324c5761324b6130b7565b5b61325888828901613186565b9550955050602086013567ffffffffffffffff81111561327b5761327a6130b7565b5b61328788828901613186565b9350935050604061329a888289016131fd565b9150509295509295909350565b6000819050919050565b6132ba816132a7565b82525050565b60006020820190506132d560008301846132b1565b92915050565b6132e4816132a7565b81146132ef57600080fd5b50565b600081359050613301816132db565b92915050565b60006020828403121561331d5761331c6130b2565b5b600061332b848285016132f2565b91505092915050565b600073ffffffffffffffffffffffffffffffffffffffff82169050919050565b600061335f82613334565b9050919050565b61336f81613354565b811461337a57600080fd5b50565b60008135905061338c81613366565b92915050565b6000602082840312156133a8576133a76130b2565b5b60006133b68482850161337d565b91505092915050565b6133c8816131dc565b82525050565b60006020820190506133e360008301846133bf565b92915050565b60008060408385031215613400576133ff6130b2565b5b600061340e858286016132f2565b925050602061341f8582860161337d565b9150509250929050565b6000819050919050565b600061344e61344961344484613334565b613429565b613334565b9050919050565b600061346082613433565b9050919050565b600061347282613455565b9050919050565b61348281613467565b82525050565b600060208201905061349d6000830184613479565b92915050565b600080fd5b600060c082840312156134be576134bd6134a3565b5b81905092915050565b60008083601f8401126134dd576134dc613177565b5b8235905067ffffffffffffffff8111156134fa576134f961317c565b5b60208301915083600182028301111561351657613515613181565b5b9250929050565b600080600060408486031215613536576135356130b2565b5b600084013567ffffffffffffffff811115613554576135536130b7565b5b613560868287016134a8565b935050602084013567ffffffffffffffff811115613581576135806130b7565b5b61358d868287016134c7565b92509250509250925092565b600081519050919050565b600082825260208201905092915050565b60005b838110156135d35780820151818401526020810190506135b8565b838111156135e2576000848401525b50505050565b6000601f19601f8301169050919050565b600061360482613599565b61360e81856135a4565b935061361e8185602086016135b5565b613627816135e8565b840191505092915050565b6000604082019050613647600083018561314d565b818103602083015261365981846135f9565b90509392505050565b600080fd5b7f4e487b7100000000000000000000000000000000000000000000000000000000600052604160045260246000fd5b61369f826135e8565b810181811067ffffffffffffffff821117156136be576136bd613667565b5b80604052505050565b60006136d16130a8565b90506136dd8282613696565b919050565b600067ffffffffffffffff8211156136fd576136fc613667565b5b613706826135e8565b9050602081019050919050565b82818337600083830152505050565b6000613735613730846136e2565b6136c7565b90508281526020810184848401111561375157613750613662565b5b61375c848285613713565b509392505050565b600082601f83011261377957613778613177565b5b8135613789848260208601613722565b91505092915050565b6000602082840312156137a8576137a76130b2565b5b600082013567ffffffffffffffff8111156137c6576137c56130b7565b5b6137d284828501613764565b91505092915050565b600080604083850312156137f2576137f16130b2565b5b60006138008582860161337d565b92505060206138118582860161337d565b9150509250929050565b60007fff0000000000000000000000000000000000000000000000000000000000000082169050919050565b6138508161381b565b82525050565b600081519050919050565b600082825260208201905092915050565b600061387d82613856565b6138878185613861565b93506138978185602086016135b5565b6138a0816135e8565b840191505092915050565b6138b481613354565b82525050565b600081519050919050565b600082825260208201905092915050565b6000819050602082019050919050565b6138ef816131dc565b82525050565b600061390183836138e6565b60208301905092915050565b6000602082019050919050565b6000613925826138ba565b61392f81856138c5565b935061393a836138d6565b8060005b8381101561396b57815161395288826138f5565b975061395d8361390d565b92505060018101905061393e565b5085935050505092915050565b600060e08201905061398d600083018a613847565b818103602083015261399f8189613872565b905081810360408301526139b38188613872565b90506139c260608301876133bf565b6139cf60808301866138ab565b6139dc60a08301856132b1565b81810360c08301526139ee818461391a565b905098975050505050505050565b6000602082019050613a1160008301846138ab565b92915050565b600060ff82169050919050565b613a2d81613a17565b8114613a3857600080fd5b50565b600081359050613a4a81613a24565b92915050565b600080600080600060808688031215613a6c57613a6b6130b2565b5b600086013567ffffffffffffffff811115613a8a57613a896130b7565b5b613a9688828901613186565b95509550506020613aa98882890161337d565b9350506040613aba8882890161337d565b9250506060613acb88828901613a3b565b9150509295509295909350565b60008060008060608587031215613af257613af16130b2565b5b600085013567ffffffffffffffff811115613b1057613b0f6130b7565b5b613b1c87828801613186565b94509450506020613b2f8782880161337d565b9250506040613b4087828801613a3b565b91505092959194509250565b600081905092915050565b6000613b638385613b4c565b9350613b70838584613713565b82840190509392505050565b6000613b89828486613b57565b91508190509392505050565b6000606082019050613baa60008301866138ab565b613bb760208301856138ab565b613bc460408301846133bf565b949350505050565b613bd581613141565b8114613be057600080fd5b50565b600081519050613bf281613bcc565b92915050565b600060208284031215613c0e57613c0d6130b2565b5b6000613c1c84828501613be3565b91505092915050565b6000604082019050613c3a60008301856138ab565b613c4760208301846133bf565b9392505050565b7f4e487b7100000000000000000000000000000000000000000000000000000000600052601160045260246000fd5b6000613c8882613a17565b9150613c9383613a17565b925082821015613ca657613ca5613c4e565b5b828203905092915050565b60008160011c9050919050565b6000808291508390505b6001851115613d0857808604811115613ce457613ce3613c4e565b5b6001851615613cf35780820291505b8081029050613d0185613cb1565b9450613cc8565b94509492505050565b600082613d215760019050613ddd565b81613d2f5760009050613ddd565b8160018114613d455760028114613d4f57613d7e565b6001915050613ddd565b60ff841115613d6157613d60613c4e565b5b8360020a915084821115613d7857613d77613c4e565b5b50613ddd565b5060208310610133831016604e8410600b8410161715613db35782820a905083811115613dae57613dad613c4e565b5b613ddd565b613dc08484846001613cbe565b92509050818404811115613dd757613dd6613c4e565b5b81810290505b9392505050565b6000613def826131dc565b9150613dfa83613a17565b9250613e277fffffffffffffffffffffffffffffffffffffffffffffffffffffffffffffffff8484613d11565b905092915050565b7f4e487b7100000000000000000000000000000000000000000000000000000000600052601260045260246000fd5b6000613e69826131dc565b9150613e74836131dc565b925082613e8457613e83613e2f565b5b828204905092915050565b6000613e9a826131dc565b9150613ea5836131dc565b9250817fffffffffffffffffffffffffffffffffffffffffffffffffffffffffffffffff0483118215151615613ede57613edd613c4e565b5b828202905092915050565b7f416363657373436f6e74726f6c3a2063616e206f6e6c792072656e6f756e636560008201527f20726f6c657320666f722073656c660000000000000000000000000000000000602082015250565b6000613f45602f83613861565b9150613f5082613ee9565b604082019050919050565b60006020820190508181036000830152613f7481613f38565b9050919050565b7f4d696e696d616c466f727761726465723a207369676e617475726520646f657360008201527f206e6f74206d6174636820726571756573740000000000000000000000000000602082015250565b6000613fd7603283613861565b9150613fe282613f7b565b604082019050919050565b6000602082019050818103600083015261400681613fca565b9050919050565b6000614018826131dc565b9150614023836131dc565b9250827fffffffffffffffffffffffffffffffffffffffffffffffffffffffffffffffff0382111561405857614057613c4e565b5b828201905092915050565b600080fd5b600080fd5b600080fd5b6000808335600160200384360303811261408f5761408e614063565b5b80840192508235915067ffffffffffffffff8211156140b1576140b0614068565b5b6020830192506001820236038313156140cd576140cc61406d565b5b509250929050565b600081905092915050565b60006140ec83856140d5565b93506140f9838584613713565b82840190509392505050565b60008160601b9050919050565b600061411d82614105565b9050919050565b600061412f82614112565b9050919050565b61414761414282613354565b614124565b82525050565b600061415a8285876140e0565b91506141668284614136565b601482019150819050949350505050565b600061418282613599565b61418c81856140d5565b935061419c8185602086016135b5565b80840191505092915050565b60006141b48284614177565b915081905092915050565b7f616c726561647920726567697374657265640000000000000000000000000000600082015250565b60006141f5601283613861565b9150614200826141bf565b602082019050919050565b60006020820190508181036000830152614224816141e8565b9050919050565b60006142378385613861565b9350614244838584613713565b61424d836135e8565b840190509392505050565b6000604082019050818103600083015261427381858761422b565b905061428260208301846138ab565b949350505050565b60006142978284866140e0565b91508190509392505050565b600060e0820190506142b8600083018a6132b1565b6142c560208301896138ab565b6142d260408301886138ab565b6142df60608301876133bf565b6142ec60808301866133bf565b6142f960a08301856133bf565b61430660c08301846132b1565b98975050505050505050565b6000602082019050818103600083015261432d81848661422b565b90509392505050565b7f5061757361626c653a2070617573656400000000000000000000000000000000600082015250565b600061436c601083613861565b915061437782614336565b602082019050919050565b6000602082019050818103600083015261439b8161435f565b9050919050565b7f4e487b7100000000000000000000000000000000000000000000000000000000600052602260045260246000fd5b600060028204905060018216806143e957607f821691505b602082108114156143fd576143fc6143a2565b5b50919050565b6000602082019050818103600083015261441d8184613872565b905092915050565b6000819050602082019050919050565b600061444182516132a7565b80915050919050565b600082821b905092915050565b600061446282613599565b8261446c84614425565b905061447781614435565b925060208210156144b7576144b27fffffffffffffffffffffffffffffffffffffffffffffffffffffffffffffffff8360200360080261444a565b831692505b5050919050565b7f416363657373436f6e74726f6c3a206163636f756e7420000000000000000000600082015250565b60006144f4601783613b4c565b91506144ff826144be565b601782019050919050565b600061451582613856565b61451f8185613b4c565b935061452f8185602086016135b5565b80840191505092915050565b7f206973206d697373696e6720726f6c6520000000000000000000000000000000600082015250565b6000614571601183613b4c565b915061457c8261453b565b601182019050919050565b6000614592826144e7565b915061459e828561450a565b91506145a982614564565b91506145b5828461450a565b91508190509392505050565b7f5061757361626c653a206e6f7420706175736564000000000000000000000000600082015250565b60006145f7601483613861565b9150614602826145c1565b602082019050919050565b60006020820190508181036000830152614626816145ea565b9050919050565b7f4e487b7100000000000000000000000000000000000000000000000000000000600052602160045260246000fd5b7f45434453413a20696e76616c6964207369676e61747572650000000000000000600082015250565b6000614692601883613861565b915061469d8261465c565b602082019050919050565b600060208201905081810360008301526146c181614685565b9050919050565b7f45434453413a20696e76616c6964207369676e6174757265206c656e67746800600082015250565b60006146fe601f83613861565b9150614709826146c8565b602082019050919050565b6000602082019050818103600083015261472d816146f1565b9050919050565b7f45434453413a20696e76616c6964207369676e6174757265202773272076616c60008201527f7565000000000000000000000000000000000000000000000000000000000000602082015250565b6000614790602283613861565b915061479b82614734565b604082019050919050565b600060208201905081810360008301526147bf81614783565b9050919050565b7f4e487b7100000000000000000000000000000000000000000000000000000000600052603260045260246000fd5b6000614800826131dc565b9150600082141561481457614813613c4e565b5b600182039050919050565b7f537472696e67733a20686578206c656e67746820696e73756666696369656e74600082015250565b6000614855602083613861565b91506148608261481f565b602082019050919050565b6000602082019050818103600083015261488481614848565b9050919050565b600060a0820190506148a060008301886132b1565b6148ad60208301876132b1565b6148ba60408301866132b1565b6148c760608301856133bf565b6148d460808301846138ab565b9695505050505050565b6148e781613a17565b82525050565b600060808201905061490260008301876132b1565b61490f60208301866148de565b61491c60408301856132b1565b61492960608301846132b1565b9594505050505056fea2646970667358221220af569d8414f57d7314fcecafd0ec3724fdacdfd2fb39ae27b316fdd91c37f46764736f6c63430008090033",
  "immutableReferences": {
    "106": [
      {
        "length": 32,
        "start": 5624
      }
    ],
    "1397": [
      {
        "length": 32,
        "start": 10520
      }
    ],
    "1399": [
      {
        "length": 32,
        "start": 10479
      }
    ],
    "1401": [
      {
        "length": 32,
        "start": 10393
      }
    ],
    "1403": [
      {
        "length": 32,
        "start": 11819
      }
    ],
    "1405": [
      {
        "length": 32,
        "start": 11852
      }
    ],
    "1408": [
      {
        "length": 32,
        "start": 6210
      }
    ],
    "1411": [
      {
        "length": 32,
        "start": 6262
      }
    ]
  },
  "source": "// SPDX-License-Identifier: MIT\r\npragma solidity ^0.8.9;\r\n\r\nimport \"@openzeppelin/contracts/token/ERC20/IERC20.sol\";\r\nimport \"@openzeppelin/contracts/access/IAccessControl.sol\";\r\nimport \"@openzeppelin/contracts/metatx/ERC2771Context.sol\";\r\nimport \"@openzeppelin/contracts/metatx/MinimalForwarder.sol\";\r\nimport \"@openzeppelin/contracts/utils/Strings.sol\";\r\nimport \"@openzeppelin/contracts/utils/introspection/ERC165.sol\";\r\n\r\nabstract contract Pausable is ERC2771Context {\r\n    /**\r\n     * @dev Emitted when the pause is triggered by `account`.\r\n     */\r\n    event Paused(address account);\r\n\r\n    /**\r\n     * @dev Emitted when the pause is lifted by `account`.\r\n     */\r\n    event Unpaused(address account);\r\n\r\n    bool private _paused;\r\n\r\n    /**\r\n     * @dev Initializes the contract in unpaused state.\r\n     */\r\n    constructor() {\r\n        _paused = false;\r\n    }\r\n\r\n    /**\r\n     * @dev Modifier to make a function callable only when the contract is not paused.\r\n     *\r\n     * Requirements:\r\n     *\r\n     * - The contract must not be paused.\r\n     */\r\n    modifier whenNotPaused() {\r\n        _requireNotPaused();\r\n        _;\r\n    }\r\n\r\n    /**\r\n     * @dev Modifier to make a function callable only when the contract is paused.\r\n     *\r\n     * Requirements:\r\n     *\r\n     * - The contract must be paused.\r\n     */\r\n    modifier whenPaused() {\r\n        _requirePaused();\r\n        _;\r\n    }\r\n\r\n    /**\r\n     * @dev Returns true if the contract is paused, and false otherwise.\r\n     */\r\n    function paused() public view virtual returns (bool) {\r\n        return _paused;\r\n    }\r\n\r\n    /**\r\n     * @dev Throws if the contract is paused.\r\n     */\r\n    function _requireNotPaused() internal view virtual {\r\n        require(!paused(), \"Pausable: paused\");\r\n    }\r\n\r\n    /**\r\n     * @dev Throws if the contract is not paused.\r\n     */\r\n    function _requirePaused() internal view virtual {\r\n        require(paused(), \"Pausable: not paused\");\r\n    }\r\n\r\n    /**\r\n     * @dev Triggers stopped state.\r\n     *\r\n     * Requirements:\r\n     *\r\n     * - The contract must not be paused.\r\n     */\r\n    function _pause() internal virtual whenNotPaused {\r\n        _paused = true;\r\n        emit Paused(_msgSender());\r\n    }\r\n\r\n    /**\r\n     * @dev Returns to normal state.\r\n     *\r\n     * Requirements:\r\n     *\r\n     * - The contract must be paused.\r\n     */\r\n    function _unpause() internal virtual whenPaused {\r\n        _paused = false;\r\n        emit Unpaused(_msgSender());\r\n    }\r\n}\r\n\r\n/**\r\n * @dev Contract module that allows children to implement role-based access\r\n * control mechanisms. This is a lightweight version that doesn't allow enumerating role\r\n * members except through off-chain means by accessing the contract event logs. Some\r\n * applications may benefit from on-chain enumerability, for those cases see\r\n * {AccessControlEnumerable}.\r\n *\r\n * Roles are referred to by their `bytes32` identifier. These should be exposed\r\n * in the external API and be unique. The best way to achieve this is by\r\n * using `public constant` hash digests:\r\n *\r\n * ```solidity\r\n * bytes32 public constant MY_ROLE = keccak256(\"MY_ROLE\");\r\n * ```\r\n *\r\n * Roles can be used to represent a set of permissions. To restrict access to a\r\n * function call, use {hasRole}:\r\n *\r\n * ```solidity\r\n * function foo() public {\r\n *     require(hasRole(MY_ROLE, msg.sender));\r\n *     ...\r\n * }\r\n * ```\r\n *\r\n * Roles can be granted and revoked dynamically via the {grantRole} and\r\n * {revokeRole} functions. Each role has an associated admin role, and only\r\n * accounts that have a role's admin role can call {grantRole} and {revokeRole}.\r\n *\r\n * By default, the admin role for all roles is `DEFAULT_ADMIN_ROLE`, which means\r\n * that only accounts with this role will be able to grant or revoke other\r\n * roles. More complex role relationships can be created by using\r\n * {_setRoleAdmin}.\r\n *\r\n * WARNING: The `DEFAULT_ADMIN_ROLE` is also its own admin: it has permission to\r\n * grant and revoke this role. Extra precautions should be taken to secure\r\n * accounts that have been granted it. We recommend using {AccessControlDefaultAdminRules}\r\n * to enforce additional security measures for this role.\r\n */\r\nabstract contract AccessControl is ERC2771Context, IAccessControl, ERC165 {\r\n    struct RoleData {\r\n        mapping(address => bool) members;\r\n        bytes32 adminRole;\r\n    }\r\n\r\n    mapping(bytes32 => RoleData) private _roles;\r\n\r\n    bytes32 public constant DEFAULT_ADMIN_ROLE = 0x00;\r\n\r\n    /**\r\n     * @dev Modifier that checks that an account has a specific role. Reverts\r\n     * with a standardized message including the required role.\r\n     *\r\n     * The format of the revert reason is given by the following regular expression:\r\n     *\r\n     *  /^AccessControl: account (0x[0-9a-f]{40}) is missing role (0x[0-9a-f]{64})$/\r\n     *\r\n     * _Available since v4.1._\r\n     */\r\n    modifier onlyRole(bytes32 role) {\r\n        _checkRole(role);\r\n        _;\r\n    }\r\n\r\n    /**\r\n     * @dev See {IERC165-supportsInterface}.\r\n     */\r\n    function supportsInterface(bytes4 interfaceId) public view virtual override returns (bool) {\r\n        return interfaceId == type(IAccessControl).interfaceId || super.supportsInterface(interfaceId);\r\n    }\r\n\r\n    /**\r\n     * @dev Returns `true` if `account` has been granted `role`.\r\n     */\r\n    function hasRole(bytes32 role, address account) public view virtual override returns (bool) {\r\n        return _roles[role].members[account];\r\n    }\r\n\r\n    /**\r\n     * @dev Revert with a standard message if `_msgSender()` is missing `role`.\r\n     * Overriding this function changes the behavior of the {onlyRole} modifier.\r\n     *\r\n     * Format of the revert message is described in {_checkRole}.\r\n     *\r\n     * _Available since v4.6._\r\n     */\r\n    function _checkRole(bytes32 role) internal view virtual {\r\n        _checkRole(role, _msgSender());\r\n    }\r\n\r\n    /**\r\n     * @dev Revert with a standard message if `account` is missing `role`.\r\n     *\r\n     * The format of the revert reason is given by the following regular expression:\r\n     *\r\n     *  /^AccessControl: account (0x[0-9a-f]{40}) is missing role (0x[0-9a-f]{64})$/\r\n     */\r\n    function _checkRole(bytes32 role, address account) internal view virtual {\r\n        if (!hasRole(role, account)) {\r\n            revert(\r\n                string(\r\n                    abi.encodePacked(\r\n                        \"AccessControl: account \",\r\n                        Strings.toHexString(account),\r\n                        \" is missing role \",\r\n                        Strings.toHexString(uint256(role), 32)\r\n                    )\r\n                )\r\n            );\r\n        }\r\n    }\r\n\r\n    /**\r\n     * @dev Returns the admin role that controls `role`. See {grantRole} and\r\n     * {revokeRole}.\r\n     *\r\n     * To change a role's admin, use {_setRoleAdmin}.\r\n     */\r\n    function getRoleAdmin(bytes32 role) public view virtual override returns (bytes32) {\r\n        return _roles[role].adminRole;\r\n    }\r\n\r\n    /**\r\n     * @dev Grants `role` to `account`.\r\n     *\r\n     * If `account` had not been already granted `role`, emits a {RoleGranted}\r\n     * event.\r\n     *\r\n     * Requirements:\r\n     *\r\n     * - the caller must have ``role``'s admin role.\r\n     *\r\n     * May emit a {RoleGranted} event.\r\n     */\r\n    function grantRole(bytes32 role, address account) public virtual override onlyRole(getRoleAdmin(role)) {\r\n        _grantRole(role, account);\r\n    }\r\n\r\n    /**\r\n     * @dev Revokes `role` from `account`.\r\n     *\r\n     * If `account` had been granted `role`, emits a {RoleRevoked} event.\r\n     *\r\n     * Requirements:\r\n     *\r\n     * - the caller must have ``role``'s admin role.\r\n     *\r\n     * May emit a {RoleRevoked} event.\r\n     */\r\n    function revokeRole(bytes32 role, address account) public virtual override onlyRole(getRoleAdmin(role)) {\r\n        _revokeRole(role, account);\r\n    }\r\n\r\n    /**\r\n     * @dev Revokes `role` from the calling account.\r\n     *\r\n     * Roles are often managed via {grantRole} and {revokeRole}: this function's\r\n     * purpose is to provide a mechanism for accounts to lose their privileges\r\n     * if they are compromised (such as when a trusted device is misplaced).\r\n     *\r\n     * If the calling account had been revoked `role`, emits a {RoleRevoked}\r\n     * event.\r\n     *\r\n     * Requirements:\r\n     *\r\n     * - the caller must be `account`.\r\n     *\r\n     * May emit a {RoleRevoked} event.\r\n     */\r\n    function renounceRole(bytes32 role, address account) public virtual override {\r\n        require(account == _msgSender(), \"AccessControl: can only renounce roles for self\");\r\n\r\n        _revokeRole(role, account);\r\n    }\r\n\r\n    /**\r\n     * @dev Grants `role` to `account`.\r\n     *\r\n     * If `account` had not been already granted `role`, emits a {RoleGranted}\r\n     * event. Note that unlike {grantRole}, this function doesn't perform any\r\n     * checks on the calling account.\r\n     *\r\n     * May emit a {RoleGranted} event.\r\n     *\r\n     * [WARNING]\r\n     * ====\r\n     * This function should only be called from the constructor when setting\r\n     * up the initial roles for the system.\r\n     *\r\n     * Using this function in any other way is effectively circumventing the admin\r\n     * system imposed by {AccessControl}.\r\n     * ====\r\n     *\r\n     * NOTE: This function is deprecated in favor of {_grantRole}.\r\n     */\r\n    function _setupRole(bytes32 role, address account) internal virtual {\r\n        _grantRole(role, account);\r\n    }\r\n\r\n    /**\r\n     * @dev Sets `adminRole` as ``role``'s admin role.\r\n     *\r\n     * Emits a {RoleAdminChanged} event.\r\n     */\r\n    function _setRoleAdmin(bytes32 role, bytes32 adminRole) internal virtual {\r\n        bytes32 previousAdminRole = getRoleAdmin(role);\r\n        _roles[role].adminRole = adminRole;\r\n        emit RoleAdminChanged(role, previousAdminRole, adminRole);\r\n    }\r\n\r\n    /**\r\n     * @dev Grants `role` to `account`.\r\n     *\r\n     * Internal function without access restriction.\r\n     *\r\n     * May emit a {RoleGranted} event.\r\n     */\r\n    function _grantRole(bytes32 role, address account) internal virtual {\r\n        if (!hasRole(role, account)) {\r\n            _roles[role].members[account] = true;\r\n            emit RoleGranted(role, account, _msgSender());\r\n        }\r\n    }\r\n\r\n    /**\r\n     * @dev Revokes `role` from `account`.\r\n     *\r\n     * Internal function without access restriction.\r\n     *\r\n     * May emit a {RoleRevoked} event.\r\n     */\r\n    function _revokeRole(bytes32 role, address account) internal virtual {\r\n        if (hasRole(role, account)) {\r\n            _roles[role].members[account] = false;\r\n            emit RoleRevoked(role, account, _msgSender());\r\n        }\r\n    }\r\n}\r\n\r\n\r\n//registry=0x4A53338c6A1D5C5Afd6Af1cF6fb3351CeB0b98c4\r\n//forwarder=0x7292dCdE3915525981014787138A372cBdB8Cd4F\r\n\r\n/// @custom:security-contact soporte@comunyt.com\r\ncontract EXCHANGE is  Pausable, AccessControl, MinimalForwarder {\r\n\r\n    mapping (string => IERC20) public currency; // solo estables\r\n    mapping (string => IERC20) public security; // solo propiedades\r\n    // las anteriore van a cambio de estas dos\r\n    IERC20 public propiedad;\r\n    IERC20 public usdc;\r\n    //////////\r\n\r\n    mapping (string => uint8) decimals;\r\n\r\n    mapping (string => address) public crowdfounding;// el addres a la que est ligado el security para recibir el dinero\r\n    string[] securitiesListed;\r\n    mapping (address => address) public link; // los address que van a estar linkeados cuando le damos a la whitelist\r\n\r\n    bytes32 public constant PAUSER_ROLE = keccak256(\"PAUSER_ROLE\");\r\n    bytes32 public constant WHITELISTER_ROLE = keccak256(\"WHITELISTER_ROLE\");\r\n    bytes32 public constant PROJECTCREATOR_ROLE = keccak256(\"PROJECTCREATOR_ROLE\");\r\n    bytes32 public constant EXCHANGER_ROLE = keccak256(\"EXCHANGER_ROLE\"); // se lo saque a compra() y ya no lo uso\r\n\r\n\r\n    event ProjectAdded(address indexed whoAdded, address indexed security, uint256 indexed timestamp, string curName, address funds);\r\n    event CurrencyAdded(address indexed whoAdded, address indexed currency, uint256 indexed timestamp, string curName);\r\n    event Trade(address indexed curSender, address indexed secReceiver, uint256 indexed timestamp, uint256 quantity);\r\n    event whiteListed(address indexed curAddr, address indexed secAddr, uint256 indexed timestamp, address whoAdded);\r\n\r\n    constructor(MinimalForwarder forwarder) ERC2771Context(address(forwarder)) payable{\r\n        _grantRole(DEFAULT_ADMIN_ROLE, msg.sender);\r\n        _grantRole(PAUSER_ROLE, msg.sender);\r\n        _grantRole(WHITELISTER_ROLE, msg.sender);\r\n        _grantRole(PROJECTCREATOR_ROLE, msg.sender);\r\n        _grantRole(EXCHANGER_ROLE, msg.sender);\r\n    }\r\n\r\n    function pause() public onlyRole(PAUSER_ROLE) {\r\n        _pause();\r\n    }\r\n\r\n    function unpause() public onlyRole(PAUSER_ROLE) {\r\n        _unpause();\r\n    }\r\n\r\n    function setSecurity(string calldata _name, address _propiedad, address _funds, uint8 _decimals) external onlyRole(PROJECTCREATOR_ROLE) {\r\n        security[_name] = IERC20(_propiedad);\r\n        crowdfounding[_name] = _funds;\r\n        securitiesListed.push(_name);\r\n        decimals[_name] = _decimals;\r\n        emit ProjectAdded(msg.sender, _propiedad, block.timestamp, _name, _funds);\r\n    }\r\n    function setCurrency(string calldata _name, address _addr, uint8 _decimals) external onlyRole(PROJECTCREATOR_ROLE) {\r\n        currency[_name] = IERC20(_addr);\r\n        usdc=IERC20(_addr);// esto de ac no ira\r\n        decimals[_name] = _decimals;\r\n        emit CurrencyAdded(msg.sender, _addr, block.timestamp, _name);\r\n    }\r\n\r\n    // para hacer un whitelist, la persona aade su _link custodio en donde tiene sus usdc\r\n    //_owner es la semicustodial que firma y manda al relayer.\r\n    // el relayer tiene whitelister_role\r\n    function setLink(address _link) external {\r\n        require(link[_link]==address(0x0),\"already registered\");\r\n        address _owner = _msgSender();\r\n        link[_owner]=_link;\r\n        link[_link]=_owner;// no debera hacer falta pero para probar ya que no me tomaba el linkeo\r\n        emit whiteListed(_link, _owner, block.timestamp, _owner);\r\n    }\r\n\r\n    // Misma solucion anterior pero en caso de tener que hacerlo manual\r\n    function setLinkManual(address _link, address _linksemi) external onlyRole(WHITELISTER_ROLE) {\r\n        link[_linksemi]=_link;\r\n        link[_link]=_linksemi;// no debera hacer falta pero para probar ya que no me tomaba el linkeo\r\n        emit whiteListed(_link, _linksemi, block.timestamp, _msgSender());\r\n    }    \r\n\r\n    // moneda=usdc, bonus token, securiry=swf, mdf, cantidad=10, 100 etc.\r\n    // la cantidad mandaarlo en valor de la moneda (currency=Z usdc por ejemplo)\r\n    function comprar(string calldata _currency, string calldata _security, uint256 _amount) external whenNotPaused  returns(bool _success) {\r\n        uint8 decCur = decimals[_currency];\r\n        uint8 decSec = decimals[_security];\r\n        if(decCur == decSec) {\r\n            currency[_currency].transferFrom(link[_msgSender()], crowdfounding[_security], _amount);\r\n            security[_security].transfer(_msgSender(), _amount);\r\n            emit Trade(link[_msgSender()], _msgSender(), block.timestamp, _amount);\r\n            return true;        \r\n        }\r\n        uint8 difDec;\r\n        if(decCur > decSec) {\r\n        //  currency = USDC\r\n        // security = SWF\r\n        // para comprar mando => 1000000 USDC (1 dolar)\r\n        // como => 6 > 2\r\n        // tengo que dar => 1 dolar de swf\r\n        // 1 dolar swf = 100 swf\r\n            difDec = decimals[_currency] - decimals[_security];\r\n            currency[_currency].transferFrom(link[_msgSender()], crowdfounding[_security], _amount);\r\n            _amount = _amount / (10 ** difDec);\r\n            security[_security].transfer(_msgSender(), _amount);      \r\n        } else {\r\n        //  currency = USDC\r\n        // security = SWF\r\n        // para comprar mando => 1000000 USDC (1 dolar)\r\n        // como => 6 < 9\r\n        // tengo que dar => 1 dolar de swf\r\n        // 1 dolar swf = 1000000000 swf\r\n            difDec = decimals[_security] - decimals[_currency];\r\n            currency[_currency].transferFrom(link[_msgSender()], crowdfounding[_security], _amount);\r\n            _amount = _amount * (10 ** difDec);\r\n            security[_security].transfer(_msgSender(), _amount);\r\n        }\r\n        emit Trade(link[_msgSender()], _msgSender(), block.timestamp, _amount);\r\n        return true; \r\n    }\r\n\r\n\r\n\r\n}\r\n",
  "sourcePath": "/home/cryptocris/edIT/tokens/comtok/contracts/EXCHANGE.sol",
  "compiler": {
    "name": "solc",
    "version": "0.8.9+commit.e5eed63a.Emscripten.clang"
  },
  "schemaVersion": "3.4.11",
  "updatedAt": "2023-08-09T18:27:54.132Z",
  "devdoc": {
    "custom:security-contact": "soporte@comunyt.com",
    "kind": "dev",
    "methods": {
      "eip712Domain()": {
        "details": "See {EIP-5267}. _Available since v4.9._"
      },
      "getRoleAdmin(bytes32)": {
        "details": "Returns the admin role that controls `role`. See {grantRole} and {revokeRole}. To change a role's admin, use {_setRoleAdmin}."
      },
      "grantRole(bytes32,address)": {
        "details": "Grants `role` to `account`. If `account` had not been already granted `role`, emits a {RoleGranted} event. Requirements: - the caller must have ``role``'s admin role. May emit a {RoleGranted} event."
      },
      "hasRole(bytes32,address)": {
        "details": "Returns `true` if `account` has been granted `role`."
      },
      "paused()": {
        "details": "Returns true if the contract is paused, and false otherwise."
      },
      "renounceRole(bytes32,address)": {
        "details": "Revokes `role` from the calling account. Roles are often managed via {grantRole} and {revokeRole}: this function's purpose is to provide a mechanism for accounts to lose their privileges if they are compromised (such as when a trusted device is misplaced). If the calling account had been revoked `role`, emits a {RoleRevoked} event. Requirements: - the caller must be `account`. May emit a {RoleRevoked} event."
      },
      "revokeRole(bytes32,address)": {
        "details": "Revokes `role` from `account`. If `account` had been granted `role`, emits a {RoleRevoked} event. Requirements: - the caller must have ``role``'s admin role. May emit a {RoleRevoked} event."
      },
      "supportsInterface(bytes4)": {
        "details": "See {IERC165-supportsInterface}."
      }
    },
    "version": 1
  },
  "userdoc": {
    "kind": "user",
    "methods": {},
    "version": 1
  }
}