{
  "contractName": "MinimalForwarder",
  "abi": [
    {
      "inputs": [],
      "stateMutability": "nonpayable",
      "type": "constructor"
    },
    {
      "inputs": [],
      "name": "InvalidShortString",
      "type": "error"
    },
    {
      "inputs": [
        {
          "internalType": "string",
          "name": "str",
          "type": "string"
        }
      ],
      "name": "StringTooLong",
      "type": "error"
    },
    {
      "anonymous": false,
      "inputs": [],
      "name": "EIP712DomainChanged",
      "type": "event"
    },
    {
      "inputs": [],
      "name": "eip712Domain",
      "outputs": [
        {
          "internalType": "bytes1",
          "name": "fields",
          "type": "bytes1"
        },
        {
          "internalType": "string",
          "name": "name",
          "type": "string"
        },
        {
          "internalType": "string",
          "name": "version",
          "type": "string"
        },
        {
          "internalType": "uint256",
          "name": "chainId",
          "type": "uint256"
        },
        {
          "internalType": "address",
          "name": "verifyingContract",
          "type": "address"
        },
        {
          "internalType": "bytes32",
          "name": "salt",
          "type": "bytes32"
        },
        {
          "internalType": "uint256[]",
          "name": "extensions",
          "type": "uint256[]"
        }
      ],
      "stateMutability": "view",
      "type": "function",
      "constant": true
    },
    {
      "inputs": [
        {
          "internalType": "address",
          "name": "from",
          "type": "address"
        }
      ],
      "name": "getNonce",
      "outputs": [
        {
          "internalType": "uint256",
          "name": "",
          "type": "uint256"
        }
      ],
      "stateMutability": "view",
      "type": "function",
      "constant": true
    },
    {
      "inputs": [
        {
          "components": [
            {
              "internalType": "address",
              "name": "from",
              "type": "address"
            },
            {
              "internalType": "address",
              "name": "to",
              "type": "address"
            },
            {
              "internalType": "uint256",
              "name": "value",
              "type": "uint256"
            },
            {
              "internalType": "uint256",
              "name": "gas",
              "type": "uint256"
            },
            {
              "internalType": "uint256",
              "name": "nonce",
              "type": "uint256"
            },
            {
              "internalType": "bytes",
              "name": "data",
              "type": "bytes"
            }
          ],
          "internalType": "struct MinimalForwarder.ForwardRequest",
          "name": "req",
          "type": "tuple"
        },
        {
          "internalType": "bytes",
          "name": "signature",
          "type": "bytes"
        }
      ],
      "name": "verify",
      "outputs": [
        {
          "internalType": "bool",
          "name": "",
          "type": "bool"
        }
      ],
      "stateMutability": "view",
      "type": "function",
      "constant": true
    },
    {
      "inputs": [
        {
          "components": [
            {
              "internalType": "address",
              "name": "from",
              "type": "address"
            },
            {
              "internalType": "address",
              "name": "to",
              "type": "address"
            },
            {
              "internalType": "uint256",
              "name": "value",
              "type": "uint256"
            },
            {
              "internalType": "uint256",
              "name": "gas",
              "type": "uint256"
            },
            {
              "internalType": "uint256",
              "name": "nonce",
              "type": "uint256"
            },
            {
              "internalType": "bytes",
              "name": "data",
              "type": "bytes"
            }
          ],
          "internalType": "struct MinimalForwarder.ForwardRequest",
          "name": "req",
          "type": "tuple"
        },
        {
          "internalType": "bytes",
          "name": "signature",
          "type": "bytes"
        }
      ],
      "name": "execute",
      "outputs": [
        {
          "internalType": "bool",
          "name": "",
          "type": "bool"
        },
        {
          "internalType": "bytes",
          "name": "",
          "type": "bytes"
        }
      ],
      "stateMutability": "payable",
      "type": "function",
      "payable": true
    }
  ],
  "bytecode": "0x6101606040523480156200001257600080fd5b506040518060400160405280601081526020017f4d696e696d616c466f72776172646572000000000000000000000000000000008152506040518060400160405280600581526020017f302e302e310000000000000000000000000000000000000000000000000000008152506200009a6000836200013f60201b620005cd1790919060201c565b6101208181525050620000bd6001826200013f60201b620005cd1790919060201c565b6101408181525050818051906020012060e08181525050808051906020012061010081815250504660a08181525050620000fc620001a360201b60201c565b608081815250503073ffffffffffffffffffffffffffffffffffffffff1660c08173ffffffffffffffffffffffffffffffffffffffff16815250505050620005db565b600060208351101562000165576200015d836200020060201b60201c565b90506200019d565b826200017c836200026d60201b620006181760201c565b60000190805190602001906200019492919062000277565b5060ff60001b90505b92915050565b60007f8b73c3c69bb8fe3d512ecc4cf759cc79239f7b179b0ffacaa9a75d522b39400f60e051610100514630604051602001620001e5959493929190620003a2565b60405160208183030381529060405280519060200120905090565b600080829050601f815111156200025057826040517f305a27a9000000000000000000000000000000000000000000000000000000008152600401620002479190620004a3565b60405180910390fd5b8051816200025e9062000506565b60001c1760001b915050919050565b6000819050919050565b8280546200028590620005a5565b90600052602060002090601f016020900481019282620002a95760008555620002f5565b82601f10620002c457805160ff1916838001178555620002f5565b82800160010185558215620002f5579182015b82811115620002f4578251825591602001919060010190620002d7565b5b50905062000304919062000308565b5090565b5b808211156200032357600081600090555060010162000309565b5090565b6000819050919050565b6200033c8162000327565b82525050565b6000819050919050565b620003578162000342565b82525050565b600073ffffffffffffffffffffffffffffffffffffffff82169050919050565b60006200038a826200035d565b9050919050565b6200039c816200037d565b82525050565b600060a082019050620003b9600083018862000331565b620003c8602083018762000331565b620003d7604083018662000331565b620003e660608301856200034c565b620003f5608083018462000391565b9695505050505050565b600081519050919050565b600082825260208201905092915050565b60005b838110156200043b5780820151818401526020810190506200041e565b838111156200044b576000848401525b50505050565b6000601f19601f8301169050919050565b60006200046f82620003ff565b6200047b81856200040a565b93506200048d8185602086016200041b565b620004988162000451565b840191505092915050565b60006020820190508181036000830152620004bf818462000462565b905092915050565b600081519050919050565b6000819050602082019050919050565b6000620004f0825162000327565b80915050919050565b600082821b905092915050565b60006200051382620004c7565b826200051f84620004d2565b90506200052c81620004e2565b925060208210156200056f576200056a7fffffffffffffffffffffffffffffffffffffffffffffffffffffffffffffffff83602003600802620004f9565b831692505b5050919050565b7f4e487b7100000000000000000000000000000000000000000000000000000000600052602260045260246000fd5b60006002820490506001821680620005be57607f821691505b60208210811415620005d557620005d462000576565b5b50919050565b60805160a05160c05160e05161010051610120516101405161191262000636600039600061035c0152600061032801526000610b3d01526000610b1c015260006107f3015260006108490152600061087201526119126000f3fe60806040526004361061003f5760003560e01c80632d0335ab1461004457806347153f821461008157806384b0196e146100b2578063bf5d3bdb146100e3575b600080fd5b34801561005057600080fd5b5061006b60048036038101906100669190610d7b565b610120565b6040516100789190610dc1565b60405180910390f35b61009b60048036038101906100969190610e65565b610169565b6040516100a9929190610f95565b60405180910390f35b3480156100be57600080fd5b506100c7610315565b6040516100da979695949392919061113b565b60405180910390f35b3480156100ef57600080fd5b5061010a60048036038101906101059190610e65565b610417565b60405161011791906111bf565b60405180910390f35b6000600260008373ffffffffffffffffffffffffffffffffffffffff1673ffffffffffffffffffffffffffffffffffffffff168152602001908152602001600020549050919050565b60006060610178858585610417565b6101b7576040517f08c379a00000000000000000000000000000000000000000000000000000000081526004016101ae9061124c565b60405180910390fd5b600185608001356101c8919061129b565b600260008760000160208101906101df9190610d7b565b73ffffffffffffffffffffffffffffffffffffffff1673ffffffffffffffffffffffffffffffffffffffff168152602001908152602001600020819055506000808660200160208101906102339190610d7b565b73ffffffffffffffffffffffffffffffffffffffff1687606001358860400135898060a001906102639190611300565b8b60000160208101906102769190610d7b565b604051602001610288939291906113ea565b6040516020818303038152906040526040516102a49190611445565b600060405180830381858888f193505050503d80600081146102e2576040519150601f19603f3d011682016040523d82523d6000602084013e6102e7565b606091505b5091509150603f87606001356102fd919061148b565b5a1161030557fe5b8181935093505050935093915050565b60006060806000806000606061035560007f000000000000000000000000000000000000000000000000000000000000000061062290919063ffffffff16565b61038960017f000000000000000000000000000000000000000000000000000000000000000061062290919063ffffffff16565b46306000801b600067ffffffffffffffff8111156103aa576103a96114bc565b5b6040519080825280602002602001820160405280156103d85781602001602082028036833780820191505090505b507f0f00000000000000000000000000000000000000000000000000000000000000959493929190965096509650965096509650965090919293949596565b60008061052084848080601f016020809104026020016040519081016040528093929190818152602001838380828437600081840152601f19601f820116905080830192505050505050506105127fdd8f4b70b0f4393e889bd39128a30628a78b61816a9eb8199759e7a349657e488860000160208101906104999190610d7b565b8960200160208101906104ac9190610d7b565b8a604001358b606001358c608001358d8060a001906104cb9190611300565b6040516104d99291906114eb565b60405180910390206040516020016104f79796959493929190611504565b604051602081830303815290604052805190602001206106d2565b6106ec90919063ffffffff16565b905084608001356002600087600001602081019061053e9190610d7b565b73ffffffffffffffffffffffffffffffffffffffff1673ffffffffffffffffffffffffffffffffffffffff168152602001908152602001600020541480156105c357508460000160208101906105949190610d7b565b73ffffffffffffffffffffffffffffffffffffffff168173ffffffffffffffffffffffffffffffffffffffff16145b9150509392505050565b60006020835110156105e9576105e283610713565b9050610612565b826105f383610618565b6000019080519060200190610609929190610c70565b5060ff60001b90505b92915050565b6000819050919050565b606060ff60001b831461063f576106388361077b565b90506106cc565b81805461064b906115a2565b80601f0160208091040260200160405190810160405280929190818152602001828054610677906115a2565b80156106c45780601f10610699576101008083540402835291602001916106c4565b820191906000526020600020905b8154815290600101906020018083116106a757829003601f168201915b505050505090505b92915050565b60006106e56106df6107ef565b836108a6565b9050919050565b60008060006106fb85856108e7565b9150915061070881610939565b819250505092915050565b600080829050601f8151111561076057826040517f305a27a900000000000000000000000000000000000000000000000000000000815260040161075791906115d4565b60405180910390fd5b80518161076c90611628565b60001c1760001b915050919050565b6060600061078883610aa7565b90506000602067ffffffffffffffff8111156107a7576107a66114bc565b5b6040519080825280601f01601f1916602001820160405280156107d95781602001600182028036833780820191505090505b5090508181528360208201528092505050919050565b60007f000000000000000000000000000000000000000000000000000000000000000073ffffffffffffffffffffffffffffffffffffffff163073ffffffffffffffffffffffffffffffffffffffff1614801561086b57507f000000000000000000000000000000000000000000000000000000000000000046145b15610898577f000000000000000000000000000000000000000000000000000000000000000090506108a3565b6108a0610af7565b90505b90565b60006040517f190100000000000000000000000000000000000000000000000000000000000081528360028201528260228201526042812091505092915050565b6000806041835114156109295760008060006020860151925060408601519150606086015160001a905061091d87828585610b8d565b94509450505050610932565b60006002915091505b9250929050565b6000600481111561094d5761094c61168f565b5b8160048111156109605761095f61168f565b5b141561096b57610aa4565b6001600481111561097f5761097e61168f565b5b8160048111156109925761099161168f565b5b14156109d3576040517f08c379a00000000000000000000000000000000000000000000000000000000081526004016109ca9061170a565b60405180910390fd5b600260048111156109e7576109e661168f565b5b8160048111156109fa576109f961168f565b5b1415610a3b576040517f08c379a0000000000000000000000000000000000000000000000000000000008152600401610a3290611776565b60405180910390fd5b60036004811115610a4f57610a4e61168f565b5b816004811115610a6257610a6161168f565b5b1415610aa3576040517f08c379a0000000000000000000000000000000000000000000000000000000008152600401610a9a90611808565b60405180910390fd5b5b50565b60008060ff8360001c169050601f811115610aee576040517fb3512b0c00000000000000000000000000000000000000000000000000000000815260040160405180910390fd5b80915050919050565b60007f8b73c3c69bb8fe3d512ecc4cf759cc79239f7b179b0ffacaa9a75d522b39400f7f00000000000000000000000000000000000000000000000000000000000000007f00000000000000000000000000000000000000000000000000000000000000004630604051602001610b72959493929190611828565b60405160208183030381529060405280519060200120905090565b6000807f7fffffffffffffffffffffffffffffff5d576e7357a4501ddfe92f46681b20a08360001c1115610bc8576000600391509150610c67565b600060018787878760405160008152602001604052604051610bed9493929190611897565b6020604051602081039080840390855afa158015610c0f573d6000803e3d6000fd5b505050602060405103519050600073ffffffffffffffffffffffffffffffffffffffff168173ffffffffffffffffffffffffffffffffffffffff161415610c5e57600060019250925050610c67565b80600092509250505b94509492505050565b828054610c7c906115a2565b90600052602060002090601f016020900481019282610c9e5760008555610ce5565b82601f10610cb757805160ff1916838001178555610ce5565b82800160010185558215610ce5579182015b82811115610ce4578251825591602001919060010190610cc9565b5b509050610cf29190610cf6565b5090565b5b80821115610d0f576000816000905550600101610cf7565b5090565b600080fd5b600080fd5b600073ffffffffffffffffffffffffffffffffffffffff82169050919050565b6000610d4882610d1d565b9050919050565b610d5881610d3d565b8114610d6357600080fd5b50565b600081359050610d7581610d4f565b92915050565b600060208284031215610d9157610d90610d13565b5b6000610d9f84828501610d66565b91505092915050565b6000819050919050565b610dbb81610da8565b82525050565b6000602082019050610dd66000830184610db2565b92915050565b600080fd5b600060c08284031215610df757610df6610ddc565b5b81905092915050565b600080fd5b600080fd5b600080fd5b60008083601f840112610e2557610e24610e00565b5b8235905067ffffffffffffffff811115610e4257610e41610e05565b5b602083019150836001820283011115610e5e57610e5d610e0a565b5b9250929050565b600080600060408486031215610e7e57610e7d610d13565b5b600084013567ffffffffffffffff811115610e9c57610e9b610d18565b5b610ea886828701610de1565b935050602084013567ffffffffffffffff811115610ec957610ec8610d18565b5b610ed586828701610e0f565b92509250509250925092565b60008115159050919050565b610ef681610ee1565b82525050565b600081519050919050565b600082825260208201905092915050565b60005b83811015610f36578082015181840152602081019050610f1b565b83811115610f45576000848401525b50505050565b6000601f19601f8301169050919050565b6000610f6782610efc565b610f718185610f07565b9350610f81818560208601610f18565b610f8a81610f4b565b840191505092915050565b6000604082019050610faa6000830185610eed565b8181036020830152610fbc8184610f5c565b90509392505050565b60007fff0000000000000000000000000000000000000000000000000000000000000082169050919050565b610ffa81610fc5565b82525050565b600081519050919050565b600082825260208201905092915050565b600061102782611000565b611031818561100b565b9350611041818560208601610f18565b61104a81610f4b565b840191505092915050565b61105e81610d3d565b82525050565b6000819050919050565b61107781611064565b82525050565b600081519050919050565b600082825260208201905092915050565b6000819050602082019050919050565b6110b281610da8565b82525050565b60006110c483836110a9565b60208301905092915050565b6000602082019050919050565b60006110e88261107d565b6110f28185611088565b93506110fd83611099565b8060005b8381101561112e57815161111588826110b8565b9750611120836110d0565b925050600181019050611101565b5085935050505092915050565b600060e082019050611150600083018a610ff1565b8181036020830152611162818961101c565b90508181036040830152611176818861101c565b90506111856060830187610db2565b6111926080830186611055565b61119f60a083018561106e565b81810360c08301526111b181846110dd565b905098975050505050505050565b60006020820190506111d46000830184610eed565b92915050565b7f4d696e696d616c466f727761726465723a207369676e617475726520646f657360008201527f206e6f74206d6174636820726571756573740000000000000000000000000000602082015250565b600061123660328361100b565b9150611241826111da565b604082019050919050565b6000602082019050818103600083015261126581611229565b9050919050565b7f4e487b7100000000000000000000000000000000000000000000000000000000600052601160045260246000fd5b60006112a682610da8565b91506112b183610da8565b9250827fffffffffffffffffffffffffffffffffffffffffffffffffffffffffffffffff038211156112e6576112e561126c565b5b828201905092915050565b600080fd5b600080fd5b600080fd5b6000808335600160200384360303811261131d5761131c6112f1565b5b80840192508235915067ffffffffffffffff82111561133f5761133e6112f6565b5b60208301925060018202360383131561135b5761135a6112fb565b5b509250929050565b600081905092915050565b82818337600083830152505050565b60006113898385611363565b935061139683858461136e565b82840190509392505050565b60008160601b9050919050565b60006113ba826113a2565b9050919050565b60006113cc826113af565b9050919050565b6113e46113df82610d3d565b6113c1565b82525050565b60006113f782858761137d565b915061140382846113d3565b601482019150819050949350505050565b600061141f82610efc565b6114298185611363565b9350611439818560208601610f18565b80840191505092915050565b60006114518284611414565b915081905092915050565b7f4e487b7100000000000000000000000000000000000000000000000000000000600052601260045260246000fd5b600061149682610da8565b91506114a183610da8565b9250826114b1576114b061145c565b5b828204905092915050565b7f4e487b7100000000000000000000000000000000000000000000000000000000600052604160045260246000fd5b60006114f882848661137d565b91508190509392505050565b600060e082019050611519600083018a61106e565b6115266020830189611055565b6115336040830188611055565b6115406060830187610db2565b61154d6080830186610db2565b61155a60a0830185610db2565b61156760c083018461106e565b98975050505050505050565b7f4e487b7100000000000000000000000000000000000000000000000000000000600052602260045260246000fd5b600060028204905060018216806115ba57607f821691505b602082108114156115ce576115cd611573565b5b50919050565b600060208201905081810360008301526115ee818461101c565b905092915050565b6000819050602082019050919050565b60006116128251611064565b80915050919050565b600082821b905092915050565b600061163382610efc565b8261163d846115f6565b905061164881611606565b92506020821015611688576116837fffffffffffffffffffffffffffffffffffffffffffffffffffffffffffffffff8360200360080261161b565b831692505b5050919050565b7f4e487b7100000000000000000000000000000000000000000000000000000000600052602160045260246000fd5b7f45434453413a20696e76616c6964207369676e61747572650000000000000000600082015250565b60006116f460188361100b565b91506116ff826116be565b602082019050919050565b60006020820190508181036000830152611723816116e7565b9050919050565b7f45434453413a20696e76616c6964207369676e6174757265206c656e67746800600082015250565b6000611760601f8361100b565b915061176b8261172a565b602082019050919050565b6000602082019050818103600083015261178f81611753565b9050919050565b7f45434453413a20696e76616c6964207369676e6174757265202773272076616c60008201527f7565000000000000000000000000000000000000000000000000000000000000602082015250565b60006117f260228361100b565b91506117fd82611796565b604082019050919050565b60006020820190508181036000830152611821816117e5565b9050919050565b600060a08201905061183d600083018861106e565b61184a602083018761106e565b611857604083018661106e565b6118646060830185610db2565b6118716080830184611055565b9695505050505050565b600060ff82169050919050565b6118918161187b565b82525050565b60006080820190506118ac600083018761106e565b6118b96020830186611888565b6118c6604083018561106e565b6118d3606083018461106e565b9594505050505056fea264697066735822122066f5dd3933b647f11ae4523aa6cf0e2b403e5db04ff4762e191fe872a0385b4e64736f6c63430008090033",
  "immutableReferences": {
    "2433": [
      {
        "length": 32,
        "start": 2162
      }
    ],
    "2435": [
      {
        "length": 32,
        "start": 2121
      }
    ],
    "2437": [
      {
        "length": 32,
        "start": 2035
      }
    ],
    "2439": [
      {
        "length": 32,
        "start": 2844
      }
    ],
    "2441": [
      {
        "length": 32,
        "start": 2877
      }
    ],
    "2444": [
      {
        "length": 32,
        "start": 808
      }
    ],
    "2447": [
      {
        "length": 32,
        "start": 860
      }
    ]
  },
  "source": "// SPDX-License-Identifier: MIT\r\n// OpenZeppelin Contracts (last updated v4.9.0) (metatx/MinimalForwarder.sol)\r\n\r\npragma solidity ^0.8.0;\r\n\r\nimport \"@openzeppelin/contracts/utils/cryptography/ECDSA.sol\";\r\nimport \"@openzeppelin/contracts/utils/cryptography/EIP712.sol\";\r\n\r\n/**\r\n * @dev Simple minimal forwarder to be used together with an ERC2771 compatible contract. See {ERC2771Context}.\r\n *\r\n * MinimalForwarder is mainly meant for testing, as it is missing features to be a good production-ready forwarder. This\r\n * contract does not intend to have all the properties that are needed for a sound forwarding system. A fully\r\n * functioning forwarding system with good properties requires more complexity. We suggest you look at other projects\r\n * such as the GSN which do have the goal of building a system like that.\r\n */\r\ncontract MinimalForwarder is EIP712 {\r\n    using ECDSA for bytes32;\r\n\r\n    struct ForwardRequest {\r\n        address from;\r\n        address to;\r\n        uint256 value;\r\n        uint256 gas;\r\n        uint256 nonce;\r\n        bytes data;\r\n    }\r\n\r\n    bytes32 private constant _TYPEHASH =\r\n        keccak256(\"ForwardRequest(address from,address to,uint256 value,uint256 gas,uint256 nonce,bytes data)\");\r\n\r\n    mapping(address => uint256) private _nonces;\r\n\r\n    constructor() EIP712(\"MinimalForwarder\", \"0.0.1\") {}\r\n\r\n    function getNonce(address from) public view returns (uint256) {\r\n        return _nonces[from];\r\n    }\r\n\r\n    function verify(ForwardRequest calldata req, bytes calldata signature) public view returns (bool) {\r\n        address signer = _hashTypedDataV4(\r\n            keccak256(abi.encode(_TYPEHASH, req.from, req.to, req.value, req.gas, req.nonce, keccak256(req.data)))\r\n        ).recover(signature);\r\n        return _nonces[req.from] == req.nonce && signer == req.from;\r\n    }\r\n\r\n    function execute(\r\n        ForwardRequest calldata req,\r\n        bytes calldata signature\r\n    ) public payable returns (bool, bytes memory) {\r\n        require(verify(req, signature), \"MinimalForwarder: signature does not match request\");\r\n        _nonces[req.from] = req.nonce + 1;\r\n\r\n        (bool success, bytes memory returndata) = req.to.call{gas: req.gas, value: req.value}(\r\n            abi.encodePacked(req.data, req.from)\r\n        );\r\n\r\n        // Validate that the relayer has sent enough gas for the call.\r\n        // See https://ronan.eth.limo/blog/ethereum-gas-dangers/\r\n        if (gasleft() <= req.gas / 63) {\r\n            // We explicitly trigger invalid opcode to consume all gas and bubble-up the effects, since\r\n            // neither revert or assert consume all gas since Solidity 0.8.0\r\n            // https://docs.soliditylang.org/en/v0.8.0/control-structures.html#panic-via-assert-and-error-via-require\r\n            /// @solidity memory-safe-assembly\r\n            assembly {\r\n                invalid()\r\n            }\r\n        }\r\n\r\n        return (success, returndata);\r\n    }\r\n}\r\n",
  "sourcePath": "/home/cryptocris/edIT/tokens/comtok/contracts/MinimalForwarder.sol",
  "compiler": {
    "name": "solc",
    "version": "0.8.9+commit.e5eed63a.Emscripten.clang"
  },
  "schemaVersion": "3.4.11",
  "updatedAt": "2023-08-08T03:03:54.189Z",
  "networkType": "ethereum",
  "devdoc": {
    "details": "Simple minimal forwarder to be used together with an ERC2771 compatible contract. See {ERC2771Context}. MinimalForwarder is mainly meant for testing, as it is missing features to be a good production-ready forwarder. This contract does not intend to have all the properties that are needed for a sound forwarding system. A fully functioning forwarding system with good properties requires more complexity. We suggest you look at other projects such as the GSN which do have the goal of building a system like that.",
    "kind": "dev",
    "methods": {
      "eip712Domain()": {
        "details": "See {EIP-5267}. _Available since v4.9._"
      }
    },
    "version": 1
  },
  "userdoc": {
    "kind": "user",
    "methods": {},
    "version": 1
  }
}