{
  "contractName": "SECURITY",
  "abi": [
    {
      "inputs": [
        {
          "internalType": "string",
          "name": "_name",
          "type": "string"
        },
        {
          "internalType": "string",
          "name": "_symbol",
          "type": "string"
        },
        {
          "internalType": "uint256",
          "name": "_supply",
          "type": "uint256"
        },
        {
          "internalType": "string",
          "name": "_IPFS",
          "type": "string"
        },
        {
          "internalType": "bytes32",
          "name": "_contentHash",
          "type": "bytes32"
        },
        {
          "internalType": "bytes32",
          "name": "_PPM",
          "type": "bytes32"
        },
        {
          "internalType": "string",
          "name": "_TermCondition",
          "type": "string"
        }
      ],
      "stateMutability": "payable",
      "type": "constructor",
      "payable": true
    },
    {
      "anonymous": false,
      "inputs": [
        {
          "indexed": true,
          "internalType": "address",
          "name": "owner",
          "type": "address"
        },
        {
          "indexed": true,
          "internalType": "address",
          "name": "spender",
          "type": "address"
        },
        {
          "indexed": false,
          "internalType": "uint256",
          "name": "value",
          "type": "uint256"
        }
      ],
      "name": "Approval",
      "type": "event"
    },
    {
      "anonymous": false,
      "inputs": [
        {
          "indexed": true,
          "internalType": "bytes32",
          "name": "_name",
          "type": "bytes32"
        },
        {
          "indexed": false,
          "internalType": "bytes32",
          "name": "_contentHash",
          "type": "bytes32"
        },
        {
          "indexed": false,
          "internalType": "uint256",
          "name": "_timeStamp",
          "type": "uint256"
        }
      ],
      "name": "DecumentAdded",
      "type": "event"
    },
    {
      "anonymous": false,
      "inputs": [
        {
          "indexed": false,
          "internalType": "address",
          "name": "account",
          "type": "address"
        }
      ],
      "name": "Paused",
      "type": "event"
    },
    {
      "anonymous": false,
      "inputs": [
        {
          "indexed": true,
          "internalType": "bytes32",
          "name": "role",
          "type": "bytes32"
        },
        {
          "indexed": true,
          "internalType": "bytes32",
          "name": "previousAdminRole",
          "type": "bytes32"
        },
        {
          "indexed": true,
          "internalType": "bytes32",
          "name": "newAdminRole",
          "type": "bytes32"
        }
      ],
      "name": "RoleAdminChanged",
      "type": "event"
    },
    {
      "anonymous": false,
      "inputs": [
        {
          "indexed": true,
          "internalType": "bytes32",
          "name": "role",
          "type": "bytes32"
        },
        {
          "indexed": true,
          "internalType": "address",
          "name": "account",
          "type": "address"
        },
        {
          "indexed": true,
          "internalType": "address",
          "name": "sender",
          "type": "address"
        }
      ],
      "name": "RoleGranted",
      "type": "event"
    },
    {
      "anonymous": false,
      "inputs": [
        {
          "indexed": true,
          "internalType": "bytes32",
          "name": "role",
          "type": "bytes32"
        },
        {
          "indexed": true,
          "internalType": "address",
          "name": "account",
          "type": "address"
        },
        {
          "indexed": true,
          "internalType": "address",
          "name": "sender",
          "type": "address"
        }
      ],
      "name": "RoleRevoked",
      "type": "event"
    },
    {
      "anonymous": false,
      "inputs": [
        {
          "indexed": true,
          "internalType": "address",
          "name": "from",
          "type": "address"
        },
        {
          "indexed": true,
          "internalType": "address",
          "name": "to",
          "type": "address"
        },
        {
          "indexed": false,
          "internalType": "uint256",
          "name": "value",
          "type": "uint256"
        }
      ],
      "name": "Transfer",
      "type": "event"
    },
    {
      "anonymous": false,
      "inputs": [
        {
          "indexed": false,
          "internalType": "address",
          "name": "account",
          "type": "address"
        }
      ],
      "name": "Unpaused",
      "type": "event"
    },
    {
      "anonymous": false,
      "inputs": [
        {
          "indexed": true,
          "internalType": "address",
          "name": "_addr",
          "type": "address"
        },
        {
          "indexed": false,
          "internalType": "uint256",
          "name": "_amount",
          "type": "uint256"
        },
        {
          "indexed": false,
          "internalType": "uint256",
          "name": "_timeStamp",
          "type": "uint256"
        }
      ],
      "name": "Whitelisted",
      "type": "event"
    },
    {
      "inputs": [],
      "name": "DEFAULT_ADMIN_ROLE",
      "outputs": [
        {
          "internalType": "bytes32",
          "name": "",
          "type": "bytes32"
        }
      ],
      "stateMutability": "view",
      "type": "function",
      "constant": true
    },
    {
      "inputs": [],
      "name": "EXCHANGE_ROLE",
      "outputs": [
        {
          "internalType": "bytes32",
          "name": "",
          "type": "bytes32"
        }
      ],
      "stateMutability": "view",
      "type": "function",
      "constant": true
    },
    {
      "inputs": [],
      "name": "PAUSER_ROLE",
      "outputs": [
        {
          "internalType": "bytes32",
          "name": "",
          "type": "bytes32"
        }
      ],
      "stateMutability": "view",
      "type": "function",
      "constant": true
    },
    {
      "inputs": [],
      "name": "WHITELISTER_ROLE",
      "outputs": [
        {
          "internalType": "bytes32",
          "name": "",
          "type": "bytes32"
        }
      ],
      "stateMutability": "view",
      "type": "function",
      "constant": true
    },
    {
      "inputs": [
        {
          "internalType": "address",
          "name": "owner",
          "type": "address"
        },
        {
          "internalType": "address",
          "name": "spender",
          "type": "address"
        }
      ],
      "name": "allowance",
      "outputs": [
        {
          "internalType": "uint256",
          "name": "",
          "type": "uint256"
        }
      ],
      "stateMutability": "view",
      "type": "function",
      "constant": true
    },
    {
      "inputs": [
        {
          "internalType": "address",
          "name": "account",
          "type": "address"
        }
      ],
      "name": "balanceOf",
      "outputs": [
        {
          "internalType": "uint256",
          "name": "",
          "type": "uint256"
        }
      ],
      "stateMutability": "view",
      "type": "function",
      "constant": true
    },
    {
      "inputs": [],
      "name": "decimals",
      "outputs": [
        {
          "internalType": "uint8",
          "name": "",
          "type": "uint8"
        }
      ],
      "stateMutability": "view",
      "type": "function",
      "constant": true
    },
    {
      "inputs": [
        {
          "internalType": "address",
          "name": "spender",
          "type": "address"
        },
        {
          "internalType": "uint256",
          "name": "subtractedValue",
          "type": "uint256"
        }
      ],
      "name": "decreaseAllowance",
      "outputs": [
        {
          "internalType": "bool",
          "name": "",
          "type": "bool"
        }
      ],
      "stateMutability": "nonpayable",
      "type": "function"
    },
    {
      "inputs": [
        {
          "internalType": "uint256",
          "name": "",
          "type": "uint256"
        }
      ],
      "name": "document_names",
      "outputs": [
        {
          "internalType": "bytes32",
          "name": "",
          "type": "bytes32"
        }
      ],
      "stateMutability": "view",
      "type": "function",
      "constant": true
    },
    {
      "inputs": [
        {
          "internalType": "bytes32",
          "name": "",
          "type": "bytes32"
        }
      ],
      "name": "documents",
      "outputs": [
        {
          "internalType": "uint256",
          "name": "timeStamp",
          "type": "uint256"
        },
        {
          "internalType": "bytes32",
          "name": "name",
          "type": "bytes32"
        },
        {
          "internalType": "bytes32",
          "name": "contentHash",
          "type": "bytes32"
        },
        {
          "internalType": "string",
          "name": "uri",
          "type": "string"
        }
      ],
      "stateMutability": "view",
      "type": "function",
      "constant": true
    },
    {
      "inputs": [
        {
          "internalType": "bytes32",
          "name": "role",
          "type": "bytes32"
        }
      ],
      "name": "getRoleAdmin",
      "outputs": [
        {
          "internalType": "bytes32",
          "name": "",
          "type": "bytes32"
        }
      ],
      "stateMutability": "view",
      "type": "function",
      "constant": true
    },
    {
      "inputs": [
        {
          "internalType": "bytes32",
          "name": "role",
          "type": "bytes32"
        },
        {
          "internalType": "address",
          "name": "account",
          "type": "address"
        }
      ],
      "name": "grantRole",
      "outputs": [],
      "stateMutability": "nonpayable",
      "type": "function"
    },
    {
      "inputs": [
        {
          "internalType": "bytes32",
          "name": "role",
          "type": "bytes32"
        },
        {
          "internalType": "address",
          "name": "account",
          "type": "address"
        }
      ],
      "name": "hasRole",
      "outputs": [
        {
          "internalType": "bool",
          "name": "",
          "type": "bool"
        }
      ],
      "stateMutability": "view",
      "type": "function",
      "constant": true
    },
    {
      "inputs": [
        {
          "internalType": "address",
          "name": "spender",
          "type": "address"
        },
        {
          "internalType": "uint256",
          "name": "addedValue",
          "type": "uint256"
        }
      ],
      "name": "increaseAllowance",
      "outputs": [
        {
          "internalType": "bool",
          "name": "",
          "type": "bool"
        }
      ],
      "stateMutability": "nonpayable",
      "type": "function"
    },
    {
      "inputs": [],
      "name": "maxMint",
      "outputs": [
        {
          "internalType": "uint256",
          "name": "",
          "type": "uint256"
        }
      ],
      "stateMutability": "view",
      "type": "function",
      "constant": true
    },
    {
      "inputs": [],
      "name": "name",
      "outputs": [
        {
          "internalType": "string",
          "name": "",
          "type": "string"
        }
      ],
      "stateMutability": "view",
      "type": "function",
      "constant": true
    },
    {
      "inputs": [],
      "name": "pause",
      "outputs": [],
      "stateMutability": "nonpayable",
      "type": "function"
    },
    {
      "inputs": [],
      "name": "paused",
      "outputs": [
        {
          "internalType": "bool",
          "name": "",
          "type": "bool"
        }
      ],
      "stateMutability": "view",
      "type": "function",
      "constant": true
    },
    {
      "inputs": [],
      "name": "ppm",
      "outputs": [
        {
          "components": [
            {
              "internalType": "uint256",
              "name": "timeStamp",
              "type": "uint256"
            },
            {
              "internalType": "bytes32",
              "name": "name",
              "type": "bytes32"
            },
            {
              "internalType": "bytes32",
              "name": "contentHash",
              "type": "bytes32"
            },
            {
              "internalType": "string",
              "name": "uri",
              "type": "string"
            }
          ],
          "internalType": "struct SECURITY.Document",
          "name": "contrato",
          "type": "tuple"
        },
        {
          "internalType": "string",
          "name": "TermCondition",
          "type": "string"
        }
      ],
      "stateMutability": "view",
      "type": "function",
      "constant": true
    },
    {
      "inputs": [
        {
          "internalType": "bytes32",
          "name": "role",
          "type": "bytes32"
        },
        {
          "internalType": "address",
          "name": "account",
          "type": "address"
        }
      ],
      "name": "renounceRole",
      "outputs": [],
      "stateMutability": "nonpayable",
      "type": "function"
    },
    {
      "inputs": [
        {
          "internalType": "bytes32",
          "name": "role",
          "type": "bytes32"
        },
        {
          "internalType": "address",
          "name": "account",
          "type": "address"
        }
      ],
      "name": "revokeRole",
      "outputs": [],
      "stateMutability": "nonpayable",
      "type": "function"
    },
    {
      "inputs": [
        {
          "internalType": "bytes4",
          "name": "interfaceId",
          "type": "bytes4"
        }
      ],
      "name": "supportsInterface",
      "outputs": [
        {
          "internalType": "bool",
          "name": "",
          "type": "bool"
        }
      ],
      "stateMutability": "view",
      "type": "function",
      "constant": true
    },
    {
      "inputs": [],
      "name": "symbol",
      "outputs": [
        {
          "internalType": "string",
          "name": "",
          "type": "string"
        }
      ],
      "stateMutability": "view",
      "type": "function",
      "constant": true
    },
    {
      "inputs": [],
      "name": "totalSupply",
      "outputs": [
        {
          "internalType": "uint256",
          "name": "",
          "type": "uint256"
        }
      ],
      "stateMutability": "view",
      "type": "function",
      "constant": true
    },
    {
      "inputs": [],
      "name": "unpause",
      "outputs": [],
      "stateMutability": "nonpayable",
      "type": "function"
    },
    {
      "inputs": [
        {
          "internalType": "address",
          "name": "",
          "type": "address"
        }
      ],
      "name": "whiteList",
      "outputs": [
        {
          "internalType": "uint256",
          "name": "",
          "type": "uint256"
        }
      ],
      "stateMutability": "view",
      "type": "function",
      "constant": true
    },
    {
      "inputs": [
        {
          "internalType": "address",
          "name": "_person",
          "type": "address"
        },
        {
          "internalType": "uint256",
          "name": "_amount",
          "type": "uint256"
        }
      ],
      "name": "whiteListSelf",
      "outputs": [
        {
          "internalType": "uint256",
          "name": "max",
          "type": "uint256"
        }
      ],
      "stateMutability": "nonpayable",
      "type": "function"
    },
    {
      "inputs": [
        {
          "internalType": "address[]",
          "name": "_people",
          "type": "address[]"
        },
        {
          "internalType": "uint256",
          "name": "_amount",
          "type": "uint256"
        }
      ],
      "name": "whiteListBach",
      "outputs": [
        {
          "internalType": "uint256",
          "name": "max",
          "type": "uint256"
        }
      ],
      "stateMutability": "nonpayable",
      "type": "function"
    },
    {
      "inputs": [
        {
          "internalType": "bytes32",
          "name": "_name",
          "type": "bytes32"
        },
        {
          "internalType": "bytes32",
          "name": "_contentHash",
          "type": "bytes32"
        },
        {
          "internalType": "string",
          "name": "_uri",
          "type": "string"
        }
      ],
      "name": "attachDocument",
      "outputs": [],
      "stateMutability": "nonpayable",
      "type": "function"
    },
    {
      "inputs": [
        {
          "internalType": "bytes32",
          "name": "_name",
          "type": "bytes32"
        }
      ],
      "name": "lookupDocument",
      "outputs": [
        {
          "internalType": "string",
          "name": "",
          "type": "string"
        },
        {
          "internalType": "bytes32",
          "name": "",
          "type": "bytes32"
        }
      ],
      "stateMutability": "view",
      "type": "function",
      "constant": true
    },
    {
      "inputs": [
        {
          "internalType": "address",
          "name": "_to",
          "type": "address"
        },
        {
          "internalType": "uint256",
          "name": "_value",
          "type": "uint256"
        }
      ],
      "name": "transfer",
      "outputs": [
        {
          "internalType": "bool",
          "name": "",
          "type": "bool"
        }
      ],
      "stateMutability": "nonpayable",
      "type": "function"
    },
    {
      "inputs": [
        {
          "internalType": "address",
          "name": "_spender",
          "type": "address"
        },
        {
          "internalType": "uint256",
          "name": "_amount",
          "type": "uint256"
        }
      ],
      "name": "approve",
      "outputs": [
        {
          "internalType": "bool",
          "name": "",
          "type": "bool"
        }
      ],
      "stateMutability": "nonpayable",
      "type": "function"
    },
    {
      "inputs": [
        {
          "internalType": "address",
          "name": "_from",
          "type": "address"
        },
        {
          "internalType": "address",
          "name": "_to",
          "type": "address"
        },
        {
          "internalType": "uint256",
          "name": "_value",
          "type": "uint256"
        }
      ],
      "name": "transferFrom",
      "outputs": [
        {
          "internalType": "bool",
          "name": "",
          "type": "bool"
        }
      ],
      "stateMutability": "nonpayable",
      "type": "function"
    },
    {
      "inputs": [
        {
          "internalType": "address",
          "name": "_to",
          "type": "address"
        },
        {
          "internalType": "uint256",
          "name": "_amount",
          "type": "uint256"
        }
      ],
      "name": "mint",
      "outputs": [],
      "stateMutability": "nonpayable",
      "type": "function"
    },
    {
      "inputs": [
        {
          "internalType": "address",
          "name": "_account",
          "type": "address"
        },
        {
          "internalType": "uint256",
          "name": "_amount",
          "type": "uint256"
        }
      ],
      "name": "burn",
      "outputs": [],
      "stateMutability": "nonpayable",
      "type": "function"
    },
    {
      "inputs": [
        {
          "internalType": "address",
          "name": "",
          "type": "address"
        },
        {
          "internalType": "address",
          "name": "_to",
          "type": "address"
        },
        {
          "internalType": "uint256",
          "name": "_quantity",
          "type": "uint256"
        }
      ],
      "name": "checkTransferAllowed",
      "outputs": [
        {
          "internalType": "bytes1",
          "name": "",
          "type": "bytes1"
        }
      ],
      "stateMutability": "view",
      "type": "function",
      "constant": true
    },
    {
      "inputs": [
        {
          "internalType": "address",
          "name": "",
          "type": "address"
        },
        {
          "internalType": "address",
          "name": "_to",
          "type": "address"
        },
        {
          "internalType": "uint256",
          "name": "_quantity",
          "type": "uint256"
        }
      ],
      "name": "checkTransferFromAllowed",
      "outputs": [
        {
          "internalType": "bytes1",
          "name": "",
          "type": "bytes1"
        }
      ],
      "stateMutability": "view",
      "type": "function",
      "constant": true
    },
    {
      "inputs": [
        {
          "internalType": "address",
          "name": "_to",
          "type": "address"
        },
        {
          "internalType": "uint256",
          "name": "_quantity",
          "type": "uint256"
        }
      ],
      "name": "checkMintAllowed",
      "outputs": [
        {
          "internalType": "bytes1",
          "name": "",
          "type": "bytes1"
        }
      ],
      "stateMutability": "view",
      "type": "function",
      "constant": true
    },
    {
      "inputs": [
        {
          "internalType": "address",
          "name": "",
          "type": "address"
        },
        {
          "internalType": "uint256",
          "name": "",
          "type": "uint256"
        }
      ],
      "name": "checkBurnAllowed",
      "outputs": [
        {
          "internalType": "bytes1",
          "name": "",
          "type": "bytes1"
        }
      ],
      "stateMutability": "view",
      "type": "function",
      "constant": true
    }
  ],
  "bytecode": "0x608060405260405162004d9a38038062004d9a8339818101604052810190620000299190620008d4565b8686818181600390805190602001906200004592919062000611565b5080600490805190602001906200005e92919062000611565b5050506000600560006101000a81548160ff021916908315150217905550620000a06000801b620000946200032b60201b60201c565b6200033360201b60201c565b620000e17f65d7a28e3265b37a6474929f336521b332c1681b933f6cb9f3376673440d862a620000d56200032b60201b60201c565b6200033360201b60201c565b50506000429050604051806080016040528082815260200184815260200185815260200186815250600960000160008201518160000155602082015181600101556040820151816002015560608201518160030190805190602001906200014a92919062000611565b5090505081600960040190805190602001906200016992919062000611565b50604051806080016040528082815260200184815260200185815260200186815250600760008581526020019081526020016000206000820151816000015560208201518160010155604082015181600201556060820151816003019080519060200190620001da92919062000611565b50905050600f8390806001815401808255809150506001900390600052602060002001600090919091909150556000620002196200042560201b60201c565b600a62000227919062000b93565b8762000234919062000be4565b9050620002576200024a6200032b60201b60201c565b826200042e60201b60201c565b620002987f8619cecd8b9e095ab43867f5b69d492180450fe862e6b50bfbfb24b75dd84c8a6200028c6200032b60201b60201c565b6200033360201b60201c565b620002d97f28d62fc77014de57a1bbaa8212ff0979fa61ab00d377b4b8d9762048fb419961620002cd6200032b60201b60201c565b6200033360201b60201c565b80600e81905550837f643e9456654cf00ea0785590e0990c46112b8dd7ef0223a6591cff69863dbad086846040516200031492919062000c67565b60405180910390a250505050505050505062000df6565b600033905090565b6200034582826200059c60201b60201c565b620004215760016006600084815260200190815260200160002060000160008373ffffffffffffffffffffffffffffffffffffffff1673ffffffffffffffffffffffffffffffffffffffff16815260200190815260200160002060006101000a81548160ff021916908315150217905550620003c66200032b60201b60201c565b73ffffffffffffffffffffffffffffffffffffffff168173ffffffffffffffffffffffffffffffffffffffff16837f2f8788117e7eff1d82e926ec794901d17c78024a50270940304540a733656f0d60405160405180910390a45b5050565b60006006905090565b600073ffffffffffffffffffffffffffffffffffffffff168273ffffffffffffffffffffffffffffffffffffffff161415620004a1576040517f08c379a0000000000000000000000000000000000000000000000000000000008152600401620004989062000cf5565b60405180910390fd5b620004b5600083836200060760201b60201c565b8060026000828254620004c9919062000d17565b92505081905550806000808473ffffffffffffffffffffffffffffffffffffffff1673ffffffffffffffffffffffffffffffffffffffff168152602001908152602001600020600082825401925050819055508173ffffffffffffffffffffffffffffffffffffffff16600073ffffffffffffffffffffffffffffffffffffffff167fddf252ad1be2c89b69c2b068fc378daa952ba7f163c4a11628f55a4df523b3ef836040516200057c919062000d74565b60405180910390a362000598600083836200060c60201b60201c565b5050565b60006006600084815260200190815260200160002060000160008373ffffffffffffffffffffffffffffffffffffffff1673ffffffffffffffffffffffffffffffffffffffff16815260200190815260200160002060009054906101000a900460ff16905092915050565b505050565b505050565b8280546200061f9062000dc0565b90600052602060002090601f0160209004810192826200064357600085556200068f565b82601f106200065e57805160ff19168380011785556200068f565b828001600101855582156200068f579182015b828111156200068e57825182559160200191906001019062000671565b5b5090506200069e9190620006a2565b5090565b5b80821115620006bd576000816000905550600101620006a3565b5090565b6000604051905090565b600080fd5b600080fd5b600080fd5b600080fd5b6000601f19601f8301169050919050565b7f4e487b7100000000000000000000000000000000000000000000000000000000600052604160045260246000fd5b6200072a82620006df565b810181811067ffffffffffffffff821117156200074c576200074b620006f0565b5b80604052505050565b600062000761620006c1565b90506200076f82826200071f565b919050565b600067ffffffffffffffff821115620007925762000791620006f0565b5b6200079d82620006df565b9050602081019050919050565b60005b83811015620007ca578082015181840152602081019050620007ad565b83811115620007da576000848401525b50505050565b6000620007f7620007f18462000774565b62000755565b905082815260208101848484011115620008165762000815620006da565b5b62000823848285620007aa565b509392505050565b600082601f830112620008435762000842620006d5565b5b815162000855848260208601620007e0565b91505092915050565b6000819050919050565b62000873816200085e565b81146200087f57600080fd5b50565b600081519050620008938162000868565b92915050565b6000819050919050565b620008ae8162000899565b8114620008ba57600080fd5b50565b600081519050620008ce81620008a3565b92915050565b600080600080600080600060e0888a031215620008f657620008f5620006cb565b5b600088015167ffffffffffffffff811115620009175762000916620006d0565b5b620009258a828b016200082b565b975050602088015167ffffffffffffffff811115620009495762000948620006d0565b5b620009578a828b016200082b565b96505060406200096a8a828b0162000882565b955050606088015167ffffffffffffffff8111156200098e576200098d620006d0565b5b6200099c8a828b016200082b565b9450506080620009af8a828b01620008bd565b93505060a0620009c28a828b01620008bd565b92505060c088015167ffffffffffffffff811115620009e657620009e5620006d0565b5b620009f48a828b016200082b565b91505092959891949750929550565b7f4e487b7100000000000000000000000000000000000000000000000000000000600052601160045260246000fd5b60008160011c9050919050565b6000808291508390505b600185111562000a915780860481111562000a695762000a6862000a03565b5b600185161562000a795780820291505b808102905062000a898562000a32565b945062000a49565b94509492505050565b60008262000aac576001905062000b7f565b8162000abc576000905062000b7f565b816001811462000ad5576002811462000ae05762000b16565b600191505062000b7f565b60ff84111562000af55762000af462000a03565b5b8360020a91508482111562000b0f5762000b0e62000a03565b5b5062000b7f565b5060208310610133831016604e8410600b841016171562000b505782820a90508381111562000b4a5762000b4962000a03565b5b62000b7f565b62000b5f848484600162000a3f565b9250905081840481111562000b795762000b7862000a03565b5b81810290505b9392505050565b600060ff82169050919050565b600062000ba0826200085e565b915062000bad8362000b86565b925062000bdc7fffffffffffffffffffffffffffffffffffffffffffffffffffffffffffffffff848462000a9a565b905092915050565b600062000bf1826200085e565b915062000bfe836200085e565b9250817fffffffffffffffffffffffffffffffffffffffffffffffffffffffffffffffff048311821515161562000c3a5762000c3962000a03565b5b828202905092915050565b62000c508162000899565b82525050565b62000c61816200085e565b82525050565b600060408201905062000c7e600083018562000c45565b62000c8d602083018462000c56565b9392505050565b600082825260208201905092915050565b7f45524332303a206d696e7420746f20746865207a65726f206164647265737300600082015250565b600062000cdd601f8362000c94565b915062000cea8262000ca5565b602082019050919050565b6000602082019050818103600083015262000d108162000cce565b9050919050565b600062000d24826200085e565b915062000d31836200085e565b9250827fffffffffffffffffffffffffffffffffffffffffffffffffffffffffffffffff0382111562000d695762000d6862000a03565b5b828201905092915050565b600060208201905062000d8b600083018462000c56565b92915050565b7f4e487b7100000000000000000000000000000000000000000000000000000000600052602260045260246000fd5b6000600282049050600182168062000dd957607f821691505b6020821081141562000df05762000def62000d91565b5b50919050565b613f948062000e066000396000f3fe608060405234801561001057600080fd5b506004361061023d5760003560e01c80635d59f6071161013b5780639e799e58116100b8578063bd799e871161007c578063bd799e8714610742578063cadfff9114610772578063d547741f146107a3578063dd62ed3e146107bf578063e63ab1e9146107ef5761023d565b80639e799e5814610664578063a217fddf14610694578063a457c2d7146106b2578063a87784f1146106e2578063a9059cbb146107125761023d565b80638456cb59116100ff5780638456cb59146105c057806385c3a1aa146105ca57806391d14854146105fa57806395d89b411461062a5780639dc29fac146106485761023d565b80635d59f6071461050757806365ae1322146105375780636eea662c1461055357806370a08231146105725780637501f741146105a25761023d565b8063313ce567116101c95780633d33adfb1161018d5780633d33adfb146104755780633f4ba83a146104a557806340c10f19146104af578063570618e1146104cb5780635c975abb146104e95761023d565b8063313ce567146103bd57806336568abe146103db578063372c12b1146103f757806339509351146104275780633b734501146104575761023d565b806323b872dd1161021057806323b872dd146102de578063248a9ca31461030e578063283ca77c1461033e5780632b2805db1461036e5780632f2ff15d146103a15761023d565b806301ffc9a71461024257806306fdde0314610272578063095ea7b31461029057806318160ddd146102c0575b600080fd5b61025c60048036038101906102579190612a6a565b61080d565b6040516102699190612ab2565b60405180910390f35b61027a610887565b6040516102879190612b66565b60405180910390f35b6102aa60048036038101906102a59190612c1c565b610919565b6040516102b79190612ab2565b60405180910390f35b6102c8610935565b6040516102d59190612c6b565b60405180910390f35b6102f860048036038101906102f39190612c86565b61093f565b6040516103059190612ab2565b60405180910390f35b61032860048036038101906103239190612d0f565b610a3d565b6040516103359190612d4b565b60405180910390f35b61035860048036038101906103539190612c1c565b610a5d565b6040516103659190612da1565b60405180910390f35b61038860048036038101906103839190612d0f565b610afa565b6040516103989493929190612dbc565b60405180910390f35b6103bb60048036038101906103b69190612e08565b610bb2565b005b6103c5610bd3565b6040516103d29190612e64565b60405180910390f35b6103f560048036038101906103f09190612e08565b610bdc565b005b610411600480360381019061040c9190612e7f565b610c5f565b60405161041e9190612c6b565b60405180910390f35b610441600480360381019061043c9190612c1c565b610c77565b60405161044e9190612ab2565b60405180910390f35b61045f610cae565b60405161046c9190612d4b565b60405180910390f35b61048f600480360381019061048a9190612c86565b610cd2565b60405161049c9190612da1565b60405180910390f35b6104ad610d8c565b005b6104c960048036038101906104c49190612c1c565b610dc1565b005b6104d3610e8d565b6040516104e09190612d4b565b60405180910390f35b6104f1610eb1565b6040516104fe9190612ab2565b60405180910390f35b610521600480360381019061051c9190612f11565b610ec8565b60405161052e9190612c6b565b60405180910390f35b610551600480360381019061054c9190612fc7565b610fee565b005b61055b611251565b604051610569929190613106565b60405180910390f35b61058c60048036038101906105879190612e7f565b6113a5565b6040516105999190612c6b565b60405180910390f35b6105aa6113ed565b6040516105b79190612c6b565b60405180910390f35b6105c86113f3565b005b6105e460048036038101906105df9190612c86565b611428565b6040516105f19190612da1565b60405180910390f35b610614600480360381019061060f9190612e08565b6114e2565b6040516106219190612ab2565b60405180910390f35b61063261154d565b60405161063f9190612b66565b60405180910390f35b610662600480360381019061065d9190612c1c565b6115df565b005b61067e60048036038101906106799190612c1c565b6116ab565b60405161068b9190612c6b565b60405180910390f35b61069c61177d565b6040516106a99190612d4b565b60405180910390f35b6106cc60048036038101906106c79190612c1c565b611784565b6040516106d99190612ab2565b60405180910390f35b6106fc60048036038101906106f79190612c1c565b6117fb565b6040516107099190612da1565b60405180910390f35b61072c60048036038101906107279190612c1c565b61180a565b6040516107399190612ab2565b60405180910390f35b61075c6004803603810190610757919061313d565b6118b9565b6040516107699190612d4b565b60405180910390f35b61078c60048036038101906107879190612d0f565b6118dd565b60405161079a92919061316a565b60405180910390f35b6107bd60048036038101906107b89190612e08565b611996565b005b6107d960048036038101906107d4919061319a565b6119b7565b6040516107e69190612c6b565b60405180910390f35b6107f7611a3e565b6040516108049190612d4b565b60405180910390f35b60007f7965db0b000000000000000000000000000000000000000000000000000000007bffffffffffffffffffffffffffffffffffffffffffffffffffffffff1916827bffffffffffffffffffffffffffffffffffffffffffffffffffffffff19161480610880575061087f82611a62565b5b9050919050565b60606003805461089690613209565b80601f01602080910402602001604051908101604052809291908181526020018280546108c290613209565b801561090f5780601f106108e45761010080835404028352916020019161090f565b820191906000526020600020905b8154815290600101906020018083116108f257829003601f168201915b5050505050905090565b6000610923611acc565b61092d8383611b16565b905092915050565b6000600254905090565b6000601160f81b7effffffffffffffffffffffffffffffffffffffffffffffffffffffffffffff1916610973858585610cd2565b7effffffffffffffffffffffffffffffffffffffffffffffffffffffffffffff1916146109d5576040517f08c379a00000000000000000000000000000000000000000000000000000000081526004016109cc90613287565b60405180910390fd5b610a067f28d62fc77014de57a1bbaa8212ff0979fa61ab00d377b4b8d9762048fb419961610a01611b39565b6114e2565b15610a2857610a158483611b41565b610a1f8383611d0f565b60019050610a36565b610a33848484611e66565b90505b9392505050565b600060066000838152602001908152602001600020600101549050919050565b6000600860008473ffffffffffffffffffffffffffffffffffffffff1673ffffffffffffffffffffffffffffffffffffffff1681526020019081526020016000205482610aa9856113a5565b610ab391906132d6565b11610aec57600e5482610ac4610935565b610ace91906132d6565b1115610ae057601060f81b9050610af4565b601160f81b9050610af4565b601060f81b90505b92915050565b6007602052806000526040600020600091509050806000015490806001015490806002015490806003018054610b2f90613209565b80601f0160208091040260200160405190810160405280929190818152602001828054610b5b90613209565b8015610ba85780601f10610b7d57610100808354040283529160200191610ba8565b820191906000526020600020905b815481529060010190602001808311610b8b57829003601f168201915b5050505050905084565b610bbb82610a3d565b610bc481611e95565b610bce8383611ea9565b505050565b60006006905090565b610be4611b39565b73ffffffffffffffffffffffffffffffffffffffff168173ffffffffffffffffffffffffffffffffffffffff1614610c51576040517f08c379a0000000000000000000000000000000000000000000000000000000008152600401610c489061339e565b60405180910390fd5b610c5b8282611f8a565b5050565b60086020528060005260406000206000915090505481565b600080610c82611b39565b9050610ca3818585610c9485896119b7565b610c9e91906132d6565b61206c565b600191505092915050565b7f28d62fc77014de57a1bbaa8212ff0979fa61ab00d377b4b8d9762048fb41996181565b600080610cdd611b39565b9050610d097f28d62fc77014de57a1bbaa8212ff0979fa61ab00d377b4b8d9762048fb419961826114e2565b610d1657610d15611acc565b5b600860008573ffffffffffffffffffffffffffffffffffffffff1673ffffffffffffffffffffffffffffffffffffffff1681526020019081526020016000205483610d60866113a5565b610d6a91906132d6565b11610d7c57601160f81b915050610d85565b601060f81b9150505b9392505050565b7f65d7a28e3265b37a6474929f336521b332c1681b933f6cb9f3376673440d862a610db681611e95565b610dbe612237565b50565b7f28d62fc77014de57a1bbaa8212ff0979fa61ab00d377b4b8d9762048fb419961610deb81611e95565b601160f81b7effffffffffffffffffffffffffffffffffffffffffffffffffffffffffffff1916610e1c8484610a5d565b7effffffffffffffffffffffffffffffffffffffffffffffffffffffffffffff191614610e7e576040517f08c379a0000000000000000000000000000000000000000000000000000000008152600401610e759061340a565b60405180910390fd5b610e888383611d0f565b505050565b7f8619cecd8b9e095ab43867f5b69d492180450fe862e6b50bfbfb24b75dd84c8a81565b6000600560009054906101000a900460ff16905090565b6000610ed2611acc565b7f8619cecd8b9e095ab43867f5b69d492180450fe862e6b50bfbfb24b75dd84c8a610efc81611e95565b6000858590509050600042905060005b60008314610fe057828060019003935050878784818110610f3057610f2f61342a565b5b9050602002016020810190610f459190612e7f565b905085600860008373ffffffffffffffffffffffffffffffffffffffff1673ffffffffffffffffffffffffffffffffffffffff168152602001908152602001600020819055508073ffffffffffffffffffffffffffffffffffffffff167f1b2d5773afec568c98779f6b1382306a08df138d18b1118d2ec11fece4d1e8b58784604051610fd3929190613459565b60405180910390a2610f0c565b859450505050509392505050565b6000801b610ffb81611e95565b6000602060ff161415611043576040517f08c379a000000000000000000000000000000000000000000000000000000000815260040161103a906134ce565b60405180910390fd5b6000602060ff16141561108b576040517f08c379a00000000000000000000000000000000000000000000000000000000081526004016110829061353a565b60405180910390fd5b60008383905014156110d2576040517f08c379a00000000000000000000000000000000000000000000000000000000081526004016110c9906135a6565b60405180910390fd5b600060076000878152602001908152602001600020600001541461112b576040517f08c379a000000000000000000000000000000000000000000000000000000000815260040161112290613612565b60405180910390fd5b6000429050604051806080016040528082815260200187815260200186815260200185858080601f016020809104026020016040519081016040528093929190818152602001838380828437600081840152601f19601f820116905080830192505050505050508152506007600088815260200190815260200160002060008201518160000155602082015181600101556040820151816002015560608201518160030190805190602001906111e2929190612965565b50905050600f869080600181540180825580915050600190039060005260206000200160009091909190915055857f643e9456654cf00ea0785590e0990c46112b8dd7ef0223a6591cff69863dbad08683604051611241929190613632565b60405180910390a2505050505050565b60098060000160405180608001604052908160008201548152602001600182015481526020016002820154815260200160038201805461129090613209565b80601f01602080910402602001604051908101604052809291908181526020018280546112bc90613209565b80156113095780601f106112de57610100808354040283529160200191611309565b820191906000526020600020905b8154815290600101906020018083116112ec57829003601f168201915b5050505050815250509080600401805461132290613209565b80601f016020809104026020016040519081016040528092919081815260200182805461134e90613209565b801561139b5780601f106113705761010080835404028352916020019161139b565b820191906000526020600020905b81548152906001019060200180831161137e57829003601f168201915b5050505050905082565b60008060008373ffffffffffffffffffffffffffffffffffffffff1673ffffffffffffffffffffffffffffffffffffffff168152602001908152602001600020549050919050565b600e5481565b7f65d7a28e3265b37a6474929f336521b332c1681b933f6cb9f3376673440d862a61141d81611e95565b61142561229a565b50565b600080611433611b39565b905061145f7f28d62fc77014de57a1bbaa8212ff0979fa61ab00d377b4b8d9762048fb419961826114e2565b61146c5761146b611acc565b5b600860008573ffffffffffffffffffffffffffffffffffffffff1673ffffffffffffffffffffffffffffffffffffffff16815260200190815260200160002054836114b6866113a5565b6114c091906132d6565b116114d257601160f81b9150506114db565b601060f81b9150505b9392505050565b60006006600084815260200190815260200160002060000160008373ffffffffffffffffffffffffffffffffffffffff1673ffffffffffffffffffffffffffffffffffffffff16815260200190815260200160002060009054906101000a900460ff16905092915050565b60606004805461155c90613209565b80601f016020809104026020016040519081016040528092919081815260200182805461158890613209565b80156115d55780601f106115aa576101008083540402835291602001916115d5565b820191906000526020600020905b8154815290600101906020018083116115b857829003601f168201915b5050505050905090565b7f28d62fc77014de57a1bbaa8212ff0979fa61ab00d377b4b8d9762048fb41996161160981611e95565b601160f81b7effffffffffffffffffffffffffffffffffffffffffffffffffffffffffffff191661163a84846117fb565b7effffffffffffffffffffffffffffffffffffffffffffffffffffffffffffff19161461169c576040517f08c379a0000000000000000000000000000000000000000000000000000000008152600401611693906136a7565b60405180910390fd5b6116a68383611b41565b505050565b60006116b5611acc565b7f8619cecd8b9e095ab43867f5b69d492180450fe862e6b50bfbfb24b75dd84c8a6116df81611e95565b82600860008673ffffffffffffffffffffffffffffffffffffffff1673ffffffffffffffffffffffffffffffffffffffff168152602001908152602001600020819055508373ffffffffffffffffffffffffffffffffffffffff167f1b2d5773afec568c98779f6b1382306a08df138d18b1118d2ec11fece4d1e8b5844260405161176b929190613459565b60405180910390a28291505092915050565b6000801b81565b60008061178f611b39565b9050600061179d82866119b7565b9050838110156117e2576040517f08c379a00000000000000000000000000000000000000000000000000000000081526004016117d990613739565b60405180910390fd5b6117ef828686840361206c565b60019250505092915050565b6000601160f81b905092915050565b6000601160f81b7effffffffffffffffffffffffffffffffffffffffffffffffffffffffffffff191661184561183e611b39565b8585611428565b7effffffffffffffffffffffffffffffffffffffffffffffffffffffffffffff1916146118a7576040517f08c379a000000000000000000000000000000000000000000000000000000000815260040161189e90613287565b60405180910390fd5b6118b183836122fd565b905092915050565b600f81815481106118c957600080fd5b906000526020600020016000915090505481565b606060008060076000858152602001908152602001600020905080600301816002015481805461190c90613209565b80601f016020809104026020016040519081016040528092919081815260200182805461193890613209565b80156119855780601f1061195a57610100808354040283529160200191611985565b820191906000526020600020905b81548152906001019060200180831161196857829003601f168201915b505050505091509250925050915091565b61199f82610a3d565b6119a881611e95565b6119b28383611f8a565b505050565b6000600160008473ffffffffffffffffffffffffffffffffffffffff1673ffffffffffffffffffffffffffffffffffffffff16815260200190815260200160002060008373ffffffffffffffffffffffffffffffffffffffff1673ffffffffffffffffffffffffffffffffffffffff16815260200190815260200160002054905092915050565b7f65d7a28e3265b37a6474929f336521b332c1681b933f6cb9f3376673440d862a81565b60007f01ffc9a7000000000000000000000000000000000000000000000000000000007bffffffffffffffffffffffffffffffffffffffffffffffffffffffff1916827bffffffffffffffffffffffffffffffffffffffffffffffffffffffff1916149050919050565b611ad4610eb1565b15611b14576040517f08c379a0000000000000000000000000000000000000000000000000000000008152600401611b0b906137a5565b60405180910390fd5b565b600080611b21611b39565b9050611b2e81858561206c565b600191505092915050565b600033905090565b600073ffffffffffffffffffffffffffffffffffffffff168273ffffffffffffffffffffffffffffffffffffffff161415611bb1576040517f08c379a0000000000000000000000000000000000000000000000000000000008152600401611ba890613837565b60405180910390fd5b611bbd82600083612320565b60008060008473ffffffffffffffffffffffffffffffffffffffff1673ffffffffffffffffffffffffffffffffffffffff16815260200190815260200160002054905081811015611c43576040517f08c379a0000000000000000000000000000000000000000000000000000000008152600401611c3a906138c9565b60405180910390fd5b8181036000808573ffffffffffffffffffffffffffffffffffffffff1673ffffffffffffffffffffffffffffffffffffffff1681526020019081526020016000208190555081600260008282540392505081905550600073ffffffffffffffffffffffffffffffffffffffff168373ffffffffffffffffffffffffffffffffffffffff167fddf252ad1be2c89b69c2b068fc378daa952ba7f163c4a11628f55a4df523b3ef84604051611cf69190612c6b565b60405180910390a3611d0a83600084612325565b505050565b600073ffffffffffffffffffffffffffffffffffffffff168273ffffffffffffffffffffffffffffffffffffffff161415611d7f576040517f08c379a0000000000000000000000000000000000000000000000000000000008152600401611d7690613935565b60405180910390fd5b611d8b60008383612320565b8060026000828254611d9d91906132d6565b92505081905550806000808473ffffffffffffffffffffffffffffffffffffffff1673ffffffffffffffffffffffffffffffffffffffff168152602001908152602001600020600082825401925050819055508173ffffffffffffffffffffffffffffffffffffffff16600073ffffffffffffffffffffffffffffffffffffffff167fddf252ad1be2c89b69c2b068fc378daa952ba7f163c4a11628f55a4df523b3ef83604051611e4e9190612c6b565b60405180910390a3611e6260008383612325565b5050565b600080611e71611b39565b9050611e7e85828561232a565b611e898585856123b6565b60019150509392505050565b611ea681611ea1611b39565b61262e565b50565b611eb382826114e2565b611f865760016006600084815260200190815260200160002060000160008373ffffffffffffffffffffffffffffffffffffffff1673ffffffffffffffffffffffffffffffffffffffff16815260200190815260200160002060006101000a81548160ff021916908315150217905550611f2b611b39565b73ffffffffffffffffffffffffffffffffffffffff168173ffffffffffffffffffffffffffffffffffffffff16837f2f8788117e7eff1d82e926ec794901d17c78024a50270940304540a733656f0d60405160405180910390a45b5050565b611f9482826114e2565b156120685760006006600084815260200190815260200160002060000160008373ffffffffffffffffffffffffffffffffffffffff1673ffffffffffffffffffffffffffffffffffffffff16815260200190815260200160002060006101000a81548160ff02191690831515021790555061200d611b39565b73ffffffffffffffffffffffffffffffffffffffff168173ffffffffffffffffffffffffffffffffffffffff16837ff6391f5c32d9c69d2a47ea670b442974b53935d1edc7fd64eb21e047a839171b60405160405180910390a45b5050565b600073ffffffffffffffffffffffffffffffffffffffff168373ffffffffffffffffffffffffffffffffffffffff1614156120dc576040517f08c379a00000000000000000000000000000000000000000000000000000000081526004016120d3906139c7565b60405180910390fd5b600073ffffffffffffffffffffffffffffffffffffffff168273ffffffffffffffffffffffffffffffffffffffff16141561214c576040517f08c379a000000000000000000000000000000000000000000000000000000000815260040161214390613a59565b60405180910390fd5b80600160008573ffffffffffffffffffffffffffffffffffffffff1673ffffffffffffffffffffffffffffffffffffffff16815260200190815260200160002060008473ffffffffffffffffffffffffffffffffffffffff1673ffffffffffffffffffffffffffffffffffffffff168152602001908152602001600020819055508173ffffffffffffffffffffffffffffffffffffffff168373ffffffffffffffffffffffffffffffffffffffff167f8c5be1e5ebec7d5bd14f71427d1e84f3dd0314c0f7b2291e5b200ac8c7c3b9258360405161222a9190612c6b565b60405180910390a3505050565b61223f6126b3565b6000600560006101000a81548160ff0219169083151502179055507f5db9ee0a495bf2e6ff9c91a7834c1ba4fdd244a5e8aa4e537bd38aeae4b073aa612283611b39565b6040516122909190613a88565b60405180910390a1565b6122a2611acc565b6001600560006101000a81548160ff0219169083151502179055507f62e78cea01bee320cd4e420270b5ea74000d11b0c9f74754ebdbfc544b05a2586122e6611b39565b6040516122f39190613a88565b60405180910390a1565b600080612308611b39565b90506123158185856123b6565b600191505092915050565b505050565b505050565b600061233684846119b7565b90507fffffffffffffffffffffffffffffffffffffffffffffffffffffffffffffffff81146123b057818110156123a2576040517f08c379a000000000000000000000000000000000000000000000000000000000815260040161239990613aef565b60405180910390fd5b6123af848484840361206c565b5b50505050565b600073ffffffffffffffffffffffffffffffffffffffff168373ffffffffffffffffffffffffffffffffffffffff161415612426576040517f08c379a000000000000000000000000000000000000000000000000000000000815260040161241d90613b81565b60405180910390fd5b600073ffffffffffffffffffffffffffffffffffffffff168273ffffffffffffffffffffffffffffffffffffffff161415612496576040517f08c379a000000000000000000000000000000000000000000000000000000000815260040161248d90613c13565b60405180910390fd5b6124a1838383612320565b60008060008573ffffffffffffffffffffffffffffffffffffffff1673ffffffffffffffffffffffffffffffffffffffff16815260200190815260200160002054905081811015612527576040517f08c379a000000000000000000000000000000000000000000000000000000000815260040161251e90613ca5565b60405180910390fd5b8181036000808673ffffffffffffffffffffffffffffffffffffffff1673ffffffffffffffffffffffffffffffffffffffff16815260200190815260200160002081905550816000808573ffffffffffffffffffffffffffffffffffffffff1673ffffffffffffffffffffffffffffffffffffffff168152602001908152602001600020600082825401925050819055508273ffffffffffffffffffffffffffffffffffffffff168473ffffffffffffffffffffffffffffffffffffffff167fddf252ad1be2c89b69c2b068fc378daa952ba7f163c4a11628f55a4df523b3ef846040516126159190612c6b565b60405180910390a3612628848484612325565b50505050565b61263882826114e2565b6126af57612645816126fc565b6126538360001c6020612729565b604051602001612664929190613d99565b6040516020818303038152906040526040517f08c379a00000000000000000000000000000000000000000000000000000000081526004016126a69190612b66565b60405180910390fd5b5050565b6126bb610eb1565b6126fa576040517f08c379a00000000000000000000000000000000000000000000000000000000081526004016126f190613e1f565b60405180910390fd5b565b60606127228273ffffffffffffffffffffffffffffffffffffffff16601460ff16612729565b9050919050565b60606000600283600261273c9190613e3f565b61274691906132d6565b67ffffffffffffffff81111561275f5761275e613e99565b5b6040519080825280601f01601f1916602001820160405280156127915781602001600182028036833780820191505090505b5090507f3000000000000000000000000000000000000000000000000000000000000000816000815181106127c9576127c861342a565b5b60200101907effffffffffffffffffffffffffffffffffffffffffffffffffffffffffffff1916908160001a9053507f78000000000000000000000000000000000000000000000000000000000000008160018151811061282d5761282c61342a565b5b60200101907effffffffffffffffffffffffffffffffffffffffffffffffffffffffffffff1916908160001a9053506000600184600261286d9190613e3f565b61287791906132d6565b90505b6001811115612917577f3031323334353637383961626364656600000000000000000000000000000000600f8616601081106128b9576128b861342a565b5b1a60f81b8282815181106128d0576128cf61342a565b5b60200101907effffffffffffffffffffffffffffffffffffffffffffffffffffffffffffff1916908160001a905350600485901c94508061291090613ec8565b905061287a565b506000841461295b576040517f08c379a000000000000000000000000000000000000000000000000000000000815260040161295290613f3e565b60405180910390fd5b8091505092915050565b82805461297190613209565b90600052602060002090601f01602090048101928261299357600085556129da565b82601f106129ac57805160ff19168380011785556129da565b828001600101855582156129da579182015b828111156129d95782518255916020019190600101906129be565b5b5090506129e791906129eb565b5090565b5b80821115612a045760008160009055506001016129ec565b5090565b600080fd5b600080fd5b60007fffffffff0000000000000000000000000000000000000000000000000000000082169050919050565b612a4781612a12565b8114612a5257600080fd5b50565b600081359050612a6481612a3e565b92915050565b600060208284031215612a8057612a7f612a08565b5b6000612a8e84828501612a55565b91505092915050565b60008115159050919050565b612aac81612a97565b82525050565b6000602082019050612ac76000830184612aa3565b92915050565b600081519050919050565b600082825260208201905092915050565b60005b83811015612b07578082015181840152602081019050612aec565b83811115612b16576000848401525b50505050565b6000601f19601f8301169050919050565b6000612b3882612acd565b612b428185612ad8565b9350612b52818560208601612ae9565b612b5b81612b1c565b840191505092915050565b60006020820190508181036000830152612b808184612b2d565b905092915050565b600073ffffffffffffffffffffffffffffffffffffffff82169050919050565b6000612bb382612b88565b9050919050565b612bc381612ba8565b8114612bce57600080fd5b50565b600081359050612be081612bba565b92915050565b6000819050919050565b612bf981612be6565b8114612c0457600080fd5b50565b600081359050612c1681612bf0565b92915050565b60008060408385031215612c3357612c32612a08565b5b6000612c4185828601612bd1565b9250506020612c5285828601612c07565b9150509250929050565b612c6581612be6565b82525050565b6000602082019050612c806000830184612c5c565b92915050565b600080600060608486031215612c9f57612c9e612a08565b5b6000612cad86828701612bd1565b9350506020612cbe86828701612bd1565b9250506040612ccf86828701612c07565b9150509250925092565b6000819050919050565b612cec81612cd9565b8114612cf757600080fd5b50565b600081359050612d0981612ce3565b92915050565b600060208284031215612d2557612d24612a08565b5b6000612d3384828501612cfa565b91505092915050565b612d4581612cd9565b82525050565b6000602082019050612d606000830184612d3c565b92915050565b60007fff0000000000000000000000000000000000000000000000000000000000000082169050919050565b612d9b81612d66565b82525050565b6000602082019050612db66000830184612d92565b92915050565b6000608082019050612dd16000830187612c5c565b612dde6020830186612d3c565b612deb6040830185612d3c565b8181036060830152612dfd8184612b2d565b905095945050505050565b60008060408385031215612e1f57612e1e612a08565b5b6000612e2d85828601612cfa565b9250506020612e3e85828601612bd1565b9150509250929050565b600060ff82169050919050565b612e5e81612e48565b82525050565b6000602082019050612e796000830184612e55565b92915050565b600060208284031215612e9557612e94612a08565b5b6000612ea384828501612bd1565b91505092915050565b600080fd5b600080fd5b600080fd5b60008083601f840112612ed157612ed0612eac565b5b8235905067ffffffffffffffff811115612eee57612eed612eb1565b5b602083019150836020820283011115612f0a57612f09612eb6565b5b9250929050565b600080600060408486031215612f2a57612f29612a08565b5b600084013567ffffffffffffffff811115612f4857612f47612a0d565b5b612f5486828701612ebb565b93509350506020612f6786828701612c07565b9150509250925092565b60008083601f840112612f8757612f86612eac565b5b8235905067ffffffffffffffff811115612fa457612fa3612eb1565b5b602083019150836001820283011115612fc057612fbf612eb6565b5b9250929050565b60008060008060608587031215612fe157612fe0612a08565b5b6000612fef87828801612cfa565b945050602061300087828801612cfa565b935050604085013567ffffffffffffffff81111561302157613020612a0d565b5b61302d87828801612f71565b925092505092959194509250565b61304481612be6565b82525050565b61305381612cd9565b82525050565b600082825260208201905092915050565b600061307582612acd565b61307f8185613059565b935061308f818560208601612ae9565b61309881612b1c565b840191505092915050565b60006080830160008301516130bb600086018261303b565b5060208301516130ce602086018261304a565b5060408301516130e1604086018261304a565b50606083015184820360608601526130f9828261306a565b9150508091505092915050565b6000604082019050818103600083015261312081856130a3565b905081810360208301526131348184612b2d565b90509392505050565b60006020828403121561315357613152612a08565b5b600061316184828501612c07565b91505092915050565b600060408201905081810360008301526131848185612b2d565b90506131936020830184612d3c565b9392505050565b600080604083850312156131b1576131b0612a08565b5b60006131bf85828601612bd1565b92505060206131d085828601612bd1565b9150509250929050565b7f4e487b7100000000000000000000000000000000000000000000000000000000600052602260045260246000fd5b6000600282049050600182168061322157607f821691505b60208210811415613235576132346131da565b5b50919050565b7f7472616e73666572206e6f7420616c6c6f776564000000000000000000000000600082015250565b6000613271601483612ad8565b915061327c8261323b565b602082019050919050565b600060208201905081810360008301526132a081613264565b9050919050565b7f4e487b7100000000000000000000000000000000000000000000000000000000600052601160045260246000fd5b60006132e182612be6565b91506132ec83612be6565b9250827fffffffffffffffffffffffffffffffffffffffffffffffffffffffffffffffff03821115613321576133206132a7565b5b828201905092915050565b7f416363657373436f6e74726f6c3a2063616e206f6e6c792072656e6f756e636560008201527f20726f6c657320666f722073656c660000000000000000000000000000000000602082015250565b6000613388602f83612ad8565b91506133938261332c565b604082019050919050565b600060208201905081810360008301526133b78161337b565b9050919050565b7f6d696e74206e6f7420616c6c6f77656400000000000000000000000000000000600082015250565b60006133f4601083612ad8565b91506133ff826133be565b602082019050919050565b60006020820190508181036000830152613423816133e7565b9050919050565b7f4e487b7100000000000000000000000000000000000000000000000000000000600052603260045260246000fd5b600060408201905061346e6000830185612c5c565b61347b6020830184612c5c565b9392505050565b7f6e616d65206d757374206e6f7420626520656d70747900000000000000000000600082015250565b60006134b8601683612ad8565b91506134c382613482565b602082019050919050565b600060208201905081810360008301526134e7816134ab565b9050919050565b7f4d697373696e6720686173682c205348412d31207265636f6d656e6465640000600082015250565b6000613524601e83612ad8565b915061352f826134ee565b602082019050919050565b6000602082019050818103600083015261355381613517565b9050919050565b7f65787465726e616c20555249206d757374206e6f7420626520656d7074790000600082015250565b6000613590601e83612ad8565b915061359b8261355a565b602082019050919050565b600060208201905081810360008301526135bf81613583565b9050919050565b7f4e616d6520616c72656164792065786973747300000000000000000000000000600082015250565b60006135fc601383612ad8565b9150613607826135c6565b602082019050919050565b6000602082019050818103600083015261362b816135ef565b9050919050565b60006040820190506136476000830185612d3c565b6136546020830184612c5c565b9392505050565b7f6275726e206e6f7420616c6c6f77656400000000000000000000000000000000600082015250565b6000613691601083612ad8565b915061369c8261365b565b602082019050919050565b600060208201905081810360008301526136c081613684565b9050919050565b7f45524332303a2064656372656173656420616c6c6f77616e63652062656c6f7760008201527f207a65726f000000000000000000000000000000000000000000000000000000602082015250565b6000613723602583612ad8565b915061372e826136c7565b604082019050919050565b6000602082019050818103600083015261375281613716565b9050919050565b7f5061757361626c653a2070617573656400000000000000000000000000000000600082015250565b600061378f601083612ad8565b915061379a82613759565b602082019050919050565b600060208201905081810360008301526137be81613782565b9050919050565b7f45524332303a206275726e2066726f6d20746865207a65726f2061646472657360008201527f7300000000000000000000000000000000000000000000000000000000000000602082015250565b6000613821602183612ad8565b915061382c826137c5565b604082019050919050565b6000602082019050818103600083015261385081613814565b9050919050565b7f45524332303a206275726e20616d6f756e7420657863656564732062616c616e60008201527f6365000000000000000000000000000000000000000000000000000000000000602082015250565b60006138b3602283612ad8565b91506138be82613857565b604082019050919050565b600060208201905081810360008301526138e2816138a6565b9050919050565b7f45524332303a206d696e7420746f20746865207a65726f206164647265737300600082015250565b600061391f601f83612ad8565b915061392a826138e9565b602082019050919050565b6000602082019050818103600083015261394e81613912565b9050919050565b7f45524332303a20617070726f76652066726f6d20746865207a65726f2061646460008201527f7265737300000000000000000000000000000000000000000000000000000000602082015250565b60006139b1602483612ad8565b91506139bc82613955565b604082019050919050565b600060208201905081810360008301526139e0816139a4565b9050919050565b7f45524332303a20617070726f766520746f20746865207a65726f20616464726560008201527f7373000000000000000000000000000000000000000000000000000000000000602082015250565b6000613a43602283612ad8565b9150613a4e826139e7565b604082019050919050565b60006020820190508181036000830152613a7281613a36565b9050919050565b613a8281612ba8565b82525050565b6000602082019050613a9d6000830184613a79565b92915050565b7f45524332303a20696e73756666696369656e7420616c6c6f77616e6365000000600082015250565b6000613ad9601d83612ad8565b9150613ae482613aa3565b602082019050919050565b60006020820190508181036000830152613b0881613acc565b9050919050565b7f45524332303a207472616e736665722066726f6d20746865207a65726f20616460008201527f6472657373000000000000000000000000000000000000000000000000000000602082015250565b6000613b6b602583612ad8565b9150613b7682613b0f565b604082019050919050565b60006020820190508181036000830152613b9a81613b5e565b9050919050565b7f45524332303a207472616e7366657220746f20746865207a65726f206164647260008201527f6573730000000000000000000000000000000000000000000000000000000000602082015250565b6000613bfd602383612ad8565b9150613c0882613ba1565b604082019050919050565b60006020820190508181036000830152613c2c81613bf0565b9050919050565b7f45524332303a207472616e7366657220616d6f756e742065786365656473206260008201527f616c616e63650000000000000000000000000000000000000000000000000000602082015250565b6000613c8f602683612ad8565b9150613c9a82613c33565b604082019050919050565b60006020820190508181036000830152613cbe81613c82565b9050919050565b600081905092915050565b7f416363657373436f6e74726f6c3a206163636f756e7420000000000000000000600082015250565b6000613d06601783613cc5565b9150613d1182613cd0565b601782019050919050565b6000613d2782612acd565b613d318185613cc5565b9350613d41818560208601612ae9565b80840191505092915050565b7f206973206d697373696e6720726f6c6520000000000000000000000000000000600082015250565b6000613d83601183613cc5565b9150613d8e82613d4d565b601182019050919050565b6000613da482613cf9565b9150613db08285613d1c565b9150613dbb82613d76565b9150613dc78284613d1c565b91508190509392505050565b7f5061757361626c653a206e6f7420706175736564000000000000000000000000600082015250565b6000613e09601483612ad8565b9150613e1482613dd3565b602082019050919050565b60006020820190508181036000830152613e3881613dfc565b9050919050565b6000613e4a82612be6565b9150613e5583612be6565b9250817fffffffffffffffffffffffffffffffffffffffffffffffffffffffffffffffff0483118215151615613e8e57613e8d6132a7565b5b828202905092915050565b7f4e487b7100000000000000000000000000000000000000000000000000000000600052604160045260246000fd5b6000613ed382612be6565b91506000821415613ee757613ee66132a7565b5b600182039050919050565b7f537472696e67733a20686578206c656e67746820696e73756666696369656e74600082015250565b6000613f28602083612ad8565b9150613f3382613ef2565b602082019050919050565b60006020820190508181036000830152613f5781613f1b565b905091905056fea264697066735822122029354db0942b542d90e8e5faeee6c302477d167692bb8e7c42ad4f1eed6b0bbe64736f6c63430008090033",
  "immutableReferences": {},
  "source": "//SPDX-License-Identifier: MIT \r\npragma solidity ^0.8.9;\r\n\r\nimport \"./UTILITY.sol\";\r\nimport \"./ERC1066.sol\";\r\n\r\n//5095785 * 53GW = 0.27Matic * 0.6651 dolar/matic= 0.22 dolares por creacion token\r\n//186870  * 53GW = 0.01Matic * 0.6651 dolar/matic= 0.007dolar  // por transferencia directa\r\n//61088   * 53GW = 0.0021 dolar// por segunda transaccion\r\n\r\n/// @custom:security-contact soporte@comunyt.com\r\ncontract SECURITY is ERC1066, UTILITY {\r\n\r\n/////////////////////////////// Extension ERC1462 for compliance ////////////////////////////////////////////\r\n\r\n    event DecumentAdded(bytes32 indexed _name, bytes32 _contentHash, uint256 _timeStamp);\r\n    event Whitelisted(address indexed _addr, uint256 _amount, uint256 _timeStamp);\r\n\r\n    struct Document {\r\n        uint256 timeStamp;\r\n        bytes32 name;\r\n        bytes32 contentHash;\r\n        string uri;\r\n    }\r\n\r\n    struct PPM {\r\n        Document contrato;\r\n        string TermCondition;\r\n    }\r\n\r\n    mapping (bytes32 => Document) public documents;\r\n    mapping (address => uint256) public whiteList;\r\n    PPM public ppm;\r\n    uint256 public maxMint;\r\n    bytes32 public constant WHITELISTER_ROLE = keccak256(\"WHITELISTER_ROLE\");\r\n    bytes32 public constant EXCHANGE_ROLE = keccak256(\"EXCHANGE_ROLE\");\r\n    bytes32[] public document_names;\r\n    \r\n\r\n    constructor(string memory _name, string memory _symbol, uint256 _supply, string memory _IPFS, bytes32 _contentHash, bytes32 _PPM, string memory _TermCondition) UTILITY(_name, _symbol) payable {\r\n        uint256 _time = block.timestamp;\r\n        ppm.contrato = Document(_time,_PPM, _contentHash, _IPFS);\r\n        ppm.TermCondition = _TermCondition;//\"Unirse a la whitelist es aceptar el ppm\";\r\n        documents[_PPM] = Document(_time,_PPM, _contentHash, _IPFS);\r\n        document_names.push(_PPM);\r\n        uint256 _ScaledSuply = _supply * 10 ** decimals();\r\n        _mint(_msgSender(), _ScaledSuply);\r\n        _grantRole(WHITELISTER_ROLE, _msgSender());\r\n        _grantRole(EXCHANGE_ROLE, _msgSender());\r\n        maxMint = _ScaledSuply;\r\n        emit DecumentAdded(_PPM, _contentHash, _time);\r\n    }\r\n\r\n    \r\n    function whiteListSelf(address _person, uint256 _amount) external virtual whenNotPaused onlyRole(WHITELISTER_ROLE) returns (uint256 max) {\r\n        whiteList[_person] = _amount;\r\n        emit Whitelisted(_person, _amount, block.timestamp);\r\n        return _amount;\r\n    }\r\n\r\n    function whiteListBach(address[] calldata _people, uint256 _amount) external virtual whenNotPaused onlyRole(WHITELISTER_ROLE) returns (uint256 max) {\r\n        uint256 _size = _people.length;\r\n        uint256 _time = block.timestamp;\r\n        address _addr;\r\n        while(_size != 0) {\r\n            unchecked {\r\n                _size--;\r\n            }\r\n            _addr = _people[_size];\r\n            whiteList[_addr] = _amount;\r\n            emit Whitelisted(_addr, _amount, _time);\r\n        }\r\n        return _amount;\r\n    }\r\n    \r\n\r\n    function attachDocument(bytes32 _name, bytes32 _contentHash, string calldata _uri) external onlyRole(DEFAULT_ADMIN_ROLE){\r\n        require(_name.length != 0, \"name must not be empty\");\r\n        require(_contentHash.length != 0, \"Missing hash, SHA-1 recomended\");\r\n        require(bytes(_uri).length != 0, \"external URI must not be empty\");\r\n        require(documents[_name].timeStamp == 0, \"Name already exists\");\r\n        uint256 _time = block.timestamp;\r\n        documents[_name] = Document(_time, _name, _contentHash, _uri);\r\n        document_names.push(_name);\r\n        emit DecumentAdded(_name, _contentHash, _time);\r\n    }\r\n   \r\n    function lookupDocument(bytes32 _name) external view returns (string memory, bytes32) {\r\n        Document storage _doc = documents[_name];\r\n        return (_doc.uri, _doc.contentHash);\r\n    }\r\n\r\n\r\n    function transfer(address _to, uint256 _value) public virtual  override returns (bool) {\r\n        require(checkTransferAllowed(_msgSender(), _to, _value) == STATUS_ALLOWED, \"transfer not allowed\");\r\n        return ERC20.transfer(_to, _value);\r\n    }\r\n\r\n    function approve(address _spender, uint256 _amount) public virtual override whenNotPaused returns (bool) {\r\n        return ERC20.approve(_spender, _amount);\r\n    }    \r\n\r\n    function transferFrom(address _from, address _to, uint256 _value) public virtual  override returns (bool) {\r\n        require(checkTransferFromAllowed(_from, _to, _value) == STATUS_ALLOWED, \"transfer not allowed\");\r\n        if( hasRole(EXCHANGE_ROLE, _msgSender()) ) {\r\n            ERC20._burn(_from, _value);\r\n            ERC20._mint(_to, _value);\r\n            return true;\r\n        }\r\n        return ERC20.transferFrom(_from, _to, _value);\r\n    }\r\n\r\n    function mint(address _to, uint256 _amount) public virtual onlyRole(EXCHANGE_ROLE) {\r\n        require(checkMintAllowed(_to, _amount) == STATUS_ALLOWED, \"mint not allowed\");\r\n        ERC20._mint(_to, _amount);\r\n    }\r\n\r\n    function burn(address _account, uint256 _amount) public virtual onlyRole(EXCHANGE_ROLE) {\r\n        require(checkBurnAllowed(_account, _amount) == STATUS_ALLOWED, \"burn not allowed\");\r\n        ERC20._burn(_account, _amount);\r\n    }\r\n\r\n    function checkTransferAllowed(address /*_from*/, address _to, uint256 _quantity) public virtual view returns (bytes1) {\r\n        address _spender=_msgSender();\r\n        //Si el spender no tiene rol de exchange\r\n        if(!hasRole(EXCHANGE_ROLE, _spender)) {\r\n            // verifico si esta pausado... sino sigo \r\n            _requireNotPaused(); \r\n        }        \r\n        \r\n        //  verifico whitelist para ver si quien recibe puede hacerlo y no excede el monto que tiene permitido\r\n        // no verifico todo lo que el ERC20 ya verifica para ahorrar gas y cdigo\r\n        if(balanceOf(_to) + _quantity <= (whiteList[_to])) {\r\n            return STATUS_ALLOWED ;\r\n        }\r\n        return STATUS_DISALLOWED ;\r\n    }\r\n   \r\n    function checkTransferFromAllowed(address /*_from*/, address _to, uint256 _quantity) public virtual view returns (bytes1) {\r\n        address _spender=_msgSender();\r\n        //Si el spender no tiene rol de exchange\r\n        if(!hasRole(EXCHANGE_ROLE, _spender)) {\r\n            // verifico si esta pausado\r\n            _requireNotPaused(); \r\n        }\r\n        // y luego Verifico que se pueda transferir. Si tiene el rol, aunque est pausado puede seguir\r\n        // es igual a checkTransferAllowed. Pero no lo llamo para ahorrarme el jump a la funcion\r\n        if(balanceOf(_to) + _quantity <= (whiteList[_to])) {\r\n            return STATUS_ALLOWED ;\r\n        }\r\n        return STATUS_DISALLOWED ;\r\n    }\r\n   \r\n    function checkMintAllowed(address _to, uint256 _quantity) public virtual view returns (bytes1) {\r\n        //  verifico whitelist para ver si quien recibe puede hacerlo y no excede el monto que tiene permitido\r\n        if(balanceOf(_to) + _quantity <= (whiteList[_to])) {\r\n            // y le doy permiso\r\n            if(totalSupply() + _quantity > maxMint) {\r\n                return STATUS_DISALLOWED;\r\n            }\r\n            return STATUS_ALLOWED ;\r\n        }\r\n        return STATUS_DISALLOWED;\r\n    }\r\n   \r\n    function checkBurnAllowed(address /*_from*/, uint256 /*_quantity*/) public virtual view returns (bytes1) {\r\n        return STATUS_ALLOWED;\r\n    }\r\n\r\n}",
  "sourcePath": "/home/cryptocris/edIT/tokens/comtok/contracts/SECURITY.sol",
  "compiler": {
    "name": "solc",
    "version": "0.8.9+commit.e5eed63a.Emscripten.clang"
  },
  "schemaVersion": "3.4.11",
  "updatedAt": "2023-08-08T03:03:54.174Z",
  "networkType": "ethereum",
  "devdoc": {
    "custom:security-contact": "soporte@comunyt.com",
    "kind": "dev",
    "methods": {
      "allowance(address,address)": {
        "details": "See {IERC20-allowance}."
      },
      "balanceOf(address)": {
        "details": "See {IERC20-balanceOf}."
      },
      "decimals()": {
        "details": "Returns the number of decimals used to get its user representation. For example, if `decimals` equals `2`, a balance of `505` tokens should be displayed to a user as `5.05` (`505 / 10 ** 2`). Tokens usually opt for a value of 18, imitating the relationship between Ether and Wei. This is the default value returned by this function, unless it's overridden. NOTE: This information is only used for _display_ purposes: it in no way affects any of the arithmetic of the contract, including {IERC20-balanceOf} and {IERC20-transfer}."
      },
      "decreaseAllowance(address,uint256)": {
        "details": "Atomically decreases the allowance granted to `spender` by the caller. This is an alternative to {approve} that can be used as a mitigation for problems described in {IERC20-approve}. Emits an {Approval} event indicating the updated allowance. Requirements: - `spender` cannot be the zero address. - `spender` must have allowance for the caller of at least `subtractedValue`."
      },
      "getRoleAdmin(bytes32)": {
        "details": "Returns the admin role that controls `role`. See {grantRole} and {revokeRole}. To change a role's admin, use {_setRoleAdmin}."
      },
      "grantRole(bytes32,address)": {
        "details": "Grants `role` to `account`. If `account` had not been already granted `role`, emits a {RoleGranted} event. Requirements: - the caller must have ``role``'s admin role. May emit a {RoleGranted} event."
      },
      "hasRole(bytes32,address)": {
        "details": "Returns `true` if `account` has been granted `role`."
      },
      "increaseAllowance(address,uint256)": {
        "details": "Atomically increases the allowance granted to `spender` by the caller. This is an alternative to {approve} that can be used as a mitigation for problems described in {IERC20-approve}. Emits an {Approval} event indicating the updated allowance. Requirements: - `spender` cannot be the zero address."
      },
      "name()": {
        "details": "Returns the name of the token."
      },
      "paused()": {
        "details": "Returns true if the contract is paused, and false otherwise."
      },
      "renounceRole(bytes32,address)": {
        "details": "Revokes `role` from the calling account. Roles are often managed via {grantRole} and {revokeRole}: this function's purpose is to provide a mechanism for accounts to lose their privileges if they are compromised (such as when a trusted device is misplaced). If the calling account had been revoked `role`, emits a {RoleRevoked} event. Requirements: - the caller must be `account`. May emit a {RoleRevoked} event."
      },
      "revokeRole(bytes32,address)": {
        "details": "Revokes `role` from `account`. If `account` had been granted `role`, emits a {RoleRevoked} event. Requirements: - the caller must have ``role``'s admin role. May emit a {RoleRevoked} event."
      },
      "supportsInterface(bytes4)": {
        "details": "See {IERC165-supportsInterface}."
      },
      "symbol()": {
        "details": "Returns the symbol of the token, usually a shorter version of the name."
      },
      "totalSupply()": {
        "details": "See {IERC20-totalSupply}."
      }
    },
    "version": 1
  },
  "userdoc": {
    "kind": "user",
    "methods": {},
    "version": 1
  }
}